:020000040800F2
:100000005807002041020008ED140008851400087C
:10001000E91400089B1200084B1A000800000000B9
:10002000000000000000000000000000A916000809
:100030009F120008000000007D150008C11700088D
:100040005B0200085B0200085B0200085B0200081C
:100050005B0200085B0200085B0200085B0200080C
:100060005B0200085B0200085B0200085B020008FC
:100070005B0200085B0200085B0200085B020008EC
:100080005B0200085B0200085B0200085B020008DC
:100090005B0200085B0200085B0200085B020008CC
:1000A0005B0200085B0200085B0200085B020008BC
:1000B0005B0200085B0200085B0200085B020008AC
:1000C0005B0200085B0200085B0200085B0200089C
:1000D0005B0200082D1800085B0200085B020008A4
:1000E0005B0200085B0200085B0200085B0200087C
:1000F0005B0200085B0200085B0200085B0200086C
:100100005B0200085B0200085B0200085B0200085B
:100110005B0200085B0200085B0200085B0200084B
:100120005B0200085B0200085B0200085B0200083B
:100130005B0200085B0200085B0200085B0200082B
:100140005B0200085B0200085B0200085B0200081B
:100150005B0200085B0200085B0200085B0200080B
:100160005B0200085B0200085B0200085B020008FB
:100170005B0200085B0200085B0200085B020008EB
:100180005B0200085B02000800F002F800F049F88A
:100190000AA090E8000C82448344AAF10107DA45E2
:1001A00001D100F03EF8AFF2090EBAE80F0013F0EB
:1001B000010F18BFFB1A43F001031847001D000090
:1001C000201D0000103A24BF78C878C1FAD8520721
:1001D00024BF30C830C144BF04680C6070470000C1
:1001E0000023002400250026103A28BF78C1FBD840
:1001F000520728BF30C148BF0B607047662901F025
:100200000786002070471FB501F0FDFD00F006FBDA
:1002100004000020002101F069FDE0601FBD10B561
:1002200010BD00F013FC1146FFF7EDFF01F0C4FC18
:1002300000F031FC03B4FFF7F2FF03BC01F026FC31
:100240000948804709480047FEE7FEE7FEE7FEE76A
:10025000FEE7FEE7FEE7FEE7FEE7FEE704480549A6
:10026000054A064B70470000C517000889010008C1
:100270005801002058070020580300205803002090
:10028000704700000FB4044910B503AA029800F0AB
:10029000B3FA10BC5DF814FB140000202DE9F05FE8
:1002A000894604464FF0000ADFF824B1FB44C0F849
:1002B00020A02046E168884700287DD0252806D068
:1002C000D4E901219047206A401C2062F1E7002513
:1002D0005F462046E16888472028064607DB312E26
:1002E00005D2B81910F8200C08B10543F1E7A807AA
:1002F00001D525F00405C4F81CA00027C4F818A0F7
:100300002A2E09D0304601F0BAFB38B304EB870837
:10031000303EC8F8186019E059F8041B204604EB79
:1003200087029161E1688847012F064618D1E0698C
:10033000002820DA25F020051DE0D8F8180000EB91
:10034000800006EB40003038C8F818002046E1680D
:100350008847064601F093FB0028EED1012F0AD012
:100360002E2E08D12046E16888477F1C0646022FC2
:1003700045F02005C4DBA069002803DA404245F0BF
:100380000105A061E80701D025F01005A6B1A6F18E
:100390004100192802D8203645F400654A46314606
:1003A000204625604D46FFF729FF60B1012807D0A0
:1003B000ED1D25F0070000E007E000F1080978E7EF
:1003C00005F1040975E730467AE7206ABDE8F09F39
:1003D000641B0000704770477047704770472DE9F5
:1003E000FF4F0C461E464FF0FF378BB0D2E900019D
:1003F000DDF860800A908A46C1F30A5505B93D468A
:10040000002108464FF00000BAF1000F00F4400050
:1004100005DA00EB80004FF4400101EA50004FEA9A
:100420009059B9F1010F00DDB9460A9850EA4A0027
:100430000ED044F61050A5F2FF3545432F14B8F105
:10044000000F1ED07542291E1EDDC9F100021CE0FE
:10045000B8F1010F4FF0000001D0302103E0F2436A
:1004600005E02154401CB042FBDB30460022002155
:1004700021540B99C1F80880C1E900200FB0BDE8F4
:10048000F08FBD1B6D1CDEE74A4600DA694206A804
:1004900000F066FA06AB93E8070003AB83E80700B9
:1004A00050460A9900F03EFB8DE80700A0F5005089
:1004B0001F3800900398002D09DD42F21F014A46C3
:1004C000084403A90390684600F09DFD08E0A0F5EC
:1004D00000504A461F3803A90390684600F0A7FD64
:1004E0008DE807000004000C03D04FF0FF304108F6
:1004F00000E01046B8F1000F03D00022009215462C
:100500001EE0751E05D400F08DF9303262556D1E67
:10051000F9D5B3460122084302D000227F1C04E033
:100520002078302801D100227F1E002A099786D02A
:100530001DE0112D07DA00F075F9303262556D1C9F
:1005400050EA0102F5D1084302D00098C8B10EE08C
:100550000021681E05E0235C625C63542254401E47
:10056000491C8142F7DBAB46A81B401E09900020C6
:1005700004F80B000B98099AC0F80880C0E9002B1A
:100580007CE711264FF0000859E72DE9F04F884627
:100590000446D21D22F0070191B0D1E90001CDE956
:1005A0000A0101F054FA02460B98C00F01D02D2029
:1005B00007E02068810701D52B2002E0202101EA15
:1005C000C000032A099001D0072A05DB03464146F3
:1005D000204600F085F90BE12078800601D5E0691E
:1005E00000E00620B8F1650F814606D0B8F1660F2D
:1005F00018D0B8F1670F70D131E00020B9F1110FB8
:10060000009001DB112301E009F101030AAA01A90D
:100610000CA8FFF7E4FEDDE90C70002609F10105E6
:10062000834647E001204B4600904FF000470AAA5E
:1006300001A90CA8FFF7D3FEDDE90DB00C995D46CA
:10064000002610B909F101000D18B9EB050003D41B
:10065000C0F1FF3609F10105A5EB09002BE0B9F166
:10066000010F01DA4FF001090020B9F1110F0090DC
:10067000484601DD112300E003460AAA01A90CA89F
:10068000FFF7ADFEDDE90C704D460026834620786D
:1006900000070AD4AB4500DA5D4601A8012D04DD50
:1006A000411911F8011C302907D04F4502DA17F122
:1006B000040F04DA012082460FE06D1EEEE7002FE2
:1006C00002DCED1B3E4403E0781CA84200DD7D1CEB
:1006D000B81B00F1010A4FF000472078000703D44F
:1006E000AA4501DB4FF0FF3A0021B7F1004F0DF1B1
:1006F00043088DF8431024D002202B23002F01DA69
:100700007F422D230A21021EA0F1010000DC5FB10F
:1007100097FBF1FC97FBF1F201FB1C7C17460CF1F7
:10072000300C08F801CDEEE7A8F101000370218834
:10073000090501D5452100E06521A0F1010800F877
:10074000011C09980FA9A1EB0807FF1D00B10120AA
:10075000411901EBEA70A1693844081A401EA061F2
:100760002078C00602D42046AFF30080099828B153
:10077000D4E901219047206A401C20622078C006FD
:1007800022D52046AFF300801EE0002E04DBB345E7
:1007900002DD01A8805D00E03020D4E9012190470E
:1007A000206A401C2062761CAAF101005FEA000A60
:1007B0000AD100F033F8C0680168405CD4E9012137
:1007C0009047206A401C2062281EA5F10105DCDC50
:1007D00007E0D4E9012118F8010B9047206A401C7A
:1007E0002062381EA7F10107F3DC2046AFF300803A
:1007F000032011B043E60000074B70B50D467B4463
:1008000000F05BF80446284600F018F910B14FF0EC
:10081000FF3070BD204670BD9B130000004870473C
:100820001401002030B5B0F10A024FEA900E71F1C8
:1008300000034EEA817EB0EB0E0061EB91014FEABE
:10084000101E4EEA017E10EB0E0041EB11114FEA33
:10085000102E4EEA016E10EB0E0041EB11214FEA13
:10086000104E4EEA014E10EB0E0041EB11414018C4
:1008700041F100014FEAD00040EA41704FEAD10156
:1008800010EB80054FEA810444EA907444EB0104C4
:100890006D1944EB0404521BA3414FF0000348BF01
:1008A0000A3200D530BD401C41F1000130BD0000CE
:1008B00001694A1C02610878704700B58FB0CDE924
:1008C00001310021059105497944CDE90310114614
:1008D0006846FFF7E3FC0FB000BD0000E5FFFFFF37
:1008E0002DE9F0411F46044603260168072A01F45A
:1008F000006004DB08B116A505E016A503E008B109
:1009000015A500E015A521F010002060A069C01E0B
:10091000A0610FB1401EA0612046AFF300804FB12F
:10092000D4E9012138469047206A401C2062C01C4F
:10093000206206E0206AFAE7D4E9012115F8010BEC
:100940009047761EF8D22046AFF30080BDE8F081D4
:100950004E414E006E616E00494E4600696E660063
:100960002DE9F047814616468AB0334878440DC8D1
:100970008DE80D0030487844801C03AC0DC884E835
:100980000D0041F69B300844372190FBF1F290FBBB
:10099000F1F5A5F1800501FB12041B3C02D5644270
:1009A000012000E00020DFF890A080460027FA44F4
:1009B000AAF1BE0A0DE0E00709D03246684607EB0F
:1009C00047010AEB810100F032FB8DE8070064105B
:1009D0007F1C002CEFD1184F7F44AC3F18E0E80794
:1009E00014D007EB04100DF1180A90E80E008AE805
:1009F0000E00C068F04201D198190890324606A94D
:100A000003A800F014FB03AB83E807006D10641C1F
:100A1000002DE4D132466946B8F1000F03A802D098
:100A200000F0F1FA01E000F002FBC9E90001C9F8A9
:100A300008200AB0BDE8F08734150000007B00F004
:100A40008000704700487047F40000207546FFF7AB
:100A5000F9FFAE4605006946534620F0070085467B
:100A600018B020B5FFF7FAFBBDE820404FF00006B4
:100A70004FF000074FF000084FF0000B21F0070186
:100A8000AC46ACE8C009ACE8C009ACE8C009ACE8C9
:100A9000C0098D4670470446AFF300802046FFF73B
:100AA000C9FB00004FF0013C50F8042B51F8043B07
:100AB0009A4221D1A2EB0C03934313EACC1317D132
:100AC00050F8042B51F8043B9A4215D1A2EB0C03C9
:100AD000934313EACC130BD150F8042B51F8043B89
:100AE0009A4209D1A2EB0C03934313EACC13DBD057
:100AF0004FF00000704700BFD01A01BAB1FA81F17F
:100B000001F0180122FA01F0CB40C1F12001DBB263
:100B1000C0B2C01A2CFA01F3D11A914311EAC311E1
:100B2000E6D170475FEA400C08BF91F0000F4FEA32
:100B30008C234FEAC12243EA51514FEA1C5018BF9F
:100B400000F5F0404FEA300018BF41F000415FEA85
:100B50006C5C00F02980BCF1FF3F08BF40F0804092
:100B60007047130C06BF12044FF0100C4FF0000C2E
:100B7000130E04BF12020CF1080C130F04BF120174
:100B80000CF1040C930F04BF92000CF1020CD30F74
:100B900004BF52000CF1010C11464FF00002A0F10D
:100BA0001F00A0EB0C00704711F0004F08BF70470A
:100BB00031F000413FF4D5AF0B0C06BF09044FF0F4
:100BC000100C4FF0000C0B0E04BF09020CF1080CC6
:100BD0000B0F04BF09010CF1040C8B0F04BF89003B
:100BE0000CF1020CCB0F04BF49000CF1010CCCF14D
:100BF0002003A0EB0C0022FA03F302FA0CF241EA04
:100C0000030100F10100704720F07F4C80EA0300EF
:100C100023F07F47ACEB070303F57C5300F0004063
:100C200003F1FF032DE980494FEA154B09B44FEA60
:100C3000144325EA0B4E24EA03480FF2042606EB80
:100C4000132749083E785FEA320203FB0667C7F5BF
:100C5000000707FB06F64FEA54374FEAD64606F17F
:100C6000020607FB066CCCF1005C4FEA1C472CEA3D
:100C7000074C07FB06F40CFB06F504EB15464FEAA0
:100C8000961634BF00204FF000404FEAD13706FBE4
:100C900007FC4FEA1C4C0CFB0BF7D21B03FB0CF7B9
:100CA00061EB07010CFB0EF7B0EB074072EB17424C
:100CB0000CFB08F734BFA2EB0742B2EB074261EB33
:100CC00017414FEA0C444FEA910706FB07FC4FEA35
:100CD0001C4C0CFB0BF7B0EBC74072EB573203FB1D
:100CE0000CF734BFA2EBC742B2EBC74261EB5731FE
:100CF0000CFB0EF7B0EBC70072EB57720CFB08F75A
:100D000034BFA2EBC702B2EBC70261EB5771039F7E
:100D10004FEA816141EA921104EBCC044FEAD137EA
:100D20004FEA826206FB07FC42EA90124FEA8060BB
:100D30004FEA1C4C0CFB0BF7D21B03FB0CF761EBCF
:100D400007010CFB0EF7B0EB074072EB17420CFBF0
:100D500008F734BFA2EB0742B2EB074261EB174141
:100D60004FEA8C554FEA910704EB9C2406FB07FCE5
:100D70004FEA1C4C0CFB0BF7B0EBC74072EB573241
:100D800003FB0CF734BFA2EBC742B2EBC74261EBE7
:100D900057310CFB0EF7B0EBC70072EB57720CFB30
:100DA00008F734BFA2EBC702B2EBC70261EB577181
:100DB00015EB4C254FEA816141EA92114FEA8262BC
:100DC0004FEAD13742EA901206FB07FC44F10004D7
:100DD0004FEA80604FEA1C4C0CFB0BF7D21B03FB65
:100DE0000CF761EB07010CFB0EF7B0EB074072EB61
:100DF00017420CFB08F734BFA2EB0742B2EB0742E5
:100E000061EB174115EB1C154FEA813141EA924124
:100E10004FEA823242EA90424FEA80304FEA0C7643
:100E200044F1000448EA03434EEA0B484FF0000E39
:100E3000B2EB080C71EB030724BF624639464EEB58
:100E40000E0E4FF0000B0018524149414BEB0B0BBB
:100E5000B2EB080C71EB03077BF1000B24BF624679
:100E600039464EEB0E0E4FF0000B0018524149412F
:100E70004BEB0B0BB2EB080C71EB03077BF1000B98
:100E800024BF624639464EEB0E0E51EA020718BFE8
:100E900046F0010616EB0E7655F1000254F1000102
:100EA00003D5BDE88901BDE80088BDE88901BDE83A
:100EB0000048B619524141EB0101A3F1010370470B
:100EC00080807F7E7D7C7B7A797877767675747387
:100ED000727171706F6E6E6D6C6C6B6A6A69686846
:100EE000676666656464636362616160605F5F5EDC
:100EF0005E5D5D5C5C5B5B5A5A5959585857575652
:100F000056555555545453535252525151505050B6
:100F10004F4F4F4E4E4D4D4D4C4C4C4B4B4B4A4A08
:100F20004A4949494848484747474746464645454C
:100F30004544444444434343434242424241414185
:100F4000002B26D4770021D01CB54FEA370703B415
:100F50004FF010004FF010014FF000000FBCBDE843
:100F600010400BF1010BBBF1010F08BF5FEA17073F
:100F700022BF12F1010211F101014FF0004143F1D2
:100F8000000300F0004043EA00007047F9D357081F
:100F9000DAE746EA064613F1400F4FEA16461FDD30
:100FA00013F1200FDFBF16430A46002120335B42B6
:100FB000C8D0C3F1200746EA064602FA07F74FEA0F
:100FC000164646EA0706C3F1200722FA03F201FAA1
:100FD00007F721FA03F14FF0000342EA0702B1E7F5
:100FE00046EA020646EA06464FEA164646EA010681
:100FF000BCBF46EA0646360C4FF000034FF0000235
:101000004FF000019EE72DE9C048934630B491E8C7
:10101000380007C831EA400C48BF34EA430C03D516
:10102000FFF7F2FDFFF78CFFF0BCBDE800882DE96B
:10103000C048934630B491E8380007C810F0804F9C
:1010400008BF13F0804F03D100F005F8FFF778FFD9
:10105000F0BCBDE8008820F07F4780EA030023F061
:101060007F4C07EB0C03A3F57C5300F00040A3F189
:10107000FE0392F0000F00F0B38095F0000F00F037
:1010800077802DE901494FEA11404FEA144621EAE1
:10109000004800FB06FC24EA064708FB06F607FBAF
:1010A00008F800FB07F718EB06484CEB164C4FEA24
:1010B000124B18EB07484FEA15464CEB174022EA53
:1010C0000B4E0BFB06FC25EA06470EFB06F607FB5C
:1010D0000EFE0BFB07F71EEB064E4CEB164C4FF0CB
:1010E00000061EEB074E4CEB174B18EB0B0840F1BC
:1010F000000018EB0E0B58EB000840F100008F1AAF
:101100004FF000013CBFC943661B14BFB5EB040C94
:1011100000213CBFC943F61B4FEA17444EEA8E0E2E
:1011200027EA04454FEA1C4704FB07622CEA074CF8
:1011300005FB07F70CFB05F604FB0CFC16EB07465A
:1011400042EB174216EB0C4642EB1C421BEB060629
:1011500058EB0202414146EA9E0601D5BDE80189ED
:10116000B619524141EB0101A3F10103BDE8018928
:101170004FEA14454FEA114724EA054621EA074C95
:1011800005FB07F406FB07F70CFB06F105FB0CFC5F
:1011900011EB074144EB17444FEA124711EB0C41A6
:1011A00044EB1C4422EA074C05FB07F206FB07F759
:1011B0000CFB06F605FB0CFC16EB074642EB174250
:1011C00016EB0C4642EB1C456A1854F1000148BF6F
:1011D0007047B619524141EB0101A3F10103704779
:1011E00095F0000F37D04FEA11424FEA144721EA39
:1011F000024624EA074C02FB07F106FB07F70CFB4B
:1012000006F402FB0CFC14EB074441EB17414FEAD8
:10121000154714EB0C4441EB1C4125EA074C02FB3B
:1012200007F506FB07F70CFB06F602FB0CFC16EBBA
:10123000074645EB174516EB0C4645EB1C421219C9
:1012400051F1000148BF7047B619524141EB01010D
:10125000A3F1010370474FEA14454FEA114724EA0E
:10126000054621EA074C05FB07F106FB07F70CFBD7
:1012700006F24FF0000605FB0CFC12EB074241EBB7
:10128000174112EB0C4251EB1C4148BF70479218BA
:1012900041EB0101A3F10103704700BFFEE7704776
:1012A000F0B50A4600210023002400BF3DE00125DF
:1012B00005FA01F3156805EA03049C4234D1056878
:1012C0004F000326BE40B543056015794E00B5407A
:1012D0000668354305601579012D02D01579022D78
:1012E00016D185684F000326BE40B5438560557909
:1012F0004E00B540866835438560456801268E40BE
:10130000B5434560456896798E40B6B23543456031
:10131000C5684F000326BE40B543C560D5794E0071
:10132000B540C6683543C560491C1029BFD3F0BD20
:10133000F0B5002300244D07ED0E02FA05F3CE10A0
:1013400000F1200555F826504E07F70E0F26BE4037
:10135000B543CF1000F1200646F82750CE1000F11B
:10136000200555F8265045EA0304CE1000F120056B
:1013700045F82640F0BD0246002013690B400BB132
:10138000012000E0002070474183704701837047CF
:1013900010B500F02DF80149086010BD08000020CC
:1013A00010B500F025F80E490860084600680D49A0
:1013B0000860084600680C490968401A0949086035
:1013C000084690ED000AB8EEC00ADFED080A80EE8C
:1013D000201ABDEEC10A80ED000A006810BD0000B1
:1013E000040000200C000020080000200000D7436B
:1013F00070B50024002500BF02212148FFF7BBFF84
:101400000028F9D1012000F07DFB01211C48FFF7E5
:10141000BBFF00BF02211A48FFF7ADFF0028F9D03B
:10142000002519E0642000F06DFB01211448FFF74E
:10143000ADFF6400012000F065FB01211048FFF7BB
:10144000A3FF02210E48FFF796FF00B1641C0120A4
:1014500000F058FB681CC5B2182DE3DB01210848D9
:10146000FFF794FF84F40004012000F04BFB0121FE
:101470000348FFF789FF012000F044FB204670BDC0
:101480000004024000BFFEE71FB50121022000F06A
:1014900077F8012002908DF80C0000208DF80E00E6
:1014A00002208DF80D008DF80F0002A90D48FFF7FE
:1014B000F7FE0121022000F063F8022000900020D6
:1014C0008DF8040002208DF8050000208DF807003B
:1014D00069460448FFF7E4FE0121022000F050F8BD
:1014E0001FBD00000004024000BFFEE7704700007F
:1014F00070B5002100230F22C4781CB3174C246858
:1015000004F4E064C4F5E064C4F30721C1F1040409
:10151000E3B20A4144789C40E1B28478144021430C
:101520000C07210E0E4C05786155047804F01F0558
:101530000124AC4005786D11AD0005F1E025C5F83A
:10154000004109E0047804F01F050124AC40054D7A
:101550000678761145F8264070BD00000CED00E0DD
:1015600000E400E080E100E002490143024A11602A
:10157000704700000000FA050CED00E07047000025
:1015800029B1064A12680243044B1A6004E0034A78
:1015900012688243014B1A607047000030380240E5
:1015A00029B1064A12680243044B1A6004E0034A58
:1015B00012688243014B1A607047000044380240B1
:1015C000F0B5002100220024022500260223324F1C
:1015D0003F6807F00C0121B1042905D0082937D153
:1015E00005E02E4F076036E02D4F076033E02A4FAD
:1015F0003F1F3F68C7F38056274F3F1F3F6807F0E4
:101600003F036EB1264FB7FBF3F7DFF88CC0ACF1A8
:10161000040CDCF800C0CCF3881C07FB0CF40CE0D5
:101620001E4FB7FBF3F7DFF870C0ACF1040CDCF829
:1016300000C0CCF3881C07FB0CF4174F3F1F3F681A
:10164000C7F301477F1C7D00B4FBF5F7076002E09C
:10165000124F076000BF00BF0F4F3F6807F0F00157
:101660000909104F7A5C0768D74047600A4F3F6806
:1016700007F4E051890A0B4F7A5C4768D7408760CE
:10168000054F3F6807F46041490B064F7A5C476895
:10169000D740C760F0BD0000083802400024F400C5
:1016A00000127A001A000020704700000CB50020DC
:1016B000019000903448006840F48030324908605E
:1016C00000BF3148006800F4003000900198401CD1
:1016D0000190009818B90198B0F5A04FF1D12A48AF
:1016E000006800F4003010B10120009001E00020FB
:1016F00000900098012846D123484030006840F00F
:1017000080502149403108602048006840F4404042
:101710001E4908601C48083000681B4908310860F1
:101720000846006840F4004008600846006840F43D
:10173000A05008601648091F0860081F006840F0A4
:101740008070091F086000BF0F48006800F000703B
:101750000028F9D040F205700E4908600A480830A8
:10176000006820F003000849083108600846006856
:1017700040F00200086000BF03480830006800F035
:101780000C000828F8D10CBD003802400070004061
:1017900008544007003C0240042808D14FF0E021E3
:1017A000096941F004014FF0E022116107E04FF0B8
:1017B000E021096921F004014FF0E0221161704736
:1017C0007047000010B51548006840F470001349D8
:1017D00008601348006840F00100114908600020CB
:1017E0000F49083108600E4800680E4908400C494E
:1017F00008600D48091D0860081F006820F480205B
:10180000091F0860002006490C310860FFF74EFFF1
:101810004FF0006001498039086010BD88ED00E09C
:1018200000380240FFFFF6FE1030002410B540F2F1
:1018300025511D4800F04AF810B31B4800F000F98C
:10184000C4B21A48008800F40040C8B9174800889C
:1018500000F4804060B10A2C03D0002013490880B6
:1018600020E01248008840F400401049088019E048
:101870000D2C06D10D48008840F480400B490880AB
:1018800010E00A480088C0F30D0009490C540748CD
:101890000088401C0549088008460088C72801DDEB
:1018A0000020088010BD000000100140180000203A
:1018B0002C00002021B1828942F40052828104E090
:1018C00082894DF6FF731A408281704770B50246D7
:1018D000002400230025002040F66A16B14200D102
:1018E00000BFC1F3421501F01F03012606FA03F3FE
:1018F000012D02D19689334006E0022D02D1168ACD
:10190000334001E0968A33400C12012606FA04F4B3
:101910001688344013B10CB1012000E0002070BDE6
:10192000F0B50346002400260025002040F66A1783
:10193000B94200D100BF1846C1F3421401F01F069E
:10194000012707FA06F5012C01D10C3004E0022C26
:1019500001D1103000E014301AB107682F4307603E
:1019600002E00768AF430760F0BD00002DE9FF47C4
:1019700005460E460024A14600BFA046B08900B12E
:1019800000BF2C8A24F44054F08804432C82AC8994
:1019900041F20C608443B08831890843718908435F
:1019A0000443AC81AC8A24F44074B0890443AC8213
:1019B0006846FFF705FE2048854202D01F48854251
:1019C00002D1DDF80C9001E0DDF80890A88900F460
:1019D000004040B109EBC90000EB09103168490033
:1019E000B0FBF1F707E009EBC90000EB0910316823
:1019F0008900B0FBF1F76420B7FBF0F00401200987
:101A0000642101FB1078A88900F4004040B1322025
:101A100000EBC800B0FBF1F000F00700044308E061
:101A2000322000EB08106421B0FBF1F000F00F0051
:101A300004432C81BDE8FF870010014000140140E1
:101A400001468888C0F30800704700BFFEE703B472
:101A500001984100009850EAC12018BF04204A0DA7
:101A600018BF40F0010040F2FF72B2EB515F08BFB7
:101A700040F00200012808BF052002B0704730384E
:101A80000A2801D2012070470020704700BF70472C
:101A900010B504466FF00400FFF77EFEE11704EB7B
:101AA0005171C1F3C701074A11701046007800EB6D
:101AB0004001C1EBC0104FF6FF7101EAC0000249BE
:101AC000088010BD100000201200002070B50446F0
:101AD0004FF4077094FBF0F0C6B24FF4077094FB1C
:101AE000F0F100FB114085B205E04FF4077000F003
:101AF0002FF8701EC6B2002EF7D115B1284600F09F
:101B000027F870BD0146114A12784A434FF0E0238E
:101B10005A6100229A611A46126942F001021A6162
:101B200000BF4FF0E022106900F001021AB100F48A
:101B30008032002AF5D04FF0E022126922F0010233
:101B40004FF0E0231A6100229A61704710000020D4
:101B50000146114A12884A434FF0E0235A6100229D
:101B60009A611A46126942F001021A6100BF4FF0F1
:101B7000E022106900F001021AB100F48032002A5C
:101B8000F5D04FF0E022126922F001024FF0E0237D
:101B90001A6100229A6170471200002000BF054AB6
:101BA000128802F04002002AF9D0C2B2014B9A809A
:101BB00070470000001001402DED028B4FF4A06033
:101BC000FFF7D2FCA820FFF763FF4FF4E13000F0ED
:101BD00037F8FFF759FC4FF4FA60FFF777FFFFF78C
:101BE000D7FB6420FFF772FF1EE0FFF7D9FB00EE82
:101BF000100AB8EEC00A0D4880ED000A90ED000A08
:101C0000DFED0B0A80EE201A80ED001A006800F06C
:101C100089F841EC180B53EC182B06A0FEF732FBA9
:101C20004FF47A70FFF752FFDFE70000000000205A
:101C300000007A4425302E3366206B670A000000CE
:101C400010B588B0044601210846FFF799FC012130
:101C50001020FFF7A5FC072209212248FFF768FBA7
:101C600007220A211F48FFF763FB4FF4C06006906C
:101C700002208DF81C008DF81D0000208DF81E003C
:101C800001208DF81F0006A91648FFF709FB0294F2
:101C90000020ADF80C00ADF80E00ADF81000ADF866
:101CA00014000C20ADF8120002A90F48FFF75EFEE9
:101CB00001210D48FFF7FEFD012240F225510A489F
:101CC000FFF72EFE25208DF8040003208DF8050077
:101CD0008DF8060001208DF8070001A8FFF708FC29
:101CE00008B010BD000002400010014010B50029EE
:101CF0000AD00878002807D005487844FEF7D2FEBD
:101D0000002801D0002010BD0248784410BD00001A
:101D1000E2010000DA0100000808A0F500114FEA16
:101D20003101704743004FEAD30C4FEA3C0C43406B
:101D30001FBF40070CF1605113F0FE4F70471CF0BD
:101D4000006F03D100200CF0004170470CF00043FD
:101D500043EA507010B540EACC0000F00EF800BF26
:101D6000000000924FEA0001FFF7D6BF4FF000419C
:101D70004FF00000A1F5002170470EF1020E2EF089
:101D8000030E5EF8044B244204D44FEA4102B2F140
:101D90007F4F11D84FEA4003B3F17F4F0CD80ED1DB
:101DA0004FEAD07CB2F17F4F0CEB4C0C0CF1020CE3
:101DB00008BF4CEBD17C04E04FF0080C01E04FEA87
:101DC000D17C0CEB4C0324FA03F404F00704B4F1C7
:101DD000040C06D20EEB840CBDE810404CF0010C54
:101DE0006047DFE80CF0070802024FF00040A0F562
:101DF000800010BD0846420018BFD2F1807288BF33
:101E000000F0004010BD4FF04070E1EE100A704746
:101E1000FEF7BBBB04000008000000000000000249
:101E2000000100001000000002400000000000A0BF
:101E30000000000005400000000000C80000000095
:101E40000C4000000000409C000000001940000011
:101E50000020BCBE0000000034400000BFC91B8E43
:101E600000000004B5400000504BCFD06607E2CF21
:101E7000010000006C4100003E8251AADFEEA73451
:101E800001000000D9420000DCB5A0E23A301F9703
:101E9000FFFFFFFFB4450000FD25A0C8E9A3C14F27
:101EA000FFFFFFFFFF3F0000000000800000000078
:101EB000FF3F00000000008000000000F81E000846
:101EC000000000202C000000C4010008241F0008AE
:101ED0002C0000202C070000E00100081C0000007E
:101EE00043000000F8FFFFFF0C0000000E000000A0
:101EF0000F0000002E0000000000000000000000A5
:101F000000000000000000000000000000000000D1
:101F100000000000000001020304010203040607A0
:041F200008090000AC
:040000050800018965
:00000001FF
