:020000040800F2
:10000000100E002001010008552000088917000883
:10001000D91F000817040008A128000800000000EC
:10002000000000000000000000000000C3230008E2
:100030001904000800000000C1230008D1230008B3
:100040001B0100081B0100081B0100081B01000820
:100050001B0100081B0100081B0100081B01000810
:100060001B0100081B0100081B0100081B01000800
:100070001B0100081B0100081B0100081B010008F0
:100080001B0100081B0100081B0100081B010008E0
:100090001B0100081B0100081B0100081B010008D0
:1000A0001B0100081B0100081B0100081B010008C0
:1000B0001B0100088D2400081B0100081B0100081B
:1000C0001B0100081B0100081B0100081B010008A0
:1000D0001B0100081B0100081B0100081B01000890
:1000E0001B0100081B0100081B010008DFF80CD0F1
:1000F00000F050F900480047192B0008100E0020AE
:100100000648804706480047FEE7FEE7FEE7FEE7B1
:10011000FEE7FEE7FEE7FEE7FEE7FEE74524000810
:10012000ED000008F0B480EA0102D40F4200B2EB07
:10013000410F02D20246084611464A0042D0C30D82
:10014000DDB2C1F3C752AD1A202D35DAC1F3160165
:1001500041F4000204B15242C5F1200602FA06F150
:100160002A411044B3EBD05F23D0C4B1012DA0EBE2
:10017000C35009DCF0BC4FF0004202EAC352DBB2CC
:1001800000F5000000F0D7B8400000F1807000EBEF
:10019000C350A0F1807040EAD170490009E04908DD
:1001A00041EAC071A0EBC35000F50000400800EB2D
:1001B000C350F0BC00F0B6B86142012202EB41012D
:1001C000001BF6E7F0BC704781F00041AAE780F021
:1001D0000040A7E780EA010210B502F000434000AA
:1001E00022D04A001FD0010E01EB1261C0F356006D
:1001F000C2F3560240F4000042F40002A0FB0220C9
:1002000000047F39140400D0401C50EA124001D48D
:100210004000491EC2B20C0604EBD010401C40083E
:10022000802A02D003E0002010BD20F00100002948
:1002300000DA0020184310BD30B480EA010202F059
:10024000004530F0004221F0004013D090B1C30DC2
:10025000D40DC2F31601C0F31600E41A41F40001F4
:1002600040F400027D34914201D3641C00E0490057
:10027000002C02DA30BC002070474FF4000000234D
:10028000914201D3891A034340084FEA4101F7D153
:1002900051B1914202D14FF0004105E002D24FF03E
:1002A000010101E06FF0010103EBC450284430BCB0
:1002B00000F038B8C10F80EAE0700844CA079623FE
:1002C000002100F038B800F0004220F00040C10DDD
:1002D000C0F3160040F400007F2901DA00207047C7
:1002E000962903DCC1F19601C84001E096398840A7
:1002F000002AF4D04042704730B50B46014600203A
:100300002022012409E021FA02F59D4205D303FAD7
:1003100002F5491B04FA02F52844151EA2F1010258
:10032000F1DC30BD0029A8BF7047401C490008BF60
:1003300020F00100704710B4B0FA80FC00FA0CF015
:1003400050EA010404BF10BC704749B1CCF120044D
:1003500021FA04F411FA0CF118BF012121430843DA
:10036000A3EB0C01CB1D4FEA00614FEA102042BF06
:10037000002010BC704700EBC35010440029A4BFFC
:1003800010BC7047401C490008BF20F0010010BCA1
:1003900070470000064C074D06E0E06840F001039E
:1003A00094E8070098471034AC42F6D3FFF7A2FE5A
:1003B000A8360008C836000870B58D1810F8014B33
:1003C00014F0030201D110F8012B231106D110F80B
:1003D000013B03E010F8016B01F8016B521EF9D1EB
:1003E000ABB110F8012B04F00C048A1A0C2C03D0CA
:1003F000A2EB84129B1C08E010F8014BA2EB042234
:10040000F8E712F8014B01F8014B5B1EF9D5A94240
:10041000D4D3002070BDFEE77047000010B580689F
:1004200084B2214602A002F09BFA204610BD0000D3
:100430000A202020202020202020202020202020D2
:1004400020494FBFDAB6C1D6B5CEAAA3BA2020251F
:1004500064200D0A0000000010B501F03FF90149C9
:10046000486010BD4008002010B501F037F9064C77
:1004700020606168401AFFF71DFF0449FFF7DCFEAA
:10048000FFF721FFA06010BD400800200000D74307
:100490002DE9F84FDFF890A100220AF1040B144671
:1004A00001274FF00F090BF1040E00BF0B6807FA8C
:1004B00004F52B40AB4274D1DFF870C14E68A6EB57
:1004C0000C0866452BD00DDC032E34D005DC36B38A
:1004D000012E19D0022E2FD11BE0112E16D0122E74
:1004E0002AD119E0B8F5881F19D006DCB8F5803F8D
:1004F00015D0B8F5801F1FD111E0B8F5001F0ED040
:10050000B8F5041F18D10AE0CA6815E0CA68121DC0
:1005100012E0CA6808320FE0CA680C320CE08A6840
:100520002AB1012A4FF0080203D0456104E00422F9
:1005300002E0056100E00022FF2B01D8064601E041
:1005400000F104064FEA840501D9A5F12005D6F88B
:1005500000C009FA05F82CEA080C02FA05F54CEA85
:10056000050CC6F800C04D68ED0057D5304DAE699A
:1005700046F00106AE61AD6924F0030605F0010501
:1005800000952C4D06EB050CDCF80850A6074FEA49
:10059000167809FA08F6B543274EB04202D1002674
:1005A00010E03BE0254EB04201D101260AE0244E86
:1005B000B04201D1022605E0224EB04201D103260D
:1005C00000E0042606FA08F62E43CCF808604D68D1
:1005D000DAF80060ED03554601D51E4300E09E4366
:1005E0002E604D68DBF80060AD035D4601D51E430B
:1005F00000E09E432E604D68DEF80060ED02754617
:1006000001D51E4300E09E432E604D68AD020E4DA5
:100610002E6801D51E4300E09E432E60641C102C02
:10062000FFF444AFBDE8F88F000401400000111052
:10063000001002400000014000080140000C014091
:1006400000100140001401400C0401408068084083
:1006500000D0012070470AB1016170470904FBE72F
:100660000148806870470000B00800200248816897
:100670000278114481607047B0080020074810B527
:10068000016841F010010160032000F09DF8002096
:1006900000F006F800F024F8002010BD0020024011
:1006A00070B50D4D04464FF47A712878B1FBF0F027
:1006B0000A490968B1FBF0F000F0BCFB48B9102C06
:1006C00007D200222146501E00F05EF800206C6028
:1006D00070BD012070BD0000B0080020BC080020E3
:1006E000214808B5816941F001018161816901F00A
:1006F00001010091C16941F08051C161C06900F000
:1007000080500090072000F05FF8002211466FF043
:100710000B0000F039F8002211466FF00A0000F0DB
:1007200033F8002211466FF0090000F02DF8002286
:100730001146501F00F028F800221146101F00F04B
:1007400023F800221146901E00F01EF800221146E8
:10075000501E00F019F80548416821F0E06141F0B1
:100760000071416008BD000000100240000001401F
:1007700000F01F02012191404009800000F1E020BB
:10078000C0F8001170470000F0B40E4B1B680C4617
:10079000C3F30223C3F10705042D00D90425191D55
:1007A000072901D2002300E0DB1E012606FA05F12D
:1007B000491E214099409E40761E16403143F0BCB0
:1007C00001F049BC0CED00E0064900F007020868A2
:1007D0004FF6FF03184040EA0220034A1043086026
:1007E000704700000CED00E00000FA052DE9F0472D
:1007F000DFF83C8105460E46D8F8000000F00700FF
:10080000B0420CD2D8F8001021F007013143C8F8EB
:100810000010D8F8000000F00700B04263D128783B
:10082000444C800705D56068A96820F0F0000843B3
:1008300060602878C00745D06868012816D0216814
:10084000022816D0890700294DDA616821F00301DA
:1008500001436160FFF704FF6968074641F2883091
:1008600001290FD00229814619D027E02168890388
:10087000E9E78901E7E700BFFFF7F2FEC11B494541
:1008800001D918E081466068C0F381000128F3D1E6
:1008900018E000BFFFF7E4FEC11B49450BD86068B4
:1008A000C0F381000228F5D10CE000BFFFF7D8FEAD
:1008B000C11B494502D90320BDE8F087606810F0EC
:1008C0000C0FF3D1D8F80010404601F00701B142F7
:1008D0000BD9016821F0070131430160006800F085
:1008E0000700B04201D00120E6E72878400705D58F
:1008F0006068E96820F4E0600843606028780007D9
:1009000006D56068296920F4605040EAC100606043
:1009100000F03CF86168084AC1F30311515CC8401B
:10092000064908600020FFF7BBFE0020C4E7000076
:1009300000200240001002404C360008BC08002095
:100940000148006870470000BC08002004480549C1
:1009500000684968044AC1F30221515CC8407047ED
:10096000BC080020001002405C360008044805491D
:1009700000684968044AC1F3C221515CC84070470D
:10098000BC080020001002405C36000812A185B0AF
:100990000FC98DE80F0014A0144A00680490516834
:1009A000134801F00C03042B10D0082B0ED1C1F317
:1009B0008343C9031DF803000AD5516804AAC1F393
:1009C0004041515C0A4A5043B0FBF1F005B070471A
:1009D00008494843FAE7000002030405060708092E
:1009E0000A0B0C0D0E0F1010010200000010024047
:1009F00000127A0000093D002DE9F84F0446007806
:100A0000B94DC00748D06868C0F38100012807D0FD
:100A10006868C0F38100022809D16868C00306D560
:100A20002868800338D5606800286FD034E060689B
:100A3000B0F5803F0BD010B1B0F5A02F11D02868D1
:100A400020F480302860286820F4802002E02868A4
:100A500040F480302860606888B1FFF701FE0646E8
:100A600009E0286840F480202860F0E7FFF7F8FDEF
:100A7000801B642875D828688003F7D50CE0FFF741
:100A8000EFFD064605E000BFFFF7EAFD801B642886
:100A9000F0D828688003F7D42078944E80074FF070
:100AA00001094FF000083BD5686810F00C0F07D023
:100AB0006868C0F38100022809D16868C00306D4C1
:100AC0002868800714D5206901281FD110E020690B
:100AD000B0B1C6F80090FFF7C3FD074605E000BFC0
:100AE000FFF7BEFDC01B0228C4D828688007F7D5D1
:100AF0002868616920F0F80040EAC10028600FE032
:100B0000C6F80080FFF7ACFD074606E0E9E000BF4D
:100B1000FFF7A6FDC01B022823D828688007F7D45A
:100B2000207800072CD57248A169D9B1C0F800908F
:100B3000FFF796FD074604E0FFF792FDC01B022871
:100B40000FD8686A8007F7D56A484FF4FA510068F1
:100B5000B0FBF1F0009000BF0098411E0091FAD266
:100B60000EE080E0C0F80080FFF77AFD074604E061
:100B7000FFF776FDC01B022875D8686A8007F7D496
:100B80002078400760D5E8690027C00008D4E869EC
:100B900040F08050E861E869012700F08050009043
:100BA00055480168C90513D40168834641F4807132
:100BB0000160FFF755FD824606E000BFFFF750FDDC
:100BC000A0EB0A0064284ED8DBF80000C005F5D57C
:100BD000E06801280AD008B1052813D0286A20F05F
:100BE00001002862286A20F0040002E0286A40F030
:100BF00001002862E06841F2883B98B1FFF730FDC0
:100C000082460BE0286A40F004002862EEE700BF4D
:100C1000FFF726FDA0EB0A0159455AD8286A80073C
:100C2000F6D50CE0FFF71CFD824605E0FFF718FD46
:100C3000A0EB0A0159454CD8286A8007F6D41FB1A9
:100C4000E86920F08050E861E06988B36968C1F321
:100C50008101022945D00228C6F8608004D0FFF740
:100C6000FFFC044638E034E0FFF7FAFC074604E0F6
:100C7000FFF7F6FCC01B02282BD828688001F7D4A8
:100C8000206AB0F5803F05D16868A16820F4003083
:100C900008436860D4E908010843696821F47411C5
:100CA00008436860C6F86090FFF7DAFC044606E087
:100CB00015E000BFFFF7D4FC001B022809D8286804
:100CC0008001F7D50BE000BFFFF7CAFC001B02282C
:100CD00002D90320BDE8F88F28688001F4D40020F1
:100CE000F8E70120F6E70000001002400000424251
:100CF00080044242BC080020007000404FF0E02118
:100D00000428086903D020F004000861704740F00F
:100D10000400FAE72DE9F041424C216B61636078F1
:100D200000287CD06088401C6080608800250628F0
:100D300042D1207801283ED13B480068081A6064FF
:100D4000394800F08CFDA064A06C002802DCA06C87
:100D50004042A064A06CB0F5BC7F02DB40F277108B
:100D6000A064A16C314801F029FB4FF08046706A05
:100D700000B22064206C002802DC206C4042206419
:100D8000216C2A4800F046FDE064E06BE16C084409
:100D9000E063E16B4FF47A70814200DAE063E16B6B
:100DA00042F21070814200DDE06301F01DF9E06B5A
:100DB00001F008FB75626580DFF87480E06A6FF00F
:100DC00004074FF40056A0B9A06B401CA063606CF0
:100DD000052824DC606CB84221DBA06A401CA062BC
:100DE00032281CD30120E062002231464046FFF742
:100DF00032FCE06A012812D1606C052802DC606CCC
:100E0000B8420CDAA06A401EA06208D1E562A56370
:100E100031464046BDE8F0410122FFF71CBCBDE869
:100E2000F081000058080020C4080020E0080020DD
:100E30000010014010B5401EB0F1807F01D30120A9
:100E400010BD4FF0E02460610F21601701F003F93D
:100E50000020A06107202061002010BD10B5FFF721
:100E600059FF10BD7047704710B590F83C20012A1B
:100E700025D0012280F83C20CA688C6822F4407298
:100E800022434C6822F4806222430C6822F4006200
:100E900022430C6922F4805222434C6922F400520E
:100EA00022438C6922F48042224322F400410268EA
:100EB00000232143516480F83C30002010BD022003
:100EC00010BD30B590F83C20012A20D0012280F8D6
:100ED0003C20022380F83D3003685C6824F07004F5
:100EE0005C6003685C680D682C435C6003689C6808
:100EF00024F080049C6003689C6849680C439C60F3
:100F000080F83D20002180F83C10084630BD0220CA
:100F100030BD10B5040003D094F83D0010B107E0D7
:100F2000012010BD002084F83C00204600F00CF8A1
:100F3000022084F83D00211D206801F0ADFA012057
:100F400084F83D00002010BD08B5114A0168114821
:100F5000914208D1816941F400618161806900F4A6
:100F60000060009008BD0C4A9142FBD1C16941F07C
:100F70000201C161C069012200F00200009000215D
:100F80001D20FFF701FCBDE808401D20FFF7F0BB66
:100F9000002C01400010024000040040022180F8B3
:100FA0003D1001680A6842F001020A60012180F8E0
:100FB0003D10002070470168CA6842F00102CA6013
:100FC0000068016841F0010101600020704770B5C0
:100FD000044690F83C00012817D0012584F83C50C5
:100FE000022084F83D002068826822F0770222F413
:100FF0007F4282600868502837D00DDC202859D005
:1010000005DC88B3102841D151E0022070BD3028A2
:1010100053D040283AD13FE060282ED070280BD022
:10102000B0F5805F03D0B0F5005F2FD110E02068ED
:10103000816821F0070115E0CB68D1E90121206822
:1010400001F06BFA2168886840F0770088601DE045
:10105000CB68D1E90121206801F05FFA206881683E
:1010600041F48041816011E01EE0CA68496820684F
:1010700001F008FB5021206806E0CA684968206832
:1010800001F011FB6021206801F051FA84F83D5015
:10109000002084F83C0070BDCA684968206801F0EF
:1010A000F1FA40212068EFE700212068ECE71021E9
:1010B0002068E9E720212068E6E730212068E3E79F
:1010C0002DE9F0410D46040003D094F83D0018B11D
:1010D00008E00120BDE8F081002084F83C002046B3
:1010E00000F03AF8022084F83D002068816821F081
:1010F00007018160211D206801F0CEF92268906807
:101100009169166A2B68AF69034340F2033081434B
:1011100041EA0721A868EF6908434FF6FC4188437C
:10112000E96840EA0720014328692F6A000140EA84
:101130000730084369686D6926F0AA0646EA051576
:10114000294393602268906120680162012084F83D
:101150003D000020BEE7000010B5006886B0B0F189
:10116000804F23D11248C16941F00101C161C069BA
:10117000002400F0010004904FF40040CDE9000489
:1011800069460C480294FFF783F90820CDE9000472
:10119000694609480294FFF77BF90848416821F441
:1011A000407141F0E06141F48071416006B010BDD2
:1011B0000010024000080140000C01400000014006
:1011C00010B50446006891B1042904D00122002121
:1011D00001F098F9206801225FF0040101F092F912
:1011E0002068016841F001010160002010BD01226A
:1011F0000021F3E7704770B50446006801694FF0BD
:101200000005C943890715D4C168C943890711D4AA
:10121000E91E01610120207720688069800720464F
:1012200002D0FFF7E7FF04E000F0ACF8204600F042
:101230002EF9257720680169C943490717D4C16889
:10124000C943490713D46FF00401016102202077DC
:101250002068806910F4407F204602D0FFF7CAFF63
:1012600004E000F08FF8204600F011F9257720689F
:101270000169C943090716D4C168C943090712D4D3
:101280006FF008010161042020772068C0698007A1
:10129000204602D0FFF7AEFF04E000F073F82046CE
:1012A00000F0F5F8257720680169C943C90617D40D
:1012B000C168C943C90613D46FF010010161082049
:1012C00020772068C06910F4407F204602D0FFF7E5
:1012D00091FF04E000F056F8204600F0D8F825779A
:1012E00020680169C943C90708D1C168C943C90752
:1012F00004D1891E0161204600F00CF920680169C3
:10130000C943090609D4C168C943090605D46FF069
:10131000800101612046FFF7A5FD20680169C943EE
:10132000490609D4C168C943490605D46FF0400194
:101330000161204600F016F920680169C943890659
:101340000BD4C168C943890607D46FF0200101613D
:101350002046BDE87040FFF786BD70BD1FB5006830
:101360000649884208D18015009002200190039020
:1013700069460348FFF78CF81FBD0000002C0140B0
:1013800000080140704770B5044690F83C000D46D7
:1013900001280DD0012684F83C60022084F83D002D
:1013A00042B1042A18D0082A2AD00C2A4DD139E09B
:1013B000022070BD206801F0C3F82068816941F007
:1013C000080181612068816921F004018161206840
:1013D00081692A69114311E0206801F0D9F8206879
:1013E000816941F4006181612068816921F4806133
:1013F0008161206881692A6941EA0221816124E0D2
:10140000206801F0F1F82068C16941F00801C1616C
:101410002068C16921F00401C1612068C1692A699D
:10142000114311E0206801F00BF92068C16941F413
:101430000061C1612068C16921F48061C1612068D7
:10144000C1692A6941EA0221C16184F83D60002036
:1014500084F83C0070BD10B5040003D094F83D0042
:1014600010B107E0012010BD002084F83C002046A8
:1014700000F00CF8022084F83D00211D206801F0E6
:101480000BF8012084F83D00002010BD7047704724
:1014900010B504460068012201F034F807492068BD
:1014A000884203D1416C41F40041416420680168E5
:1014B00041F001010160002010BD0000002C01403E
:1014C00010B504460068002201F01CF8104B41F2F0
:1014D000111120688A10984209D1036A0B4206D183
:1014E000036A134203D1436C23F40043436420682E
:1014F000036A0B4206D1016A114203D1016821F04F
:1015000001010160012084F83D00002010BD0000B1
:10151000002C0140114988421ED111484168491CE4
:1015200041604168642917D1026901210A2A00D16A
:10153000016202690B2A00D1416202690C2A00D1C2
:10154000416102690D2A00D1816102690E2A00D130
:10155000C161816000214160704700009009002056
:1015600058080020704770B5040004D094F8390082
:10157000002510B106E0012070BD84F838502046E7
:1015800000F022F8242084F839002068C16821F492
:101590000051C160204601F099F82068016921F4EA
:1015A000904101612068416921F02A014161206870
:1015B000C16841F40051C160E563202084F839001E
:1015C00084F83A00002070BD10B50068114986B05B
:1015D00088421DD11048816941F480418161806950
:1015E0000E4C00F4804004904FF4007000900220F4
:1015F00001900320039069462046FEF749FF002131
:101600002015CDE90001029169462046FEF740FF12
:1016100006B010BD00380140001002400008014033
:101620002DE9F843044690F839001F4616460D464A
:10163000202850D1A5B19EB194F8380001284AD095
:10164000012084F838004FF00008C4F83C802120C5
:1016500084F83900FFF704F8A6848146E68426E082
:101660000120BDE8F883E08C401EE084A0684B4672
:10167000B0F5805F4FF000024FF0800120460097E8
:1016800003D001F0DBF8E8B90DE001F0D7F8C8B9F4
:1016900028882168C0F308004860206908B16D1CE3
:1016A00005E0AD1C03E0216815F8010B4860E08CF3
:1016B0000028D8D14B46002240212046009701F057
:1016C000BDF808B10320CCE7202084F8390084F865
:1016D00038800020C5E70220C3E700002DE9F0476D
:1016E000284F00254FF4007421463846FEF7AEFF20
:1016F0000028F9D1012001F0FDF94FF48078002293
:1017000041463846FEF7A7FF21463846FEF79EFFC2
:101710000028F9D1A1463C4600264746642001F046
:10172000E9F9012239462046FEF795FF6D000120B8
:1017300001F0E0F9002239462046FEF78CFF4946C9
:101740002046FEF783FF00B16D1C012001F0D2F9A5
:10175000761CF6B2182EE1D3012239462046FEF758
:101760007AFF85F40005012001F0C4F90022394612
:101770002046FEF770FF012001F0BCF92846BDE8C5
:10178000F0870000000C0140FEE7000070B5012268
:101790000B4D940221462846FEF75DFF0122D6023A
:1017A00031462846FEF757FF002231462846FEF70D
:1017B00052FF21462846BDE870400022FEF74BBF8D
:1017C000000C014070B5094C012291022046FEF741
:1017D00042FFE514002229462046FEF73CFF294639
:1017E0002046BDE870400122FEF735BF000C0140E5
:1017F00070B50122064D940221462846FEF72BFFC4
:1018000021462846BDE870400022FEF724BF0000B4
:10181000000C01402DE9F04104460068451A616959
:10182000E068FEF7D7FC21690746A068FEF7D2FC06
:1018300006462846FEF73EFD05466168FEF7CAFCEF
:101840003146FEF7C1FC3946FEF76CFCFEF73BFD66
:1018500001462069606125610846BDE8F0812DE9F7
:10186000F04104460068401AFEF724FD0746A169CE
:10187000FEF758FCA0616169E068FEF7ABFCA16966
:101880000646A068FEF7A6FC054638466168FEF7E6
:10189000A1FC2946FEF798FC3146FEF743FCBDE863
:1018A000F041FEF710BD000010B5034800F008F845
:1018B0000249088010BD0000000801404C080020CB
:1018C0002DE9F047794D286840F00800286001268E
:1018D0002F1F3E60DFF8D491A9F114094846FEF7A6
:1018E0009DFD734C10F0F000A0602AD0032000F0A2
:1018F000EDF8A06828B34846FEF790FD00F0F00030
:10190000A060102806D0202806D0402806D08028C5
:1019100013D106E0A68006E0022000E00320A080AC
:1019200001E00C20FBE74846FEF778FD00F0F000F0
:10193000A060A1885FA001F013F8A0680028F2D190
:101940006680286840F001002860386840F0020096
:1019500038604846FEF762FD10F0F000A0602AD023
:10196000032000F0B3F8A06828B34846FEF756FD00
:1019700000F0F000A060102806D0202806D04028F3
:1019800007D0802813D106E0042000E00520A080C5
:1019900003E00620FBE70D20F9E74846FEF73EFD91
:1019A00000F0F000A060A18842A000F0D9FFA0687C
:1019B0000028F2D16680286840F00200286039686B
:1019C000B84641F0040139604F464846FEF726FD0F
:1019D00010F0F000A0602AD0032000F077F8A06893
:1019E00028B33846FEF71AFD00F0F000A06010287A
:1019F00006D0202806D0402807D0802813D106E042
:101A0000072000E00820A08003E00920FBE70E206B
:101A1000F9E73846FEF702FD00F0F000A060A1886B
:101A200024A000F09DFFA0680028F2D166802868FD
:101A300040F004002860D8F8001041F00801C8F810
:101A400000103846FEF7EAFC10F0F000A0602AD043
:101A5000032000F03BF8A06828B33846FEF7DEFC10
:101A600000F0F000A060102806D0202806D0402802
:101A700007D0802813D106E00A2000E00020A080D3
:101A800003E00B20FBE70F20F9E73846FEF7C6FC22
:101A900000F0F000A060A18806A000F061FFA0683F
:101AA0000028F2D16680A088BDE8F08714080140C4
:101AB0004C08002009090909090909090909D6B5CD
:101AC000CEAA2020256420200D0A000001B5009830
:101AD000411E0091FBD208BD2DE9F05FDFF810A197
:101AE000DAF80000DFF80C810026012873D100F03D
:101AF00075FADFF804B18BF8006040A000F030FF09
:101B0000D8F800104046464D464C474F002944DB6C
:101B10000168092941DC798801293ED17E8001686C
:101B20002A6844F822102968491C29602A6801683B
:101B30003EA000F015FF2868042811D12068E16854
:101B400000EB4002C2EBC01001EBC00160686422F0
:101B50005043A26802EB820200EB4200084420617D
:101B6000286803280AD1206864214843616801EB92
:101B7000810100EB4100A168084420612868022827
:101B800006D1D4E9001001EB810100EB4100206196
:101B90002868012801D120682061DFF8C890D9F8B1
:101BA0000000012817D17888012814D17E802E608A
:101BB0002D48216900F002FC2CA0216900F0D0FE24
:101BC000394801240460C9F80060CAF8006000F0D8
:101BD0003BFA8BF80040354C2068012805D1344889
:101BE000FFF762FEC8F800002660BDE8F09F000025
:101BF0006C0800206808002058080020090909091D
:101C0000090909090909090909BFAACABCC4E2B539
:101C1000C4CAE4C8EB09090909090D0A0D0A000044
:101C2000A8080020FC0800204C0800200AB8D5B8FD
:101C3000D5CAE4C8EBC1CBD2BBB8F6B0B4BCFCA3E8
:101C4000BA202020202020202020202564202020B1
:101C50002069B5C4D6B5CAC720202564202020201D
:101C60000D0A000070080020C4080020C9E8B6A8CA
:101C7000C1CBB5C4C4BFB1EAD6B5CAC720A1ADA116
:101C8000ADA1ADA1ADA1ADA1ADA1ADA1ADA1ADA1E4
:101C9000ADA1ADA1ADA1ADA1AD202020202564094D
:101CA000200D0A0D0A000000AC080020600800208A
:101CB000000801402DE9F0433F4885B0816941F0BB
:101CC00010018161816901F010010491816941F085
:101CD00020018161816901F020010491816941F055
:101CE00004018161816901F004010491816941F07D
:101CF000080181618069314F00F008004FF4005401
:101D00000490002221463846FEF7A5FCDFF8B0809B
:101D100000220F214046FEF79EFCDFF8A89000222B
:101D200043F201114846FEF796FC01224FF4406150
:101D30004846FEF790FC012500268DE8700002243D
:101D4000694638460394FEF7A3FB0F200090CDE9C7
:101D50000154694640460394FEF79AFBF020CDE912
:101D60000006694602944046FEF792FB0095CDE9D5
:101D70000154694648460394FEF78AFB4FF45060CD
:101D800003948DE8610069464846FEF781FB4FF4F5
:101D90004050CDE90005CDE9025469464846FEF7BA
:101DA00077FB2002CDE90006694648460296FEF719
:101DB0006FFB05B0BDE8F083001002400010014049
:101DC00000080140000C014010B52F4894B02D4987
:101DD000016001210024C0E9011442F21071C0E940
:101DE000031444618461FFF794F818B1462127A0D9
:101DF00000F0B4FD4FF480500E900EA92248FFF77A
:101E0000E6F818B14C2121A000F0A8FD1E48FFF70C
:101E100022FB18B151211DA000F0A0FD129412A9BF
:101E200019481394FFF74DF818B1582117A000F086
:101E300095FD6020CDE90004029403940494059478
:101E40000022694610480694FFF79DFA18B16421F4
:101E50000EA000F083FD0794089409944FF40050FD
:101E60000A94CDE90B4007A907480D94FEF7FCFF43
:101E700018B1702105A000F071FD0348FFF76EFA5C
:101E800014B010BD002C0140100900202E2E2F533D
:101E900072632F74696D2E630000000010B518483E
:101EA0008CB04FF080410024C0E900144FF6FF7160
:101EB000C0E90241046184610320CDE900040120EE
:101EC000CDE9020406210491CDE90540CDE90741A1
:101ED00069460B48FFF7F4F818B18D2109A000F00E
:101EE0003DFD099409A906480A94FEF7EAFF002877
:101EF00003D0942103A000F031FD0CB010BD000010
:101F0000500900202E2E2F5372632F74696D2E639B
:101F10000000000010B5184886B01649016047213E
:101F20000024C0E901144FF47A71C0E903148461FC
:101F3000FEF7EFFF18B1A62110A000F00FFD4FF43F
:101F40008050009069460C48FFF741F818B1AC2169
:101F50000AA000F003FD049404A907480594FEF7C5
:101F6000B0FF002803D0B32104A000F0F7FC06B0B6
:101F700010BD000000040040900900202E2E2F53B9
:101F800072632F74696D2E63000000000D4810B558
:101F90000B4901604FF4E1314160002181600C2266
:101FA000C160C0E904128161C161FFF7DCFA002859
:101FB00005D0BDE81040422103A000F0CFBC10BD09
:101FC00000380140D00900202E2E2F5372632F7548
:101FD000736172742E630000FEE700000021014867
:101FE000FFF76EBA100900202DE9F041134D144E91
:101FF000144C286931684FF480574FF400588842D8
:1020000009DC002239462046FEF725FB0122414625
:102010002046FEF720FB2869316888420BDD01224B
:1020200039462046FEF717FB41462046BDE8F04101
:102030000022FEF710BBBDE8F0810000FC08002084
:102040008C080020000C014000210148FFF720BA55
:102050001009002070470907090E002806DA00F071
:102060000F0000F1E02080F8141D704700F1E0201F
:1020700080F80014704770B50024002104F1B0000E
:1020800000F08EF90021084600F08AF900211020A6
:1020900000F086F900250121002000F081F96D1C77
:1020A000EDB2802DF7D3641CE4B2082CE5D370BDEB
:1020B00010B50021AE2000F073F90021084600F0B1
:1020C0006FF90021102000F06BF90021402000F092
:1020D00067F90021B02000F063F90021812000F0B1
:1020E0005FF90021FF2000F05BF90021A12000F042
:1020F00057F90021A62000F053F90021A82000F094
:102100004FF900213F2000F04BF90021C82000F0DA
:1021100047F90021D32000F043F90021084600F0E0
:102120003FF90021D52000F03BF90021802000F08C
:1021300037F90021D82000F033F90021052000F004
:102140002FF90021D92000F02BF90021F12000F017
:1021500027F90021DA2000F023F90021122000F0F5
:102160001FF90021DB2000F01BF90021302000F0D6
:1021700017F900218D2000F013F90021142000F040
:102180000FF90021BDE81040AF2000F009B910B5EB
:102190000A460446002102F1B00000F001F91020C7
:1021A00040EA1410002100F0FBF804F00F00BDE835
:1021B0001040002100F0F4B838B518481024052369
:1021C000026902214B20009400F09AF8144802683A
:1021D000002A00DA0022052304214B20009400F09D
:1021E0008FF810480168642291FBF2F2012A00DAAC
:1021F000002200680A2190FBF1F5012D00DA00258C
:10220000022306213E20009400F07AF801232A469A
:1022100006215620009400F073F838BDFC08002019
:1022200088080020900800202DE9F04115460E4650
:102230000746FFF7ACFF0F48002400EB851501218E
:10224000285D00F0ADF8641CE4B2102CF7D3761CC6
:10225000F1B23846FFF79BFF00242819012190F8BE
:10226000200000F09DF8641CE4B2102CF5D3BDE80A
:10227000F0810000000000202DE9F041203A002408
:102280000D468046D6B27F2803D900208D1C80469B
:10229000EDB2102B294610D0FFF779FF164906EB57
:1022A000460001EB40050121285D00F079F8641C2F
:1022B000E4B2062CF7D3BDE8F081FFF768FF0F4FBB
:1022C00004EB06100121385C00F06AF8641CE4B2EB
:1022D000082CF5D36D1CE9B24046FFF758FF0024E7
:1022E00004EB061038440121007A00F059F8641C10
:1022F000E4B2082CF4D3DEE7342E00085C3000088A
:102300002DE9F05F0026DDF828901D4692468B46A9
:10231000804634464FEA590723E0281B401EC1B2CD
:102320000A2000F07FFDBAFBF0F00A21B0FBF1F2C9
:1023300001FB120026B9691E8C4201DA38B1012670
:102340003030C2B207FB0480C0B24B4604E007FB4A
:102350000480C0B24B4620225946FFF78DFF641C13
:10236000E4B2AC42D9D3BDE8F09F2DE9F0419846E4
:1023700017460E46044600250DE0434631462046EA
:10238000FFF77AFF0834E4B2782C02D90024B61C97
:10239000F6B26D1CEDB27A5D002AEED1BDE8F08197
:1023A000C0B209B100F0C3BA00F0AABA41608260BD
:1023B000C360002101614161816170470160704724
:1023C000704770470149086070470000342C014095
:1023D00010B5FEF74BF9BDE81040FEF73FBD30B534
:1023E0008FB001210804CDE90010002402940225D9
:1023F0000491CDE907504FF4E01009906846FEF7CC
:10240000FBFA00B1FEE70F20CDE90A054FF480602A
:10241000CDE90C4002210AA80E94FEF7E7F900B1BD
:10242000FEE7FEF78DFA6421B0FBF1F0FEF702FD46
:102430000420FEF763FC00221146501EFEF7A4F9AB
:102440000FB030BD0D48016841F0010101604168E5
:102450000B4A1140416001680A4A1140016001685D
:1024600021F480210160416821F4FE0141604FF4B4
:102470001F0181600449C0030860704700100240DA
:102480000000FFF8FFFFF6FE08ED00E00148FEF750
:10249000B2BE000090090020F0B50268164B174C40
:1024A000174D4FF08047984205D0B84203D0A04264
:1024B00001D0A84203D122F070064A683243984204
:1024C00005D0B84203D0A04201D0A84203D122F4E3
:1024D0004074CA68224322F080044A6922430260A1
:1024E0008A68C2620A688262984201D109690163FE
:1024F00001214161F0BD0000002C014000040040BA
:102500000008004010B50123046A8B409C4304621C
:10251000036A8A401343036210BD10B5846842EA1F
:10252000032224F47F440A432243826010BD826860
:1025300022F070020A4342F00701816070470000F8
:1025400030B5026A22F001020262026A43688469BD
:1025500024F073050C682C4322F002058A682A4394
:102560000A4DA8420BD122F00805CA6823F4407333
:102570002A434D6922F004021D438B692B434360BB
:10258000846149684163026230BD0000002C014053
:1025900030B5026A22F010020262026A436884695E
:1025A0000D6824F4E64444EA05248D6822F02002F4
:1025B00042EA05120B4DA8420ED1CD6822F08002EE
:1025C00042EA05124D6923F4406343EA85038D69AD
:1025D00022F0400243EA85034360846149688163D5
:1025E000026230BD002C014030B5026A22F48072D4
:1025F0000262036A4268C46923F4007324F073051D
:102600000C682C438D6843EA05230C4DA8420ED17B
:10261000CD6823F4006343EA05234D6922F4405258
:1026200042EA05128D6923F4806342EA0512426092
:10263000C4614968C163036230BD0000002C0140E1
:1026400030B5026A22F480520262046A4268C369A9
:102650000D6823F4E64343EA05238D6824F400540F
:1026600044EA0534064DA84204D14D6922F4804263
:1026700042EA85124260C36149680164046230BD68
:10268000002C014010B5036A046A24F001040462BE
:10269000846924F0F00444EA021423F00A020A4395
:1026A0008461026210BD10B5036A23F01003036257
:1026B0008369046A23F4704343EA023224F0A003DE
:1026C00043EA01118261016210BD00002DE9F04171
:1026D000044600680169E26821F440511143016138
:1026E0002169A0680843616908432168CA6841F20A
:1026F0000C639A430243CA6020684169A26921F4CD
:102700004071114341614C4920686425322688425A
:102710003CD1FEF72BF900EBC00101EB0010616822
:102720008900B0FBF1F7FEF721F900EBC00101EBE6
:1027300000106168B0468900B0FBF1F0B0FBF5F025
:102740006FF01801484307EB800106EB0110B0FB66
:10275000F5F000F0F006FEF709F900EBC00101EB1F
:10276000001061688900B0FBF1F0B0FBF5F006EBFA
:102770000016FEF7FBF800EBC00101EB00106168EA
:102780008900B0FBF1F7FEF7F1F83BE0FEF7DEF869
:1027900000EBC00101EB001061688900B0FBF1F7AC
:1027A000FEF7D4F800EBC00101EB00106168B04601
:1027B0008900B0FBF1F0B0FBF5F06FF01801484371
:1027C00007EB800106EB0110B0FBF5F000F0F0061E
:1027D000FEF7BCF800EBC00101EB00106168890056
:1027E000B0FBF1F0B0FBF5F006EB0016FEF7AEF82B
:1027F00000EBC00101EB001061688900B0FBF1F74C
:10280000FEF7A4F800EBC00101EB0010616889003D
:10281000B0FBF1F0B0FBF5F06FF01801484307EBA7
:10282000800108EB0110B0FBF5F0216800F00F000B
:1028300030448860BDE8F081003801402DE9F04166
:10284000984617460E460446069D1DE0681C1BD0A0
:102850002DB1FDF705FFA0EB0800A84214D92068B0
:10286000C16821F4D071C1602068416921F0010183
:102870004161202084F8390084F83A00002084F86F
:1028800038000320BDE8F0812068006836EA0000C7
:1028900004D00020B842D9D00020F3E70120F9E7A6
:1028A000FEE700002DE9F041144F04464FF4806626
:1028B000002231463846FDF7CEFE00254FF4006871
:1028C00004F08000802816D0002241463846FDF7EB
:1028D000C2FE6006040E012231463846FDF7BBFEFB
:1028E000002231463846FDF7B6FE6D1CEDB2082DCC
:1028F000E6D3BDE8F0810122E7E70000000C0140CB
:1029000010B50446FEF742FF7820FFF7CBFFFEF735
:102910006FFF0020FFF7C6FFFEF76AFF2046FFF7B4
:10292000C1FFFEF765FFBDE81040FEF74BBF10B5D5
:102930000446FEF72BFF7820FFF7B4FFFEF758FFA1
:102940004020FFF7AFFFFEF753FF2046FFF7AAFF37
:10295000FEF74EFFBDE81040FEF734BFFEE7000073
:102960000FB4054B10B503A9044A029800F018F8FB
:1029700010BC5DF814FB0000012B0008C00800200B
:1029800002E008C8121F08C1002AFAD17047704738
:10299000002001E001C1121F002AFBD17047000096
:1029A0002DE9FF4F89B09B460446002506E0252807
:1029B0000BD05A460B999047641C6D1C2078002858
:1029C000F5D10DB02846BDE8F08F0027B8460122AA
:1029D000474900E0074314F8013F203B02FA03F0A7
:1029E0000842F7D120782E2819D114F8010F47F0AA
:1029F00004072A280ED06FF02F022078A0F13001B2
:102A000009290CD808EB880102EB410100EB010811
:102A1000641CF2E70A98641C50F8048B0A90207832
:102A20000028CED0642808D0692806D075281ED08A
:102A30005A460B9990476D1C58E00A994FF00A09C5
:102A400001C90A91002802DA40422D2102E039052D
:102A500004D52B218DF82010012103E0F90704D0C3
:102A60002021F7E78A4608AE0DE00021FAE70A992F
:102A70004FF00A0901C90A91F7E74946FDF73CFC06
:102A8000303106F8011D0028F7D1ADEB060000F14A
:102A90002009780701D44FF00108C84502DDA8EBF2
:102AA000090000E000208046002706E008A85A46FA
:102AB000C05D0B9990476D1C7F1C5745F6DB04E009
:102AC00030205A460B9990476D1CB8F10001A8F1CF
:102AD0000108F5DC05E016F8010B5A460B99904702
:102AE0006D1CB9F10001A9F10109F4DC641C65E772
:102AF0000928010001E0401EC0B20028FBD1704748
:102B000013B54FF6FF73012269460248FEF788FDB0
:102B100000981CBDD00900201CB5FDF7AFFDFFF7E4
:102B20005EFCFFF7C7F8FFF74FF9FFF7B7F9FFF7BC
:102B30002DFAFFF7EFF99348FEF730FA9248FEF7C7
:102B40002DFA9248FEF737FAFFF77EFA18218E48E1
:102B5000FEF736FB00234FF080471A4639468C4873
:102B6000FFF724FC00231A468A498B48FFF71EFC16
:102B7000FFF79EFAFFF77FFA88A0FFF7F1FE072222
:102B800000210620FFF750FB082200211820FFF744
:102B90004BFB092200212A20FFF746FB0A220021D5
:102BA0003C20FFF741FB0B2200214E20FFF73CFBAE
:102BB0000C2200216020FFF737FB0D22002170203E
:102BC000FFF732FB0E2202210620FFF72DFB0F221A
:102BD00002211620FFF728FB102202212620FFF7F2
:102BE00023FB112202213620FFF71EFB13220221B4
:102BF0004620FFF719FB10236DA202217820FFF772
:102C0000B4FB142204210620FFF70EFB1522042139
:102C10001620FFF709FB162204212620FFF704FBEC
:102C2000172204213620FFF7FFFA13220421462041
:102C3000FFF7FAFA10235EA204217820FFF795FB34
:102C400006211B220846FFF7EFFA1C220621162058
:102C5000FFF7EAFA132206212620FFF7E5FA1023F0
:102C600054A206214E20FFF780FB102352A206211A
:102C70006420FFF77AFB4FF40059012249464F4880
:102C8000FDF7E9FCFDF7E8FB0025DFF834814D4C4A
:102C90004FF4805A0126A068012847D14A48FEF720
:102CA00003FE2061206A012847D020690C2810D13A
:102CB000E06870B942F20F70FFF784FB00225146C2
:102CC0004046FDF7C8FC012249464046FDF7C3FCDB
:102CD000A56020690D2810D1E06870B941F27070CC
:102CE000FFF770FB012251464046FDF7B4FC00227D
:102CF00049464046FDF7AFFCA56020690E280CD17F
:102D0000E06850B9002251464046FDF7A4FC00227D
:102D100049464046FDF79FFCA56020690F2800D179
:102D2000E660E068012801D1FEF7D6FEFDF79CFBC6
:102D300040422063FFF740FAADE724A0FFF710FE02
:102D400066707D62A563124DFDF78EFB40422063E5
:102D5000FEF7C2FEFFF730FAA06C00902868626BA5
:102D60002968831A22A0FFF7FBFDE16BE06CCDE937
:102D70000001A06C216C226C431AA16C2848FFF75B
:102D8000EFFDE1E710090020500900209009002024
:102D9000C408002000004843E0080020494E495480
:102DA0005F5F50415353A1ADA1AD20200D0A00003B
:102DB000670000002E0000007300000000100140BA
:102DC000000C0140580800200008014009090909C9
:102DD00009090909090909090909BFAABBFA090969
:102DE00009090909090909090909090D0A00000069
:102DF0000AC4BFB1EAA3BA0925642020D1B9C1A68B
:102E0000A3BA2564092020B2EED6B5256409706105
:102E1000726131BCC6CBE3202564200D0A0000009E
:102E2000643600080246012000E05043491EC9B242
:102E3000FBD270470000000000000000002F0000DF
:102E400000000700070000147F147F1400242A7F6D
:102E50002A120062640813230036495522500000EC
:102E60000503000000001C224100000041221C005C
:102E70000014083E08140008083E0808000000A0DE
:102E800060000008080808080000606000000020DA
:102E900010080402003E5149453E0000427F4000B8
:102EA000004261514946002141454B31001814123E
:102EB0007F10002745454539003C4A49493000010B
:102EC0007109050300364949493600064949291E5A
:102ED00000003636000000005636000000081422BC
:102EE00041000014141414140000412214080002BC
:102EF0000151090600324959513E007C1211127CE1
:102F0000007F49494936003E41414122007F41410D
:102F1000221C007F49494941007F09090901003EFF
:102F20004149497A007F0808087F0000417F41003D
:102F3000002040413F01007F08142241007F4040B3
:102F40004040007F020C027F007F0408107F003E9B
:102F50004141413E007F09090906003E4151215E81
:102F6000007F091929460046494949310001017F7E
:102F70000101003F4040403F001F2040201F003F14
:102F80004038403F006314081463000708700807C6
:102F900000615149454300007F41410000552A55D9
:102FA0002A55000041417F00000402010204004054
:102FB0004040404000000102040000205454547876
:102FC000007F484444380038444444200038444496
:102FD000487F00385454541800087E090102001834
:102FE000A4A4A47C007F080404780000447D400071
:102FF000004080847D00007F102844000000417F55
:103000004000007C04180478007C08040478003830
:103010004444443800FC242424180018242418FCB8
:10302000007C0804040800485454542000043F4421
:103030004020003C4040207C001C2040201C003CE4
:103040004030403C004428102844001CA0A0A07C34
:10305000004464544C44141414141414000000006C
:10306000000000000000000000000000000000F868
:1030700000000000000000333000000000100C06CB
:10308000100C0600000000000000000040C0784066
:10309000C0784000043F04043F040400007088FC32
:1030A00008300000001820FF211E0000F008F0008A
:1030B000E018000000211C031E211E0000F00888FB
:1030C000700000001E2123241927211010160E0065
:1030D000000000000000000000000000000000E010
:1030E0001804020000000007182040000002041825
:1030F000E00000000040201807000000404080F081
:10310000804040000202010F01020200000000F0B6
:10311000000000000101011F01010100000000008A
:103120000000000080B070000000000000000000FF
:103130000000000000010101010101010000000088
:10314000000000000030300000000000000000001F
:1031500080601804006018060100000000E01008FC
:103160000810E000000F102020100F00001010F8D1
:10317000000000000020203F202000000070080810
:103180000888700000302824222130000030088890
:10319000884830000018202020110E000000C020B8
:1031A00010F8000000070424243F240000F80888D9
:1031B000880808000019212020110E0000E0108866
:1031C00088180000000F112020110E000038080898
:1031D000C83808000000003F0000000000708808A8
:1031E00008887000001C222121221C0000E0100829
:1031F0000810E0000000312222110F00000000C082
:10320000C00000000000003030000000000000801E
:10321000000000000000806000000000000080400E
:103220002010080000010204081020004040404027
:10323000404040000404040404040400000810207A
:1032400040800000002010080402010000704808BF
:103250000808F0000000003036010000C030C82827
:10326000E810E0000718272423140B000000C038E2
:10327000E0000000203C23020227382008F888885C
:1032800088700000203F202020110E00C030080868
:1032900008083800071820202010080008F808083F
:1032A0000810E000203F202020100F0008F8888838
:1032B000E8081000203F20202320180008F8888804
:1032C000E8081000203F200003000000C03008087C
:1032D0000838000007182020221E020008F8080005
:1032E0000008F808203F210101213F20000808F8CC
:1032F000080800000020203F2020000000000808EF
:10330000F8080800C08080807F00000008F888C0AE
:1033100028180800203F20012638200008F808005F
:1033200000000000203F20202020300008F8F80096
:10333000F8F80800203F003F003F200008F830C0A8
:103340000008F808203F200007183F00E010080898
:103350000810E0000F10202020100F0008F80808C7
:103360000808F000203F210101010000E0100808DA
:103370000810E0000F18242438504F0008F88888FF
:1033800088887000203F2000030C302000708808DF
:10339000080838000038202121221C00180808F8ED
:1033A000080818000000203F2000000008F808006E
:1033B0000008F808001F202020201F00087888003F
:1033C00000C83808000007380E010000F80800F8AF
:1033D0000008F800033C0700073C03000818688059
:1033E0008068180820302C03032C30200838C800CF
:1033F000C83808000000203F20000000100808081E
:10340000C83808002038262120201800000000FEBF
:10341000020202000000007F40404000000C30C06B
:1034200000000000000000010638C0000002020297
:10343000FE000000004040407F0000000000040249
:103440000202040000000000000000000000000074
:103450000000000080808080808080800002020464
:10346000000000000000000000000000000080805C
:10347000808000000019242222223F2008F80080CA
:1034800080000000003F112020110E00000000808D
:1034900080800000000E112020201100000000801C
:1034A0008088F800000E112020103F20000080804E
:1034B00080800000001F222222221300008080F062
:1034C000888888180020203F20200000000080808D
:1034D00080808000006B94949493600008F80080D2
:1034E00080800000203F210000203F20008098982D
:1034F000000000000020203F20200000000000808D
:103500009898000000C08080807F000008F80000CC
:1035100080808000203F24022D302000000808F821
:10352000000000000020203F2020000080808080DC
:1035300080808000203F20003F20003F808000806E
:1035400080800000203F210000203F20000080807C
:1035500080800000001F202020201F00808000802D
:103560008000000080FFA12020110E0000000080DC
:1035700080808000000E112020A0FF8080808000CD
:103580008080800020203F212000010000008080FA
:10359000808080000033242424241900008080E0EF
:1035A000808000000000001F2020000080800000BC
:1035B00000808000001F202020103F20808080009D
:1035C0000080808000010E300806010080800080AD
:1035D000008080800F300C030C300F0000808000D2
:1035E000808080000020312E0E31200080808000FD
:1035F0000080808080818E701806010000808080AD
:10360000808080000021302C22213000000000004A
:10361000807C020200000000003F404000000000EB
:10362000FF00000000000000FF0000000002027C1C
:10363000800000000040403F000000000006010143
:10364000020204040000000000000000000000006E
:103650000000000001020304060708090000000042
:10366000010203040A09090909090909090909C428
:10367000BFB1EAA3BA25642020BCC6CAFDA3BA25FF
:103680006409B2EED6B520A3BA2564092070696436
:10369000BCC6CBE3A3BA256420D5BCBFD5B1C8A3B3
:1036A000BA25640A0D0A0000C83600080000002090
:1036B000C4080000B8030008A8390008C4080020A6
:1036C0004C0500009029000810050000F0100122B0
:1036D000FF050312F00001130F040122FF05021180
:1036E0000F1E10094040405F5555557504125F0C80
:1036F000011121000C11200F094989790909090FCD
:10370000201F200800FE02424ACA4A030004114258
:1037100002FE20000E12FF40504C4340404F5050DC
:103720005C40FFA013F8880122FF050213F8C013C4
:103730001F0801227F2003109F80E2338082010452
:103740000913E2A2928A868280800200051400405A
:10375000807F19100C00002424A4FEA3220022CC98
:10376000AA05123E2407080601FF00013E000610CC
:1037700004FF0202029F14061010925430800006CB
:10378000103054921010DE04104F848545442414E8
:103790000C060C1424444584840014071010D0FF38
:1037A0009010860613027E1004000403D8140483CC
:1037B000601FCA0005103F4040787F2009E000FFED
:1037C000102002F292010210F2E0360118200440AB
:1037D0004F44010A104F20297C100890401090108F
:1037E00011168B05100118050242817F650808112A
:1037F000415E4040704E41607A10BF0914C0040D14
:103800001380402018060100204080403FC2000C79
:103810001222322AA6A262211109810140000E1053
:103820004222130B42827E02020A1223463E0010FD
:10383000102030AC63300088C8A8998E88A8C8884A
:103840005E3409672212128040300F400E1271015F
:1038500003622201051381600400FF42010912FF87
:1038600045C012203E12E248061420C02804130C62
:1038700003C304049001061880080F138060F80742
:1038800004E4A4A4BFA4A4E4040040200540407FB5
:103890004A010E127F6004011F01031B36361F1000
:1038A0000540424458610C061340405048C6FC0392
:1038B000724401051280100D0808E8292E28E80836
:1038C00008C80C0B060D12C1041DFF041D3F040E99
:1038D000140F450405BE801F4042FA040C0913FE74
:1038E000829292FE9292824204040B123F10887FD1
:1038F000001E1212125E0116045840045F44C406F2
:1039000007150404A51D4304000512081008071B31
:103910007C06FC848484FC060401127F131010F9D9
:103920000F150106C5051006F8010600F09E0E15DC
:10393000F202052D75030C06151F1111111F060645
:10394000100920222C2020E03F20010E14E07F04EB
:103950001E1004060404140001468035403F809E7A
:103960003F050E139E7F061C057F20948403061ED0
:103970000F01060D120006040D110424242526E46F
:103980003C2426252424C0100B41211189858B89D4
:1039900089F989010D12E204013DC0016E0121C2C5
:0839A0007DA6043BA24A3100A0
:04000005080000ED02
:00000001FF
