:020000040800F2
:10000000C809002045010008D51F0008591C000838
:10001000B51F00086F090008A527000800000000B0
:10002000000000000000000000000000A9210008FE
:100030007109000800000000A7210008B92100088C
:100040005F0100085F0100085F0100085F01000810
:100050005F0100085F0100085F0100085F01000800
:100060005F0100085F0100085F0100085F010008F0
:100070005F0100085F0100085F0100085F010008E0
:100080005F0100085F0100085F0100085F010008D0
:100090005F0100085F0100085F0100085F010008C0
:1000A0005F0100085F0100085F0100085F010008B0
:1000B000792200085F0100085F0100085F01000865
:1000C0005F0100085F0100085F0100085F01000890
:1000D0005F0100085F0100085F0100085F01000880
:1000E0005F0100085F0100085F0100085F01000870
:1000F0005F0100085F0100085F0100085F01000860
:100100005F0100085F0100085F0100085F0100084F
:100110005F0100085F0100085F0100085F0100083F
:100120005F0100085F0100085F0100085F0100082F
:10013000DFF80CD000F05CFB004800475D310008A0
:10014000C80900200648804706480047FEE7FEE74A
:10015000FEE7FEE7FEE7FEE7FEE7FEE7FEE7FEE777
:100160003122000831010008202A04DB203A21FA5C
:1001700002F00021704721FA02F3D040C2F12002C0
:100180009140084319467047F0B480EA0102D40F49
:100190004200B2EB410F02D20246084611464A0025
:1001A00042D0C30DDDB2C1F3C752AD1A202D35DAEE
:1001B000C1F3160141F4000204B15242C5F1200618
:1001C00002FA06F12A411044B3EBD05F23D0C4B148
:1001D000012DA0EBC35009DCF0BC4FF0004202EA55
:1001E000C352DBB200F5000000F01BB9400000F183
:1001F000807000EBC350A0F1807040EAD1704900DC
:1002000009E0490841EAC071A0EBC35000F50000C5
:10021000400800EBC350F0BC00F0FAB86142012284
:1002200002EB4101001BF6E7F0BC704781F0004192
:10023000AAE780F00040A7E780EA010210B502F0CB
:100240000043400022D04A001FD0010E01EB126192
:10025000C0F35600C2F3560240F4000042F400021C
:10026000A0FB022000047F39140400D0401C50EA97
:10027000124001D44000491EC2B20C0604EBD0105B
:10028000401C4008802A02D003E0002010BD20F06E
:100290000100002900DA0020184310BD30B480EAC4
:1002A000010202F0004530F0004221F0004013D07E
:1002B00090B1C30DD40DC2F31601C0F31600E41AB9
:1002C00041F4000140F400027D34914201D3641CEA
:1002D00000E04900002C02DA30BC002070474FF4E7
:1002E00000000023914201D3891A034340084FEADA
:1002F0004101F7D151B1914202D14FF0004105E0E7
:1003000002D24FF0010101E06FF0010103EBC45094
:10031000284430BC00F07CB8C10F80EAE07008448B
:10032000CA079623002100F07CB800F0004220F0BC
:100330000040C10DC0F3160040F400007F2901DA2F
:1003400000207047962903DCC1F19601C84001E006
:1003500096398840002AF4D04042704700F00042AD
:1003600030F000400AD0C10D01F56071C0F31600F5
:1003700042EA0151C208400711437047002001467C
:10038000704730B50B46014600202022012409E0C9
:1003900021FA02F59D4205D303FA02F5491B04FA3E
:1003A00002F52844151EA2F10102F1DC30BD2DE951
:1003B000F05F0546002092469B46884606468146E9
:1003C00040241BE02846414647462246FFF7CCFE24
:1003D00053465A46C01A914110D311461846224638
:1003E00000F018FA2D1A67EB01084F46224601204B
:1003F000002100F00FFA17EB00094E41201EA4F176
:100400000104DFDC484631462A464346BDE8F09FFA
:100410000029A8BF7047401C490008BF20F0010018
:10042000704710B4B0FA80FC00FA0CF050EA0104F6
:1004300004BF10BC704749B1CCF1200421FA04F488
:1004400011FA0CF118BF012121430843A3EB0C0161
:10045000CB1D4FEA00614FEA102042BF002010BCC4
:10046000704700EBC35010440029A4BF10BC704774
:10047000401C490008BF20F0010010BC70472DE966
:10048000FE4F804681EA0300C00F0C46009021F029
:10049000004123F00045B8EB0200A94105D24046D7
:1004A000214690461C460B46024623F0004010436E
:1004B00047D0270DC7F30A00C3F30A510290401A30
:1004C000019040286BDAC3F3130040F4801B0098BE
:1004D000924620B10023D2EB030A63EB0B0B019889
:1004E0005946C0F14002504600F094F906460D46C8
:1004F00050465946019A00F09CF910EB0800614102
:10050000002487EA115284EAE7731A4340D0009A24
:1005100062B3019A012A4FEA075215DC001B61EB16
:1005200002014FF0004202EA0752CDE90042001CEE
:1005300041F5801132462B4600F09CF903B0BDE82E
:10054000F08F40462146F9E7001B61EB0201001CD9
:1005500041F5801300185B412018A2F5001747EB06
:10056000030140EAD570B6196D4111E06D084FEAFC
:10057000360645EAC0754FEA0752001B61EB0201DF
:10058000001C41F5801149084FEA30000019514123
:1005900032462B4603B0BDE8F04F00F05CB900983E
:1005A000012240000023D0EB020263EBE0730098CD
:1005B00021464FEAE074B8EB000061EB0401E9E783
:1005C00083F000435BE781F0004158E72DE9FE4FDF
:1005D00081EA030404F0004421F0004100944FF04C
:1005E000000B23F0004350EA01045ED052EA0304FA
:1005F0005BD0C3F30A54C1F30A552C44A4F2F3347C
:100600000194A0FB0254C1F3130141F48011C3F320
:10061000130343F4801301FB024400FB034E840ADE
:10062000970A44EA815447EA8357A4FB0768029576
:100630008D0A05FB07854FEA932C04FB0C54270514
:10064000029D4FEA065847EA1637B5EB08056EEBF0
:10065000070C870E920E47EA811742EA8312A7FB26
:100660000201B6EB0B0164EB00042B0D43EA0C33E3
:100670005E1844EB1C50DA465146E7FB0201C5F315
:1006800013044FEA0B3343EA14534FEA0432019C3C
:1006900043EA0603A4F10C040294009CCDE900B4E3
:1006A00000F0E8F803B0BDE8F08F00200146F9E75C
:1006B0002DE9F04D81EA030404F0004B21F00045E0
:1006C00014464FF0000A23F0004150EA050220D002
:1006D00054EA01021DD0C5F30A570246C5F31303BD
:1006E000C1F31300C1F30A5640F4801543F480139C
:1006F000A7EB0608101BD64608F2FD3873EB050081
:1007000002D308F1010801E092185B41B8F1000F33
:1007100003DA00200146BDE8F08D00204FF480117F
:10072000064684460EE0171B73EB050705D3121B24
:1007300063EB050306434CEA010C49084FEA30001D
:1007400092185B4150EA0107EDD152EA030012D042
:1007500082EA040083EA0501084305D0101BAB417F
:1007600006D20122002306E000224FF0004302E0FF
:100770006FF0010253101AEB06004CEB085110EB1E
:100780000A0041EB0B01BDE8F04D00F064B8C1F385
:100790000A52C1F3130140F2FF3341F480119A422F
:1007A00002DA00200146704740F233439A42A2F237
:1007B000334202DC5242FFF7D7BC00F02BB80000F6
:1007C00030B5041E71F1000404DB4FF000444042D8
:1007D00064EB0101141E73F1000405DB1C464FF0AD
:1007E0000043524263EB0403994208BF904230BD7C
:1007F000064C074D06E0E06840F0010394E807006E
:1008000098471034AC42F6D3FFF796FCD03200087C
:10081000F0320008202A04DB203A00FA02F100201E
:1008200070479140C2F1200320FA03F3194390402E
:100830007047202A06DBCB17203A41FA02F043EA40
:10084000E07306E041FA02F3D040C2F12002914089
:1008500008431946704710B5141E73F1000408DAF6
:10086000401C41F1000192185B411A4301D120F074
:10087000010010BD2DE9F04D92469B4611B1B1FA31
:1008800081F202E0B0FA80F220329046FFF7C2FF18
:1008900004460F4640EA0A0041EA0B0153465A4615
:1008A000084313D0114653EA010019D0C8F14002A1
:1008B0005046FFF759FC05460E46504659464246FB
:1008C000FFF7A8FF084305D0012004E02046394681
:1008D000BDE8F08D0020054346EAE0762C4337431F
:1008E0000A986305E40AA0EB08000022FD0A44EA26
:1008F00047540A3002D500200146E9E701051019E6
:100900006941DDE9084500196941BDE8F04DA2E7FC
:1009100070B58D1810F8014B14F0030201D110F8D6
:10092000012B231106D110F8013B03E010F8016BF5
:1009300001F8016B521EF9D1ABB110F8012B04F094
:100940000C048A1A0C2C03D0A2EB84129B1C08E026
:1009500010F8014BA2EB0422F8E712F8014B01F862
:10096000014B5B1EF9D5A942D4D3002070BDFEE730
:100970007047000010B501F017F90149486010BD3B
:100980000000002010B501F00FF9064C20606168EE
:10099000401AFFF7C1FC0449FFF780FCFFF7C5FCD4
:1009A000A06010BD000000200000D74370B50446D1
:1009B00000F00CF90546601C02D00448007804449D
:1009C00000F004F9401BA042FAD370BDD804002007
:1009D0002DE9F84FDFF8B8A100220AF1040B144604
:1009E00001274FF00F090BF1040E00BF0B6807FA47
:1009F00004F52B40AB4274D1DFF898C14E68A6EBEA
:100A00000C0866452BD00DDC032E34D005DC36B344
:100A1000012E19D0022E2FD11BE0112E16D0122E2E
:100A20002AD119E0B8F5881F19D006DCB8F5803F47
:100A300015D0B8F5801F1FD111E0B8F5001F0ED0FA
:100A4000B8F5041F18D10AE0CA6815E0CA68121D7B
:100A500012E0CA6808320FE0CA680C320CE08A68FB
:100A60002AB1012A4FF0080203D0456104E00422B4
:100A700002E0056100E00022FF2B01D8064601E0FC
:100A800000F104064FEA840501D9A5F12005D6F846
:100A900000C009FA05F82CEA080C02FA05F54CEA40
:100AA000050CC6F800C04D68ED006AD53A4DAE6938
:100AB00046F00106AE61AD6924F0030605F00105BC
:100AC0000095364D06EB050CDCF80850A6074FEAFA
:100AD000167809FA08F6B543314EB04202D1002625
:100AE0001AE04EE02F4EB04201D1012614E02E4E06
:100AF000B04201D102260FE02C4EB04201D10326B4
:100B00000AE02B4EB04201D1042605E0294EB04246
:100B100001D1052600E0062606FA08F62E43CCF899
:100B200008604D68DAF80060ED03554601D51E43B4
:100B300000E09E432E604D68AD0305D5DBF80060F4
:100B40001E43CBF8006004E0DBF800509D43CBF877
:100B500000504D68DEF80060ED02754601D51E4379
:100B600000E09E432E604D68AD0205D5084D0C3562
:100B70002E681E432E6004E0054E0C3635689D43FA
:100B80003560641C102CFFF431AFBDE8F88F000015
:100B9000000401400000111000100240000001405C
:100BA00000080140000C0140001001400014014009
:100BB00000180140001C01408068084000D001205E
:100BC00070470AB1016170470904FBE7014880687A
:100BD00070470000D8040020024881680278114460
:100BE00081607047D8040020074810B5016841F0C3
:100BF00010010160032000F09DF8002000F006F8CD
:100C000000F024F8002010BD0020024070B50D4D0A
:100C100004464FF47A712878B1FBF0F00A4909686C
:100C2000B1FBF0F000F05CFB48B9102C07D20022B9
:100C30002146501E00F05EF800206C6070BD01205F
:100C400070BD0000D8040020E4040020214808B54D
:100C5000816941F001018161816901F00101009127
:100C6000C16941F08051C161C06900F080500090BD
:100C7000032000F05FF8002211466FF00B0000F037
:100C800039F8002211466FF00A0000F033F8002214
:100C900011466FF0090000F02DF800221146501F98
:100CA00000F028F800221146101F00F023F800225F
:100CB0001146901E00F01EF800221146501E00F052
:100CC00019F80548416821F0E06141F08061416018
:100CD00008BD0000001002400000014000F01F02AB
:100CE000012191404009800000F1E020C0F800118E
:100CF00070470000F0B40E4B1B680C46C3F3022390
:100D0000C3F10705042D00D90425191D072901D2B7
:100D1000002300E0DB1E012606FA05F1491E2140F2
:100D200099409E40761E16403143F0BC01F053B905
:100D30000CED00E0064900F0070208684FF6FF03DB
:100D4000184040EA0220034A104308607047000040
:100D50000CED00E00000FA052DE9F047DFF83C81DA
:100D600005460E46D8F8000000F00700B0420CD24D
:100D7000D8F8001021F007013143C8F80010D8F866
:100D8000000000F00700B04263D12878444C80078F
:100D900005D56068A96820F0F000084360602878F5
:100DA000C00745D06868012816D02168022816D0EF
:100DB000890700294DDA616821F003010143616070
:100DC000FFF704FF6968074641F2883001290FD018
:100DD0000229814619D027E021688903E9E78901C2
:100DE000E7E700BFFFF7F2FEC11B494501D918E054
:100DF00081466068C0F381000128F3D118E000BF8C
:100E0000FFF7E4FEC11B49450BD86068C0F38100C1
:100E10000228F5D10CE000BFFFF7D8FEC11B494501
:100E200002D90320BDE8F087606810F00C0FF3D101
:100E3000D8F80010404601F00701B1420BD9016813
:100E400021F0070131430160006800F00700B04263
:100E500001D00120E6E72878400705D56068E968F9
:100E600020F4E060084360602878000706D56068D9
:100E7000296920F4605040EAC100606000F03CF84D
:100E80006168084AC1F30311515CC8400649086013
:100E90000020FFF7BBFE0020C4E700000020024056
:100EA00000100240B8320008E40400200148006845
:100EB00070470000E40400200448054900684968C0
:100EC000044AC1F30221515CC8407047E404002089
:100ED00000100240C832000804480549006849680B
:100EE000044AC1F3C221515CC8407047E4040020A9
:100EF00000100240C832000812A185B00FC98DE869
:100F00000F0014A0144A006804905168134801F0BF
:100F10000C03042B10D0082B0ED1C1F38343C9035B
:100F20001DF803000AD5516804AAC1F34041515C81
:100F30000A4A5043B0FBF1F005B0704708494843F6
:100F4000FAE7000002030405060708090A0B0C0D66
:100F50000E0F1010010200000010024000127A0073
:100F600000093D002DE9F84F04460078B94DC0074F
:100F700048D06868C0F38100012807D06868C0F3D2
:100F80008100022809D16868C00306D5286880035B
:100F900038D5606800286FD034E06068B0F5803FD5
:100FA0000BD010B1B0F5A02F11D0286820F48030FC
:100FB0002860286820F4802002E0286840F480300F
:100FC0002860606888B1FFF701FE064609E02868DE
:100FD00040F480202860F0E7FFF7F8FD801B6428CC
:100FE00075D828688003F7D50CE0FFF7EFFD0646BB
:100FF00005E000BFFFF7EAFD801B6428F0D82868F1
:101000008003F7D42078944E80074FF001094FF009
:1010100000083BD5686810F00C0F07D06868C0F373
:101020008100022809D16868C00306D428688007B7
:1010300014D5206901281FD110E02069B0B1C6F88D
:101040000090FFF7C3FD074605E000BFFFF7BEFDB8
:10105000C01B0228C4D828688007F7D528686169B2
:1010600020F0F80040EAC10028600FE0C6F80080D8
:10107000FFF7ACFD074606E0E9E000BFFFF7A6FD7D
:10108000C01B022823D828688007F7D420780007DF
:101090002CD57248A169D9B1C0F80090FFF796FD30
:1010A000074604E0FFF792FDC01B02280FD8686ACC
:1010B0008007F7D56A484FF4FA510068B0FBF1F0A9
:1010C000009000BF0098411E0091FAD20EE080E02F
:1010D000C0F80080FFF77AFD074604E0FFF776FDD1
:1010E000C01B022875D8686A8007F7D420784007AB
:1010F00060D5E8690027C00008D4E86940F0805056
:10110000E861E869012700F08050009055480168C7
:10111000C90513D40168834641F480710160FFF76B
:1011200055FD824606E000BFFFF750FDA0EB0A0028
:1011300064284ED8DBF80000C005F5D5E06801282A
:101140000AD008B1052813D0286A20F001002862CF
:10115000286A20F0040002E0286A40F001002862BA
:10116000E06841F2883B98B1FFF730FD82460BE022
:10117000286A40F004002862EEE700BFFFF726FD72
:10118000A0EB0A0159455AD8286A8007F6D50CE029
:10119000FFF71CFD824605E0FFF718FDA0EB0A01F2
:1011A00059454CD8286A8007F6D41FB1E86920F069
:1011B0008050E861E06988B36968C1F38101022960
:1011C00045D00228C6F8608004D0FFF7FFFC044633
:1011D00038E034E0FFF7FAFC074604E0FFF7F6FCDE
:1011E000C01B02282BD828688001F7D4206AB0F5EC
:1011F000803F05D16868A16820F40030084368602A
:10120000D4E908010843696821F47411084368604F
:10121000C6F86090FFF7DAFC044606E015E000BF70
:10122000FFF7D4FC001B022809D828688001F7D5F5
:101230000BE000BFFFF7CAFC001B022802D9032005
:10124000BDE8F88F28688001F4D40020F8E7012079
:10125000F6E70000001002400000424280044242D3
:10126000E4040020007000404FF0E02104280869E9
:1012700003D020F004000861704740F00400FAE752
:1012800038B5154C2078002824D06088401C608038
:101290006088C8281ED1A06800250090A56001467E
:1012A0000E4800F01FFD009010F1040F01DB042830
:1012B00005DD0A2190FBF1F0A1880844A080A088F8
:1012C000B0F5617F02D340F28330A080A08800F0A7
:1012D0006DFF658038BD0000CC040020EC040020C8
:1012E00010B5401EB0F1807F01D3012010BD4FF03A
:1012F000E02460610F21601700F06DFE0020A06106
:1013000007202061002010BD10B5FFF7B9FF10BD08
:101310007047704710B590F83C20012A25D0012273
:1013200080F83C20CA688C6822F4407222434C68E2
:1013300022F4806222430C6822F4006222430C698A
:1013400022F4805222434C6922F4005222438C69D9
:1013500022F48042224322F4004102680023214308
:10136000516480F83C30002010BD022010BD30B523
:1013700090F83C20012A20D0012280F83C20022352
:1013800080F83D3003685C6824F070045C6003689A
:101390005C680D682C435C6003689C6824F08004E2
:1013A0009C6003689C6849680C439C6080F83D2001
:1013B000002180F83C10084630BD022030BD10B539
:1013C00004460068042200F0AEFF2068416C41F43E
:1013D000004141642068016841F001010160002082
:1013E00010BD10B5040003D094F83D0010B107E023
:1013F000012010BD002084F83C00204600F00CF8CD
:10140000022084F83D00211D206800F03BFF0120F0
:1014100084F83D00002010BD00B5164A016816484A
:1014200085B0914209D1816941F40061816180698F
:1014300000F40060049005B000BDB1F1804FFAD116
:10144000C16941F00101C161C069002100F00100E2
:1014500004900120CDE90001029069460748FFF79A
:10146000B7FA002211461C20FFF744FC1C20FFF7AE
:1014700035FCE0E7002C014000100240000801406C
:10148000022180F83D1001680A6842F001020A60FA
:10149000012180F83D100020704770B5044690F897
:1014A0003C00012817D0012584F83C50022084F824
:1014B0003D002068826822F0770222F47F42826039
:1014C0000868502837D00DDC202859D005DC88B3B7
:1014D000102841D151E0022070BD302853D040285F
:1014E0003AD13FE060282ED070280BD0B0F5805F55
:1014F00003D0B0F5005F2FD110E02068816821F0A3
:10150000070115E0CB68D1E90121206800F016FF42
:101510002168886840F0770088601DE0CB68D1E9D9
:101520000121206800F00AFF2068816841F48041B1
:10153000816011E01EE0CA684968206800F0D2FFAF
:101540005021206806E0CA684968206801F012F856
:101550006021206800F0FCFE84F83D50002084F8F3
:101560003C0070BDCA684968206800F0BBFF40219C
:101570002068EFE700212068ECE710212068E9E708
:1015800020212068E6E730212068E3E7034988420C
:1015900003D103488168491C8160704744050020DD
:1015A000CC0400202DE9F041044690F83C000D46A3
:1015B00001283BD0012684F83C60022084F83D00DD
:1015C0009AB3042A44D02068082A53D0D5E90027CA
:1015D000E968036A23F480530362D0F81CC0036AED
:1015E0002CF4407C4CEA07274FF6FF7C27F4704729
:1015F0000CEA01313943770323F4005307EA02323E
:101600001A43C16102622068C16921F44061C1616D
:101610002068C169AA6841EA0221C16184F83D607D
:10162000002084F83C00BDE8F08101E00220FAE7E8
:10163000D5E90012EB68206800F066FF2068816938
:1016400021F00C01816120688169AA6811430FE0D3
:10165000D5E90012EB68206800F09EFF20688169E0
:1016600021F44061816120688169AA6841EA022110
:101670008161D3E7D5E9002C2F7B016A21F48071C9
:101680000162C169036A21F0030141EA0C0121F002
:10169000F00C39074FF420674CEA116123F4206302
:1016A00007EA02221A43C16102622068C16921F07F
:1016B0000C01C1612068C169AA681143ADE710B58A
:1016C000040003D094F83D0010B107E0012010BDE4
:1016D000002084F83C00204600F00CF8022084F83A
:1016E0003D00211D206800F0CDFD012084F83D0063
:1016F000002010BD704710B50268044631B10429BE
:1017000008D0082915D00C2908D116E0D06840F07F
:10171000020002E0D06840F00400D060012220689E
:1017200000F0F6FD2068016841F001010160002031
:1017300010BDD06840F00800EFE7D06840F010001E
:10174000EBE770B50446006801694FF00005C94336
:10175000890715D4C168C943890711D4E91E0161FD
:1017600001202077206880698007204602D0FFF79B
:101770000DFF04E000F0B8F8204600F03AF92577B4
:1017800020680169C943490717D4C168C94349079B
:1017900013D46FF004010161022020772068806972
:1017A00010F4407F204602D0FFF7F0FE04E000F086
:1017B0009BF8204600F01DF9257720680169C94390
:1017C000090716D4C168C943090712D46FF008018C
:1017D0000161042020772068C0698007204602D07C
:1017E000FFF7D4FE04E000F07FF8204600F001F996
:1017F000257720680169C943C90617D4C168C94360
:10180000C90613D46FF01001016108202077206809
:10181000C06910F4407F204602D0FFF7B7FE04E015
:1018200000F062F8204600F0E4F8257720680169AE
:10183000C943C90708D1C168C943C90704D1891E72
:101840000161204600F0F2F820680169C9430906E9
:1018500009D4C168C943090605D46FF0800101614C
:101860002046FFF755FD20680169C943490609D4A0
:10187000C168C943490605D46FF0400101612046A3
:1018800000F0D5F820680169C94389060BD4C16806
:10189000C943890607D46FF0200101612046BDE8E5
:1018A0007040FFF736BD70BD1FB500680B49884218
:1018B00012D14FF4407000900220019003906946CD
:1018C0000748FFF785F80748416821F0C00141F05B
:1018D000E06141F0C00141601FBD0000002C0140EB
:1018E0000018014000000140704770B5044690F8B0
:1018F0003C000D4601280DD0012684F83C600220F2
:1019000084F83D0042B1042A18D0082A2AD00C2AB3
:101910004DD139E0022070BD206800F021FD206823
:10192000816941F0080181612068816921F0040129
:101930008161206881692A69114311E0206800F003
:101940003FFD2068816941F40061816120688169FF
:1019500021F480618161206881692A6941EA02215C
:10196000816124E0206800F061FD2068C16941F0D8
:101970000801C1612068C16921F00401C1612068CA
:10198000C1692A69114311E0206800F083FD2068D5
:10199000C16941F40061C1612068C16921F48061BD
:1019A000C1612068C1692A6941EA0221C16184F8E4
:1019B0003D60002084F83C0070BD10B5040003D0E9
:1019C00094F83D0010B107E0012010BD002084F81C
:1019D0003C00204600F00CF8022084F83D00211D58
:1019E000206800F04FFC012084F83D00002010BD6D
:1019F0007047704710B504460068012200F088FC6B
:101A000008492068884202D00749884203D1416CC6
:101A100041F4004141642068016841F00101016026
:101A2000002010BD002C0140003401407047704779
:101A300070B5040004D094F83900002510B106E018
:101A4000012070BD84F83850204600F023F824208F
:101A500084F839002068C16821F40051C160204633
:101A600000F0B6FD2068016921F490410161206811
:101A7000416921F02A0141612068C16841F40051A7
:101A8000C160E563202084F8390084F83A00002022
:101A900070BD000010B50068114986B088421DD1A4
:101AA0001048816941F48041816180690E4C00F4E5
:101AB000804004904FF400700090022001900320B9
:101AC000039069462046FEF783FF00212015CDE9EB
:101AD0000001029169462046FEF77AFF06B010BD6C
:101AE0000038014000100240000801402DE9F84391
:101AF000044690F839001F4616460D46202850D15E
:101B0000A5B19EB194F8380001284AD0012084F88C
:101B100038004FF00008C4F83C80212084F83900D8
:101B2000FFF754F8A6848146E68426E00120BDE84C
:101B3000F883E08C401EE084A0684B46B0F5805FDF
:101B40004FF000024FF080012046009703D000F0D4
:101B5000F7FDE8B90DE000F0F3FDC8B92888216869
:101B6000C0F308004860206908B16D1C05E0AD1C99
:101B700003E0216815F8010B4860E08C0028D8D1FB
:101B80004B46002240212046009700F0D9FD08B1C5
:101B90000320CCE7202084F8390084F83880002026
:101BA000C5E70220C3E7000070B5264E00240221DD
:101BB0003046FFF701F80028F9D1012001F0BBFA07
:101BC000002201213046FEF7FCFF02213046FEF7DD
:101BD000F3FF0028F9D10025642001F0ACFA0122BE
:101BE00011463046FEF7EDFF6400012001F0A3FA34
:101BF000002201213046FEF7E4FF02213046FEF7C5
:101C0000DBFF00B1641C012001F095FA6D1CEDB200
:101C1000182DE1D30CA000F025FE0122114630461C
:101C2000FEF7CFFF84F40004012001F084FA0022C3
:101C300001213046FEF7C5FF012001F07CFA204665
:101C400070BD0000000C0140574F524B5F494E479A
:101C500020200D0A00000000FEE7000070B5012200
:101C60000B4D140221462846FEF7ABFF0122560217
:101C700031462846FEF7A5FF002231462846FEF7EA
:101C8000A0FF21462846BDE870400022FEF799BF1C
:101C90000014014070B5094C012211022046FEF7E4
:101CA00090FF6515002229462046FEF78AFF294647
:101CB0002046BDE870400122FEF783BF00140140BA
:101CC00070B50122064D140221462846FEF779FF21
:101CD00021462846BDE870400022FEF772BF000092
:101CE000001401402DE9F04104460068451A61697D
:101CF000E068FEF7A1FA21690746A068FEF79CFAA2
:101D000006462846FEF708FB05466168FEF794FA8A
:101D10003146FEF78BFA3946FEF736FAFEF705FB39
:101D200001462069606125610846BDE8F081000038
:101D30002DE9F0432B4885B0816941F004018161B0
:101D4000816901F004010491816941F00801816118
:101D5000816901F008010491816941F040018161CC
:101D6000816901F040010491816941F020018161A4
:101D70008069DFF8748000F02000049000220121C7
:101D80004046FEF71EFFDFF864904FF48077002294
:101D900039464846FEF715FF012502260024039622
:101DA0000095CDE9015469464046FEF711FECDE9A4
:101DB0000064694640460294FEF70AFE00970396C7
:101DC000CDE9015469464846FEF702FE6802CDE9B6
:101DD0000004694648460294FEF7FAFD05B0BDE8E6
:101DE000F083000000100240000C0140001401408C
:101DF00010B52F4894B02D49016001210024C0E99D
:101E000001144FF46171C0E9031444618461FFF768
:101E1000E8FA18B1452127A000F022FD4FF48050C8
:101E20000E900EA92248FFF738FB18B14B2121A0D4
:101E300000F016FD1E48FFF7C0FD18B150211DA08F
:101E400000F00EFD129412A919481394FFF78FFAAF
:101E500018B1572117A000F003FD6020CDE9000460
:101E60000294039404940594002269461048069451
:101E7000FFF73BFD18B163210EA000F0F1FC0794C1
:101E8000089409944FF400500A94CDE90B4007A937
:101E900007480D94FFF73EFA18B16F2105A000F036
:101EA000DFFC0348FFF700FD14B010BD002C01401B
:101EB000040500202E2E2F5372632F74696D2E633C
:101EC0000000000010B523488AB04FF08041016047
:101ED00047210024C0E901144FF6FF71C0E9031443
:101EE0008461FFF77EFA18B184211BA000F0B8FCD2
:101EF0004FF48050049004A91648FFF7CEFA18B1A9
:101F00008A2115A000F0ACFC1248FFF7D8FB18B1ED
:101F10008F2111A000F0A4FC089408A90D48099491
:101F2000FFF725FA18B196210BA000F099FC0120CB
:101F3000CDE9004002940022694606480394FFF769
:101F400031FB002803D09F2103A000F089FC0AB0D8
:101F500010BD0000440500202E2E2F5372632F74F5
:101F6000696D2E63000000000D4810B50B4901603B
:101F70004FF4E1314160002181600C22C160C0E971
:101F800004128161C161FFF753FD002805D0BDE84F
:101F90001040422103A000F063BC10BD0038014096
:101FA000840500202E2E2F5372632F757361727477
:101FB0002E630000FEE7000010B500210448FFF783
:101FC00019FDBDE8104000210148FFF7F8B90000F5
:101FD0000405002070470907090E002806DA00F002
:101FE0000F0000F1E02080F8141D704700F1E020A0
:101FF00080F80014704770B50024002104F1B0008F
:1020000000F0C2F80021084600F0BEF800211020C0
:1020100000F0BAF800250121002000F0B5F86D1C91
:10202000EDB2802DF7D3641CE4B2082CE5D370BD6B
:1020300010B50021AE2000F0A7F80021084600F0FE
:10204000A3F80021102000F09FF80021402000F0AC
:102050009BF80021B02000F097F80021812000F0CB
:1020600093F80021FF2000F08FF80021A12000F05C
:102070008BF80021A62000F087F80021A82000F0AE
:1020800083F800213F2000F07FF80021C82000F0F5
:102090007BF80021D32000F077F80021084600F0FB
:1020A00073F80021D52000F06FF80021802000F0A7
:1020B0006BF80021D82000F067F80021052000F01F
:1020C00063F80021D92000F05FF80021F12000F032
:1020D0005BF80021DA2000F057F80021122000F010
:1020E00053F80021DB2000F04FF80021302000F0F1
:1020F0004BF800218D2000F047F80021142000F05B
:1021000043F80021BDE81040AF2000F03DB810B505
:102110000A460446002102F1B00000F035F8102014
:1021200040EA1410002100F02FF804F00F00BDE881
:102130001040002100F028B82DE9F04115460E4668
:102140000746FFF7E4FF0F48002400EB8515012147
:10215000285D00F019F8641CE4B2102CF7D3761C4B
:10216000F1B23846FFF7D3FF00242819012190F877
:10217000200000F009F8641CE4B2102CF5D3BDE88F
:10218000F08100000C000020C0B209B100F051BB8A
:1021900000F038BB41608260C36000210161416191
:1021A0007047016070477047704700000149086040
:1021B00070470000342C014010B5FEF70DFDBDE85E
:1021C0001040FFF7A1B830B58FB001210804CDE968
:1021D00000100024029402250491CDE907504FF429
:1021E000E01009906846FEF7BDFE00B1FEE70F2043
:1021F000CDE90A054FF48060CDE90C4002210AA820
:102200000E94FEF7A9FD00B1FEE7FEF74FFE4FF476
:102210007A71B0FBF1F0FFF763F80420FFF724F8C0
:1022200000221146501EFEF765FD0FB030BD0000C4
:102230000D48016841F00101016041680B4A1140FD
:10224000416001680A4A11400160016821F480215F
:102250000160416821F4FE0141604FF41F0181607B
:102260000449C00308607047001002400000FFF8F6
:10227000FFFFF6FE08ED00E00148FFF762BA00003C
:1022800044050020F0B502681C4B1D4D1D4E1E4F2D
:102290001E4C4FF0804C984209D0A04207D06045B8
:1022A00005D0A84203D0B04201D0B84204D122F0F8
:1022B000700E4A6842EA0E02984209D0A04207D046
:1022C000604505D0A84203D0B04201D0B84203D146
:1022D00022F44075CA682A4322F080054A692A43DD
:1022E00002608A68C2620A688262984201D0A04293
:1022F00001D10969016301214161F0BD002C014058
:102300000004004000080040000C00400034014080
:1023100010B50123046A8B409C430462036A8A401F
:102320001343036210BD10B50423046A8B409C4321
:102330000462036A8A401343036210BD10B58468C7
:1023400042EA032224F47F440A432243826010BD00
:10235000826822F070020A4342F0070181607047F0
:10236000F0B5026A22F001020262036A42688469DF
:10237000124E24F073050C682C4323F002058B6881
:102380002B430D4DA84201D0B04205D123F00807E0
:10239000CB683B4323F00403A84201D0B04205D1EF
:1023A0004D6922F4407215438A692A434260846170
:1023B000496841630362F0BD002C014000340140D4
:1023C000F0B5026A22F010020262026A4368846970
:1023D0000D6824F4E64444EA05248D6822F02002C6
:1023E00042EA05120F4D104EA84201D0B04206D16C
:1023F000CF6822F0800242EA071222F04002A8428F
:1024000001D0B04207D14D6923F4406343EA85030C
:102410008D6943EA85034360846149688163026290
:10242000F0BD0000002C014000340140F0B5026A0C
:1024300022F480720262026A4368C46922F4007264
:1024400024F073050C68124E2C438D6842EA052275
:102450000E4DA84201D0B04206D1CF6822F40062EE
:1024600042EA072222F48062A84201D0B04207D19A
:102470004D6923F4405343EA05138D6943EA05137C
:102480004360C4614968C1630262F0BD002C014031
:102490000034014030B5026A22F480520262046ABC
:1024A0004268C3690D6823F4E64343EA05238D6857
:1024B00024F4005444EA0534084DA84202D0084DE3
:1024C000A84204D14D6922F4804242EA851242605A
:1024D000C36149680164046230BD0000002C014002
:1024E0000034014010B5036A046A24F00104046258
:1024F000846924F0F00444EA021423F00A020A4337
:102500008461026210BD000070B5046A24F0010409
:1025100004628469056A124EB0420ED0114EB04278
:102520000BD0B0F1804F08D00F4EB04205D00F4E07
:10253000B04202D00E4EB04203D124F00304144343
:1025400001E044F001041A0724F0F00444EA1262A6
:1025500025F00A0301F00A0119438261016270BD8E
:10256000002C0140003401400004004000080040FD
:10257000000C004010B5036A23F010030362836966
:10258000046A23F4704343EA023224F0A00343EACE
:1025900001118261016210BD30B5046A24F010049B
:1025A00004628469056A24F4407444EA022222F435
:1025B00070444FF6FF7202EA03322243A02425F052
:1025C000A00304EA011119438261016230BD0000D9
:1025D0002DE9F041044600680169E26821F44051A8
:1025E000114301612169A0680843616908432168BA
:1025F000CA6841F20C639A430243CA602068416989
:10260000A26921F44071114341614C49206864255D
:10261000322688423CD1FEF75FFC00EBC00101EBA3
:10262000001061688900B0FBF1F7FEF755FC00EB84
:10263000C00101EB00106168B0468900B0FBF1F009
:10264000B0FBF5F06FF01801484307EB800106EB93
:102650000110B0FBF5F000F0F006FEF73DFC00EBDA
:10266000C00101EB001061688900B0FBF1F0B0FB24
:10267000F5F006EB0016FEF72FFC00EBC00101EBB6
:10268000001061688900B0FBF1F7FEF725FC3BE024
:10269000FEF712FC00EBC00101EB0010616889003D
:1026A000B0FBF1F7FEF708FC00EBC00101EB0010F6
:1026B0006168B0468900B0FBF1F0B0FBF5F06FF057
:1026C0001801484307EB800106EB0110B0FBF5F061
:1026D00000F0F006FEF7F0FB00EBC00101EB00108C
:1026E00061688900B0FBF1F0B0FBF5F006EB001675
:1026F000FEF7E2FB00EBC00101EB0010616889000E
:10270000B0FBF1F7FEF7D8FB00EBC00101EB0010C6
:1027100061688900B0FBF1F0B0FBF5F06FF01801D3
:10272000484307EB800108EB0110B0FBF5F021688E
:1027300000F00F0030448860BDE8F08100380140AF
:102740002DE9F041984617460E460446069D1DE0C9
:10275000681C1BD02DB1FEF739FAA0EB0800A84287
:1027600014D92068C16821F4D071C1602068416922
:1027700021F001014161202084F8390084F83A00F9
:10278000002084F838000320BDE8F081206800684C
:1027900036EA000004D00020B842D9D00020F3E788
:1027A0000120F9E7FEE700002DE9F041144F04464F
:1027B0004FF48076002231463846FEF702FA0025B3
:1027C0004FF4007804F08000802816D000224146A3
:1027D0003846FEF7F6F96006040E01223146384607
:1027E000FEF7EFF9002231463846FEF7EAF96D1C94
:1027F000EDB2082DE6D3BDE8F0810122E7E7000045
:102800000014014010B50446FFF728FA7820FFF7BE
:10281000CBFFFFF755FA0020FFF7C6FFFFF750FA8E
:102820002046FFF7C1FFFFF74BFABDE81040FFF766
:1028300031BA10B50446FFF711FA7820FFF7B4FF5C
:10284000FFF73EFA4020FFF7AFFFFFF739FA2046C7
:10285000FFF7AAFFFFF734FABDE81040FFF71ABAF6
:10286000FEE700000FB4054B10B503A9044A029817
:1028700000F0CAF810BC5DF814FB000045310008F8
:10288000E804002002E008C8121F08C1002AFAD19B
:1028900070477047002001E001C1121F002AFBD1E0
:1028A000704700002DE9FF5FDDE90220010DDDF832
:1028B00038B0024318D044F61050A1F2FF31414322
:1028C0000D140F98012820D0A5EB0B00401C5FEAE7
:1028D000000A4FF00004474EDFF81C91A046504616
:1028E00016D5CAF1000728E00F98012443A2012859
:1028F00008D0002100980F9BC0E90021C0E90243E5
:10290000BDE8FF9F6FEA0B01F4E7CBF10000DEE7C3
:10291000074612E0F80707D02246334640464946AC
:10292000FDF754FE80468946224633461046194636
:10293000FDF74CFE04460E467F10002FEAD1DDE97C
:102940000201BAF1000F42464B4602DAFDF73EFEA5
:1029500001E0FDF7ADFE04460E460022284BFDF7D0
:102960002FFF03D84FF0FF30014607E00022254B30
:1029700020463146FDF783FDFDF709FF102409E0ED
:10298000002C0ADB0A220023FDF711FD019B3032E7
:102990001A55641E50EA0102F2D1641C019AC4F176
:1029A000110314440F9A012A03D0012208430DD1C8
:1029B0000AE0084304D000204FF0110B0F9080E78D
:1029C000A3EB0B056D1E0DE05B4504DD4FF000022F
:1029D00005F1010504E003DA4FF00002A5F101055D
:1029E000002AECD000980F99C0E90231C0E90045F7
:1029F00086E70000000024400000F03F30000000A7
:102A00000000F0430000E03F2DE9FF4F95B09B46EA
:102A10008946064600250FE2252877D1002427465F
:102A2000F84A0121059400E0044316F8013F203BD9
:102A300001FA03F01042F7D130782A2811D06FF054
:102A40002F033078A0F13002092A16D8059A44F0F5
:102A5000020402EB820203EB42021044761C059052
:102A6000EFE759F8042B0592002A03DA504244F4A8
:102A70000054059044F00204761C30782E2816D1BC
:102A800016F8010F44F004042A280DD06FF02F022D
:102A90003078A0F13003092B09D807EB870302EB4C
:102AA0004303C718761CF3E759F8047B761C30788B
:102AB0006C280FD006DC4C2817D068280DD06A2867
:102AC00014D104E0742810D07A280FD10DE044F41A
:102AD00000140AE044F4801401E044F440147278D5
:102AE000824202D104F58014761C761C3078662868
:102AF0000BD013DC582877D009DC002875D0452886
:102B0000F6D04628F4D047281AD19DE118E0632872
:102B100035D0642879D0652812D195E1702873D01A
:102B200008DC6728F1D069286FD06E280DD06F2897
:102B300006D1B5E073282CD0752875D0782874D0CC
:102B40005A46179990476D1C75E1C4F3025002284C
:102B500009D003280DD0D9F8001004280DD00D603D
:102B600009F1040967E1D9F80010EA17C1E9005238
:102B7000F6E7D9F800100D80F2E70D70F0E719F8CC
:102B8000041B8DF8001000208DF80100EA4601209A
:102B900003E059F804AB4FF0FF3061074FF000013C
:102BA00002D40DE008F101018846B9420FDA8045F0
:102BB000F8DB1AF808100029F4D108E008F1010147
:102BC00088468142FADB1AF808100029F6D10598E8
:102BD0005B46A0EB080721463846179A00F094FAA6
:102BE000284400EB080507E04DE029E10DE01AF864
:102BF000010B5A4617999047B8F10108F7D25B4686
:102C000021463846179A13E142E00A220092C4F3A3
:102C100002524FF0000A022A08D059F804CB032AC6
:102C20004FEAEC710AD00DE029E02AE009F1070132
:102C300021F00702F2E802C1914609E00FFA8CFC8C
:102C40004FEAEC71042A03D14FFA8CFC4FEAEC7185
:102C5000002907DA0A460021DCF1000C61EB0201D1
:102C60002D2202E0220504D52B228DF8042001221A
:102C700003E0E20701D02022F7E7904659E00A215D
:102C800002E010220DE010214FF0000A00910BE04D
:102C900010224FF0000A44F004040827009203E0D9
:102CA00008224FF0000A0092C4F30252022A05D013
:102CB00059F804CB0021032A08D009E009F10701E3
:102CC00021F00702F2E802C1914605E01FFA8CFCF0
:102CD000042A01D10CF0FF0C4FF00008220728D580
:102CE000702806D0009B83F0100353EA0A0305D036
:102CF0000EE040228DF80420012208E05CEA010287
:102D000006D030228DF804208DF80500022290466E
:102D1000009B83F0080353EA0A030AD15CEA01022C
:102D200001D1620705D530228DF804204FF001084B
:102D30007F1E582804D034A003900EA802900DE006
:102D400036A0F9E753466046009AFDF730FB84460B
:102D50000398825C0298401E029002705CEA0100B7
:102D6000F0D1029806A9081A00F1200A600702D5DE
:102D700024F4803400E00127574502DDA7EB0A0068
:102D800000E0002000EB0A01009005984144401A41
:102D90000590E00306D45B462146179A059800F09B
:102DA000B3F90544002706E001A85A46C05D17990B
:102DB00090476D1C7F1C4745F6DBE0030CD55B4656
:102DC0002146179A059800F09FF9054404E0302049
:102DD0005A46179990476D1C0099481E009000298B
:102DE000F5DC08E0029802995A460078491C0291E5
:102DF000179990476D1CBAF10001AAF1010AF1DCA4
:102E000065E10000092801003031323334353637AE
:102E10003839616263646566000000003031323326
:102E200034353637383941424344454600000000C6
:102E300000F058F90544761C307800287FF4ECAD9A
:102E400019B02846BDE8F08F620700D4062709F1C3
:102E5000070222F0070CFCE80223E14603F00048D9
:102E60005FEA080C02D00FF2702C0DE05FEA045C00
:102E700002D50FF2682C07E05FEAC47C02D00FF2A3
:102E8000602C01E0AFF2700C4FF0FF3823F00043EC
:102E9000CDF850C065280CD006DC452809D046285E
:102EA0001DD047283DD13DE0662818D067287ED147
:102EB00038E00021112F01DB112000E0781CCDE962
:102EC000000106A90EA8FFF7EDFCDDE90F010E9A3F
:102ED00003910021009207F1010A04914DE04FF0A7
:102EE00000400097CDE9011006A90EA8FFF7DAFC13
:102EF000DDE90F0203920E9B11990022DDF80CA070
:102F00000093049211B9791C00EB010AB7EB0A0097
:102F100004D4C0F1FF3007F1010A0490AAEB0700C6
:102F2000019044E0012F00DA01270021112F01DD7B
:102F3000112000E03846CDE9000106A90EA8FFF7F0
:102F4000B1FCDDE90F010E9A03910021049100927A
:102F5000BA4621070CD40399514500DA8A46BAF1E2
:102F6000010F05DD009AAAF10101515C302908D05A
:102F7000B84202DA10F1040F06DA0121CDE901109E
:102F800015E0AAF10101E9E7002805DC04990144F4
:102F90000491AAEB000102E0411C514500DD8A4684
:102FA0000499401A401C01904FF000400290200705
:102FB00004D40198504501DBCDF8048000208DF841
:102FC0004F0002980DF14F07B0F1004F25D02B2094
:102FD0000E9002984FF0020800280CDA404202904E
:102FE0002D200E9007E00A210298FDF7CAF9303132
:102FF000029007F8011DB8F10001A8F10108F2DC08
:1030000002980028EFD1791E0E980870307800F0F1
:10301000200040F0450007F8020D12A8C01B00F187
:1030200007081498007800B1012000EB0A0101980C
:1030300001EBE07105984144401A401E0590E00301
:1030400006D45B462146179A059800F05DF80544C2
:103050001498007818B15A46179990476D1CE003F0
:1030600024D55B462146179A059800F04DF8054493
:103070001CE00498002807DBDDE90301884203DD3A
:103080000098405C179901E0179930205A46904704
:10309000049805F10105401C04900198401E019020
:1030A00004D12E205A46179990476D1CBAF10001A1
:1030B000AAF1010ADDDC05E017F8010B5A46179961
:1030C00090476D1CB8F10001A8F10108F4DC5B46E3
:1030D0002146179A0598ABE62D0000002B00000052
:1030E000200000002DE9F041044600251E46174649
:1030F000880404D405E039462020B0476D1C641EC6
:10310000F9D52846BDE8F0812DE9F04104460025B7
:103110001E469046C80301D5302700E020278804CA
:1031200004D505E041463846B0476D1C641EF9D50C
:103130002846BDE8F08101E0401EC0B20028FBD166
:103140007047000013B54FF6FF730122694602482D
:10315000FEF7CCFC00981CBD84050020FDF744FD63
:10316000FFF731F8FEF7E4FDFEF742FEFEF7AAFE98
:10317000FEF7FAFEFEF75CFFFEF73DFFFEF71CFFD1
:103180003148FEF77DF93148FEF77AF900212F48E2
:10319000FEF7B1FA2E4B00222E492F48FEF7FAFF18
:1031A0002E49012008702EA0FFF75CFBC8212A4899
:1031B000FEF7F7FFFDF7DEFB4FF4FA70FDF7F6FBC5
:1031C0002EA0FFF74FFB324D4FF47A74FEF713FF3A
:1031D000002211461046FEF7AFFF01220021122007
:1031E000FEF7AAFF022200212420FEF7A5FF0322FA
:1031F00000213620FEF7A0FF042200214820FEF720
:103200009BFF052200215A20FEF796FFFDF7BAFB2F
:10321000FDF782F82946FDF741F8FDF79FF80246D1
:103220000B461CA0FFF71EFB2046FDF7BFFB204608
:10323000FDF7BCFB2046FDF7B9FB2046FDF7B6FBCA
:103240002046FDF7B3FBC1E704050020440500203C
:10325000CDCCCC3D66666640EC040020CC0400205A
:10326000D4F6C1BFCABD504944CBE3B7A8BFD8D636
:10327000C6B5E7BBFAD0FDD7AA0D0A00494E49549E
:103280005F5F50415353A1ADA1AD20200D0A000056
:1032900000007A44D1B9C1A6B4ABB8D0C6F7BBD848
:1032A000B4ABD6B5CEAAA3BA0925302E3366206BAF
:1032B000670D0A0D0A000000000000000000000079
:1032C00001020304060708090000000001020304CC
:1032D000F032000800000020EC0400001009000893
:1032E00088340008EC040020DC0400009428000866
:1032F000B2000163FE22010312FE000163FF4201DE
:103300000211FF1E10081010D0FF9010203E12E294
:1033100048F22020001011040300FF00130C0340AA
:10332000807F0001061840100A10FF904010901096
:1033300011164BF210400010120242817F004040F3
:10334000415E4040704E414081214331060212F0FF
:10335000BF000D1380402018060100204080403F30
:1033600020000D1060F80704E4A4A4BFA4A4E404A2
:103370005F160101200540407F4A010005307F4073
:10338000400001031A36361E100B100C048414641E
:103390000506F404010710140C40000E1184844447
:1033A0004724140C070C14244484A1040618FE229C
:1033B0005A8600800407FF00FF04080710800119E7
:1033C00020000C1222322AA6A2622111098101C01A
:1033D000000E104222130B42827E02020A12234682
:1033E0003E0010102030AC63300088C8A8998E8849
:1033F000A8C8885E040F10672212128040300F00A8
:10340000003F404071C0080E11FC0404FC00F808A5
:10341000CC4B48C808F8211C050F04040F430314C3
:10342000050F08084FC30D11A0031BFC04182B2522
:10343000C6400911C1117A15BE0808124E404063FA
:10344000504C43C07406FC848484FCC605100016EE
:103450003FD91D39030004140106407F0C0D12F8FA
:10346000010600F0121212F202020241042D35048C
:103470000007151F1111111F0041053EC0B92C7E18
:083480000042043BA24A4E0089
:0400000508000131BD
:00000001FF
