:020000040800F2
:10000000001100204501000853190008B917000825
:1000100051190008B9010008BB1E000800000000CB
:100020000000000000000000000000005701000870
:10003000BB010008000000005B0100087519000802
:100040005F0100085F0100085F0100085F01000810
:100050005F0100085F0100085F0100085F01000800
:100060005F0100085F0100085F0100085F010008F0
:100070005F0100085F0100085F0100085F010008E0
:100080005F0100085F0100085F0100085F010008D0
:100090005F0100085F0100085F0100085F010008C0
:1000A0005F0100085F0100085F0100085F010008B0
:1000B0005F0100085F0100085F0100085F010008A0
:1000C0005F0100085F0100085F0100085F01000890
:1000D0005F0100085F0100085F0100085F01000880
:1000E0005F0100085F0100085F0100085F01000870
:1000F0005F0100085F0100085F0100085F01000860
:100100005F0100085F0100085F0100085F0100084F
:100110005F0100085F0100085F0100085F0100083F
:100120005F0100085F0100085F0100085F0100082F
:10013000DFF80CD000F02EF80048004769200008D6
:10014000001100200648804706480047FEE7FEE70A
:10015000FEE7FEE7FEE7FEE7FEE7FEE7FEE7FEE777
:10016000E11900083101000830B50B4601460020B6
:100170002022012409E021FA02F59D4205D303FA69
:1001800002F5491B04FA02F52844151EA2F10102EA
:10019000F1DC30BD064C074D06E0E06840F001039D
:1001A00094E8070098471034AC42F6D3FFF7C4FF39
:1001B000C0200008E0200008FEE7FEE70C494FF0F1
:1001C000804008600020486088604FF6FF72CA6077
:1001D000086102223C310A60486001228A60C860DE
:1001E000086148618A61C8610862014801F0A6B8E7
:1001F0005C00002031B500F011F9044600F00EF962
:100200000099001B8842F9D338BD00002DE9F84F52
:1002100000230024DFF8DC914FF00F0809F1040AF5
:100220000AF1040B0BF1040E0127A7400A683A40BB
:10023000BA4275D1DFF8C0C14D68A5EB0C06654523
:100240002BD00DDC032D34D005DC35B3012D19D0B6
:10025000022D2FD11BE0112D16D0122D2AD119E01D
:10026000B6F5881F19D006DCB6F5803F15D0B6F577
:10027000801F1FD111E0B6F5001F0ED0B6F5041F88
:1002800018D10AE0CB6815E0CB681B1D12E0CB68E3
:1002900008330FE0CB680C330CE08B6823B1012BE3
:1002A00004D00823476105E0042303E00823076125
:1002B00000E00023FF2A01D8054601E000F1040513
:1002C00002D84FEA840603E0A4F108064FEA860646
:1002D0002F6808FA06FC27EA0C0703FA06F647EA35
:1002E00006072F604D68ED007ED5444DAE6946F09F
:1002F0000106AE61AD6905F001050095404D24F0A1
:1003000003067719BE68A5072D0F08FA05FC26EA33
:100310000C06DFF8F0C0604503D14FF0000C25E07B
:1003200062E0DFF8E4C0604502D14FF0010C1DE04F
:10033000DFF8D8C0604502D14FF0020C16E0DFF8BC
:10034000D0C0604502D14FF0030C0FE0DFF8C4C00D
:10035000604502D14FF0040C08E0DFF8BCC06045F6
:1003600002D14FF0050C01E04FF0060C0CFA05FC31
:100370004CEA060CC7F808C04D68ED0305D5D9F85E
:1003800000501543C9F8005004E0D9F800509543D7
:10039000C9F800504D68AD0305D5DAF80050154393
:1003A000CAF8005004E0DAF800509543CAF800504B
:1003B0004D68ED0205D5DBF800501543CBF8005031
:1003C00004E0DBF800509543CBF800504D68AD02D7
:1003D00005D5DEF800501543CEF8005004E0DEF8F5
:1003E00000509543CEF80050641C102CFFF41CAF55
:1003F000BDE8F88F00040140000011100010024019
:100400000000014000080140000C014000100140C4
:100410000014014000180140001C01400148006820
:10042000704700000400002002480168491C016078
:10043000704700000400002010B50748016841F033
:1004400010010160032000F069F8002000F006F8B8
:1004500000F016F8002010BD0020024010B5044640
:1004600000F0CAF94FF47A72B0FBF2F000F00CFE23
:1004700000222146501E00F031F8002010BD00007F
:1004800008B51548816941F001018161806900F07A
:1004900001000090052000F041F8002211466FF0A5
:1004A0000B0000F01BF8002211466FF00A0000F06C
:1004B00015F8002211466FF0090000F00FF8002235
:1004C0001146101F00F00AF80022BDE8084011464E
:1004D000501E00F003B8000000100240F0B40D46BA
:1004E0000D4B1B68C3F30223C3F10704042C00D98E
:1004F0000424191D072901D2002300E0DB1E012678
:1005000006FA04F1491E294099409E40761E164085
:100510003143F0BC01F01EBA0CED00E000F0070121
:10052000054A10684FF6FF03184040EA01200349CE
:1005300008431060704700000CED00E00000FA0571
:100540002DE9F04704460F46DFF8A492D9F80000E1
:10055000A84D00F007010120430446064FF0020CAD
:1005600041F28838B9426FD2D9F8001021F0070162
:100570003943C9F80010D9F8001001F00701B94259
:1005800001D0BDE8F0872178890705D56968A268A0
:1005900021F0F001114369602178C90761D06168D9
:1005A00001290BD002291FD09CFAACF2B2FA82F2D8
:1005B00042F0200252092DD02A682CE093FAA3F2CF
:1005C000B2FA82F242F02002520901D02A6800E019
:1005D0006A6A93FAA3F3B3FA83F303F01F03984014
:1005E000024223D10120CCE796FAA6F2B2FA82F2B7
:1005F00042F02002520901D02A6800E06A6A96FAA5
:10060000A6F3B3FA83F303F01F03984002420DD11F
:100610000120B6E76A6A9CFAACF3B3FA83F303F0FD
:100620001F039840024201D10120AAE7686820F028
:10063000030008436860FFF7F1FE06466068012882
:100640000AD0022815D021E025E0FFF7E7FE801B45
:10065000404501D9032094E76868C0F38100012870
:10066000F3D1ADE0FFF7DAFE801B404501D903204E
:1006700087E76868C0F381000228F3D1A0E0FFF7A4
:10068000CDFE801B404501D903207AE7686810F051
:100690000C0FF4D194E02178890705D56968A26828
:1006A00021F0F001114369602178C90779D06168B0
:1006B00001290BD002291FD09CFAACF2B2FA82F2C7
:1006C00042F0200252092DD02A682CE093FAA3F2BE
:1006D000B2FA82F242F02002520901D02A6800E008
:1006E0006A6A93FAA3F3B3FA83F303F01F03984003
:1006F000024223D1012044E796FAA6F2B2FA82F22E
:1007000042F02002520901D02A6800E06A6A96FA93
:10071000A6F3B3FA83F303F01F03984002420DD10E
:1007200001202EE76A6A9CFAACF3B3FA83F303F074
:100730001F039840024201D1012022E7686820F09F
:10074000030008436860FFF769FE064660680128F9
:1007500009D0022814D020E0FFF760FE801B40453E
:1007600001D903200DE76868C0F381000128F3D1A7
:1007700017E0FFF753FE801B404501D9032000E737
:100780006868C0F381000228F3D10AE0FFF746FE53
:10079000801B404501D90320F3E6686810F00C0F78
:1007A000F4D1D9F8000020F007003843C9F8000060
:1007B000D9F8000000F00700B84201D00120E0E6BF
:1007C0002078400705D56868E16820F4E0600843B8
:1007D00068602078000706D56868216920F46050B9
:1007E00040EAC10068600020FFF738FE0020C8E63C
:1007F000002002400010024000B500F043F8084914
:100800004968F02292FAA2F201F0F001B2FA82F203
:10081000D140044A515CC8400349086000BD000053
:1008200000100240B02000080000002000B5FFF7D3
:10083000E3FF074949684FF4E06292FAA2F201F43B
:10084000E061B2FA82F2D140024A515CC84000BD78
:1008500000100240B020000800B5FFF7CDFF0749A7
:1008600049684FF4605292FAA2F201F46051B2FA70
:1008700082F2D140024A515CC84000BD00100240E3
:10088000B020000810B585B01AA0D0E90031D0E939
:100890000220CDE90131CDE903201AA000680090C3
:1008A000194B5968194801F00C02042A1DD0082A76
:1008B0001BD14FF4701494FAA4F401F47012B4FA3A
:1008C00084F4E24001ACA25CC90310D559684FF42E
:1008D000003393FAA3F301F40031B3FA83F3D94060
:1008E0001DF80110B0FBF1F0504305B010BD0848F1
:1008F0005043FAE702030405060708090A0B0C0D2A
:100900000E0F1010010200000010024000127A00C9
:1009100000093D002DE9F84F0446F94D20784FF0CD
:100920000106C00775D068687704C0F3810001280C
:1009300007D06868C0F3810002281DD16868C00331
:100940001AD597FAA7F0B0FA80F040F020004009DD
:1009500001D0286800E0686A97FAA7F1B1FA81F13E
:1009600001F01F0206FA02F1084252D06068002826
:100970004FD10120BDE8F88F286820F4803028602E
:10098000286820F480202860FFF748FD804607E0B3
:10099000FFF744FDA0EB0800642801D90320E9E734
:1009A00097FAA7F0B0FA80F040F02000400901D09B
:1009B000286800E0686A97FAA7F1B1FA81F101F0BE
:1009C0001F0106FA01F10842E2D16068B0F5803FEC
:1009D00011D0A8B1B0F5A02F1CD0286820F4803029
:1009E0002860286820F4802028606068C8B3FFF77A
:1009F00015FD80461FE0286840F480302860F4E749
:100A0000286820F480302860286820F4802028603E
:100A1000EBE748E0286840F480202860286840F42C
:100A200080302860E1E7FFF7F9FCA0EB08006428BC
:100A300001D903209EE797FAA7F0B0FA80F040F0C2
:100A40002000400901D0286800E0686A97FAA7F101
:100A5000B1FA81F101F01F0106FA01F10842E2D07A
:100A600021E0FFE7FFF7DAFC804607E0FFF7D6FC5E
:100A7000A0EB0800642801D903207BE797FAA7F0D0
:100A8000B0FA80F040F02000400901D0286800E072
:100A9000686A97FAA7F1B1FA81F101F01F0106FA2D
:100AA00001F10842E2D12078DFF8588280074FF048
:100AB000000B4FF0020732D568684FF0F80A10F0CB
:100AC0000C0F07D06868C0F38100022828D168683D
:100AD000C00325D497FAA7F0B0FA80F040F02000C8
:100AE000400901D0286800E0686A97FAA7F1B1FAD6
:100AF00081F101F01F0106FA01F1084204D02069DA
:100B0000012801D0012035E728689AFAAAF2616924
:100B1000B2FA82F220F0F8009140084328605CE0CD
:100B2000206990B396FAA6F0B0FA80F048F82060F9
:100B3000FFF774FC814607E0FFF770FCA0EB0900AB
:100B4000022801D9032015E797FAA7F0B0FA80F040
:100B500040F02000400901D0286800E0686A97FA58
:100B6000A7F1B1FA81F101F01F0106FA01F1084283
:100B7000E2D028689AFAAAF26169B2FA82F220F009
:100B8000F80091400843286027E0FFE796FAA6F0B6
:100B9000B0FA80F048F820B0FFF740FC814607E04B
:100BA000FFF73CFCA0EB0900022801D90320E1E695
:100BB00097FAA7F0B0FA80F040F02000400901D089
:100BC000286800E0686A97FAA7F1B1FA81F101F0AC
:100BD0001F0106FA01F10842E2D12078000770D522
:100BE000A069C0B396FAA6F0B0FA80F008EB8000D6
:100BF000C0F88064FFF712FC814607E0FFF70EFCA7
:100C0000A0EB0900022801D90320B3E697FAA7F068
:100C1000B0FA80F040F06000B6EB501F01D12868B8
:100C20000BE097FAA7F0B0FA80F040F06000B7EB65
:100C3000501F01D1286A00E0686A97FAA7F1B1FA5B
:100C400081F101F01F0206FA02F10842D6D001201C
:100C5000FFF7D0FA35E0FFE796FAA6F0B0FA80F099
:100C600008EB8000C0F880B4FFF7D8FB814607E0AE
:100C7000FFF7D4FBA0EB0900022801D9032079E695
:100C800097FAA7F0B0FA80F040F06000B6EB501F82
:100C900001D128680BE097FAA7F0B0FA80F040F095
:100CA0006000B7EB501F01D1286A00E0686A97FA2C
:100CB000A7F1B1FA81F101F01F0206FA02F1084230
:100CC000D6D12078400770D5E86940F08050E861BF
:100CD000E86900F080500090DFF82CA0DAF80000FE
:100CE00040F48070CAF80000FFF798FB81460DE0E1
:100CF000FFF794FBA0EB0900642807D9032039E62D
:100D0000001002400000424200700040DAF800008B
:100D1000C005EDD5286A20F001002862286A20F07D
:100D200004002862FFF77AFB814641F2883A07E027
:100D3000FFF774FBA0EB0900504501D9032019E629
:100D400097FAA7F0B0FA80F040F04000B6EB501FE1
:100D500001D128680BE097FAA7F0B0FA80F040F0D4
:100D60004000B7EB501F01D1286A00E0686A97FA8B
:100D7000A7F1B1FA81F101F01F0106FA01F1084271
:100D8000D6D1E068012811D0A8B105281CD0286A66
:100D900020F001002862286A20F004002862E06840
:100DA000C8B3FFF73BFB81461FE06EE0286A40F0C6
:100DB00001002862F3E7286A20F001002862286A0F
:100DC00020F004002862EAE7286A40F00400286264
:100DD000286A40F001002862E1E7FFF71FFBA0EB63
:100DE0000900504501D90320C4E597FAA7F0B0FAED
:100DF00080F040F04000B6EB501F01D128680CE0B5
:100E000097FAA7F0B0FA80F040F04000B7EB501F1F
:100E100002D1286A01E00BE0686A97FAA7F1B1FAFB
:100E200081F101F01F0206FA02F10842D5D02CE050
:100E3000FFF7F4FA814607E0FFF7F0FAA0EB0900AC
:100E4000504501D9032095E597FAA7F0B0FA80F054
:100E500040F04000B6EB501F01D128680BE097FA34
:100E6000A7F0B0FA80F040F04000B7EB501F01D17E
:100E7000286A00E0686A97FAA7F1B1FA81F101F0F7
:100E80001F0206FA02F10842D6D1E06980B3696810
:100E9000C1F38101022970D04FF080794FF00077C3
:100EA000022809D099FAA9F0B0FA80F048F820B0E9
:100EB000FFF7B4FA044668E099FAA9F0B0FA80F0B6
:100EC00048F820B0FFF7AAFA824607E0FFF7A6FA33
:100ED000A0EB0A00022801D903204BE597FAA7F0FE
:100EE000B0FA80F040F02000400902D0286801E00C
:100EF00060E0686A97FAA7F1B1FA81F101F01F0189
:100F000006FA01F10842E1D1206AB0F5803F05D12F
:100F10006868A16820F4003008436860D4E90801DB
:100F20000843696821F474110843686099FAA9F0CC
:100F3000B0FA80F048F82060FFF770FA044606E047
:100F4000FFF76CFA001B022801D9032012E597FA7B
:100F5000A7F0B0FA80F040F02000400901D02968E5
:100F600000E0696A97FAA7F0B0FA80F000F01F007D
:100F700006FA00F00142E3D01CE01DE0FFF74EFA54
:100F8000001B022801D90320F4E497FAA7F0B0FA75
:100F900080F040F02000400901D0296800E0696A33
:100FA00097FAA7F0B0FA80F000F01F0006FA00F000
:100FB0000142E3D10020DDE40120DBE44FF0E02139
:100FC000042804D0086920F004000861704708690B
:100FD00040F004000861704710B5174C20780028D5
:100FE00028D06088401C60806088B0F57A7F21D16D
:100FF000124800680168C1F30011A160406A606096
:101000000FA000F05BFF616815A000F057FF61685A
:10101000E068814202D36168091A04E06168081A35
:101020004FF6FF71014412A000F048FF6068E060D5
:101030000020608010BD0000080000205C0000203F
:10104000B5B1C7B0B1E0C2EBC6F7B6A8CAB1C6F732
:10105000BCC6CAFDB7BDCFF2A3BA25640A00000022
:10106000CAE4C8EBB2B6BBF1D6B5A3BA25640A0090
:101070003173C4DAB1E0C2EBC6F7BCC6CAFDD6B55F
:10108000A3BA25640A00000010B5401EB0F1807FAD
:1010900001D3012010BD4FF0E02460610F216017E3
:1010A00000F058FC0020A06107202061002010BD46
:1010B00010B5FFF791FF10BD30B590F83820012A28
:1010C00019D0012200F8382F02234370D1E90034EF
:1010D0002343D1E902452C4323430C6923434C6944
:1010E000896923430B4350F8381C4B64427000213C
:1010F0000170002030BD022030BD30B590F838209E
:10110000012A20D0012380F83830022280F83920CB
:101110000268546824F070045460026854680D68D2
:101120002C4354600268946824F080049460026840
:10113000946849680C43946080F83930002180F845
:101140003810002030BD022030BD10B50446042206
:10115000206800F0B8FC2068416C41F40041416413
:101160002068016841F001010160002010BD10B548
:1011700004460022206800F0A6FC2168086A41F2BB
:101180001112104240F2444306D1086A184203D1BA
:10119000486C20F4004048642068016A114206D17E
:1011A000016A194203D1016821F0010101600020A8
:1011B00010BD10B50446002C03D094F8390010B1CE
:1011C00007E0012010BD002084F83800204600F020
:1011D0000DF8022084F83900211D206800F024FC5D
:1011E000012084F83900002010BD000008B5006817
:1011F0000649884208D10648816941F4006181614D
:10120000806900F40060009008BD0000002C0140DF
:1012100000100240022180F8391001680A6842F08B
:1012200001020A60012180F839100020704770B572
:10123000044694F83800012817D0012584F8385066
:10124000022084F839002068826822F0770222F4B4
:101250007F428260086850283AD00DDC20285FD099
:1012600005DCA0B3102864D155E0022070BD302801
:101270005BD040285DD13FE0602833D070280CD08F
:10128000B0F5805F03D0B0F5005F52D113E0206865
:10129000816821F0070181604BE0CB68D1E9012131
:1012A000206800F01BFC2068816821F0770141F084
:1012B000770181603DE0CB68D1E90121206800F031
:1012C0000DFC2068816841F48041816031E01DE0BF
:1012D000CA684968206800F0E3FC5021206800F0EB
:1012E00007FC26E0CA684968206800F0EAFC602133
:1012F000206800F0FDFB1CE0CA684968206800F027
:10130000CFFC4021206800F0F3FB12E000212068B0
:1013100000F0EEFB0DE01021206800F0E9FB08E092
:101320002021206800F0E4FB03E03021206800F079
:10133000DFFB383465700020207070BD2DE9F0416E
:1013400004460D46002C03D094F8390018B108E08B
:101350000120BDE8F081002084F83800204600F02C
:101360003FF8022084F839002068816821F00701E5
:101370008160211D206800F057FB20688168826928
:10138000066A2B680B4340F203318A43AF69A968B0
:1013900042EA0722114340F60C4291434FF2F00219
:1013A0009143EF69EA6841EA07210A4329692F6AF4
:1013B000090141EA0731114326F0220222F0880692
:1013C0006A686D6946EA05152A4383602068816171
:1013D00020680262012084F839000020B9E700008B
:1013E00070B586B00068B0F1804F21D11148C16955
:1013F00041F00101C161C16901F0010101918169FF
:1014000041F004018161806900F004000190012431
:101410000294022503950494074E02A93046FEF774
:10142000F5FE02950395049402A93046FEF7EEFE00
:1014300006B070BD001002400008014010B504461F
:101440000029206811D0042914D00122002100F0C5
:101450002FFB01220421206800F02AFB206801688C
:1014600041F001010160002010BD0122002100F0C7
:101470001FFBF3E70122042100F01AFBEEE770B531
:1014800004460D4694F8380001280DD0012684F852
:101490003860022084F8390042B1042A1AD0082AA0
:1014A0002DD00C2A53D13EE0022070BD2946206881
:1014B00000F026FB2068816941F008018161206805
:1014C000816921F004018161206881692A691143E1
:1014D00081613CE02946206800F046FB2068816974
:1014E00041F4006181612068816921F4806181613A
:1014F000206881692A6941EA0221816127E0294641
:10150000206800F06BFB2068C16941F00801C161EF
:101510002068C16921F00401C1612068C1692A699C
:101520001143C16113E02946206800F08FFB206859
:10153000C16941F40061C1612068C16921F4806121
:10154000C1612068C1692A6941EA0221C161383458
:1015500066700020207070BD10B50446002C03D0CA
:1015600094F8390010B107E0012010BD002084F884
:101570003800204600F00CF8022084F83900211DC4
:10158000206800F051FA012084F83900002010BDD5
:101590007047000010B504460122206800F088FA68
:1015A00008482168814202D00748814203D1486C33
:1015B00040F4004048642068016841F00101016086
:1015C000002010BD002C01400034014010B504463D
:1015D0000022206800F06CFA114841F211122168D3
:1015E0009310814202D00F48814209D1086A10420B
:1015F00006D1086A184203D1486C20F400404864C0
:101600002068016A114206D1016A194203D10168BA
:1016100021F001010160012084F83900002010BD93
:10162000002C01400034014070B50446002C04D069
:1016300094F83900002510B106E0012070BD84F84F
:101640003850204600F020F8022084F83900206845
:10165000C16821F40051C160204600F045FB2068BC
:10166000016921F4904101612068416921F02A015A
:1016700041612068C16841F40051C160E563012007
:1016800084F83900002070BD10B586B0006811499B
:1016900088421DD11048816941F48041816180698F
:1016A00000F4804001904FF40070029002200390FB
:1016B00003200590094C02A92046FEF7A7FD21153D
:1016C000029100210391049102A92046FEF79EFD9C
:1016D00006B010BD00380140001002400008014073
:1016E0002DE9F04104460D46984694F8390001284A
:1016F00004D0222802D00220BDE8F0819DB192B131
:1017000094F83800012810D0012684F838600027AA
:10171000E76394F83900222809D0122084F83900B0
:10172000A284E2842EE00120E6E70220E4E73220F2
:1017300084F83900F4E7401EE084A068B0F5805FCB
:1017400008D0434600228021204600F053FBA8B178
:101750000320D1E7434600228021204600F04AFBC7
:1017600008B10320C8E728882168C0F30800486052
:10177000206908B16D1C05E0AD1C03E0216815F877
:10178000010B4860E08C0028D5D14346002240215F
:10179000204600F02FFB08B10320ADE794F8390094
:1017A000322805D084F8396084F838700020A3E727
:1017B000222084F83900F7E7FEE7000010B5144650
:1017C00001280BD0022818D100211548FFF7FEFE92
:1017D000BDE8104000211248FFF7C9BC01290DD017
:1017E000022914D000210E48FFF7F0FE00210C481A
:1017F000FFF7BDFC0A480068446310BD002108489B
:10180000FFF7C8FE00210648FFF7B1FCF2E7002110
:101810000348FFF7DBFE00210148FFF796FCE9E7EC
:101820002000002000B585B01248816941F0040114
:101830008161816901F004010091816941F0080131
:101840008161806900F0080000904FF48070019081
:10185000022002900320049001A90748FEF7D6FC5D
:101860004FF40050019001A90448FEF7CFFC05B0E9
:1018700000BD00000010024000080140000C0140C3
:1018800010B594B01F481E49016001214160002439
:1018900084604FF46171C16004614461FFF789FCA9
:1018A0004FF48050109010A91648FFF7C0FC15485F
:1018B000FFF752FE0E940F940EA91248FFF71DFC7D
:1018C0000794089409940A940B944FF400500C90D8
:1018D0000D9407A90B48FFF7EFFB602000900A4822
:1018E00000880190029403940494059406940022C5
:1018F00069460448FFF7C3FDFFF794FF14B010BD1D
:10190000002C0140200000201800002082B00D486B
:10191000816941F004018161806900F00400019057
:101920000A48094901604FF4E131416000218160BA
:10193000C16001610C2242618161C16102B0FFF7A7
:1019400073BE00000010024000380140BC000020BF
:10195000FEE770470907090E002806DA00F00F00BD
:1019600000F1E02080F8141D704700F1E02080F8BD
:101970000014704710B5FEF757FDBDE81040FFF7A3
:1019800097BB30B58FB0012005900004069000246D
:10199000079402250C950D904FF4E0100E9005A8C9
:1019A000FEF7B8FF0F2000900195029468020390A3
:1019B000049402216846FEF7C3FDFEF71DFF4FF4B5
:1019C0007A71B0FBF1F0FFF75FFB0420FFF7F6FA46
:1019D00000221146501EFEF781FD0FB030BD000001
:1019E0000D48016841F00101016041680B4A114056
:1019F000416001680A4A11400160016821F48021B8
:101A00000160416821F4FE0141604FF41F018160D3
:101A10000449C00308607047001002400000FFF84E
:101A2000FFFFF6FE08ED00E02DE9F04102681B4DD6
:101A30001B4E1C4FDFF870C01C4B4FF08048A84273
:101A400009D0984207D0404505D0B04203D0B842F3
:101A500001D0604503D122F070044A682243A842B5
:101A600009D0984207D0404505D0B04203D0B842D3
:101A700001D0604503D122F44074CA682243026059
:101A80008A68C2620A688262A84201D0984201D183
:101A90000969016301214161BDE8F081002C014029
:101AA0000004004000080040000C004000340140E9
:101AB00010B501238B40046A9C430462036A8A4088
:101AC0001343036210BD10B504238B40046A9C438A
:101AD0000462036A8A401343036210BD10B5846830
:101AE00024F47F4442EA03220A432243826010BD69
:101AF000826822F070020A4342F007018160704759
:101B0000F0B5026A22F001020262026A4368846947
:101B100024F0700424F003050C682C4322F0020525
:101B20008A682A430E4E0F4FB04201D0B84205D109
:101B300022F00805CA682A4322F00402B04201D00C
:101B4000B84207D123F4807323F400734D691D4319
:101B50008B692B4343608461496841630262F0BD35
:101B6000002C014000340140F0B5026A22F010025E
:101B70000262036A4268846924F4E04424F44074F5
:101B80000D6844EA052423F020038D6843EA051319
:101B9000104D114EA84201D0B04206D123F080036F
:101BA000CF6843EA071323F04003A84201D0B042B4
:101BB00009D122F4806222F400624D6942EA850272
:101BC0008D6942EA850242608461496881630362EB
:101BD000F0BD0000002C014000340140F0B5026A65
:101BE00022F480720262026A4368C46924F07004BD
:101BF00024F003050C682C4322F400728D6842EA3D
:101C00000522104D104EA84201D0B04206D122F458
:101C10000062CF6842EA072222F48062A84201D023
:101C2000B04209D123F4805323F400534D6943EAB1
:101C300005138D6943EA05134360C4614968C163B4
:101C40000262F0BD002C01400034014030B5026A50
:101C500022F480520262046A4268C36923F4E043BA
:101C600023F440730D6843EA052324F400548D687F
:101C700044EA0534084DA84202D0084DA84204D1D8
:101C800022F480424D6942EA85124260C36149688C
:101C90000164046230BD0000002C014000340140AA
:101CA00010B5036A046A24F001040462846924F014
:101CB000F00444EA021423F00A020A438461026237
:101CC00010BD10B5036A23F0100303628469036A30
:101CD00024F4704444EA023223F0A00343EA0111E1
:101CE0008261016210BD00002DE9F04104462068C8
:101CF0000169E26821F4405111430161A168206942
:101D00000143606901432068C26841F20C639A4351
:101D10000A43C26020684169A26921F440711143FD
:101D200041613349206864253226884230D1FEF76C
:101D300093FD00EBC00101EB001061688900B0FB6E
:101D4000F1F0B0FBF5F7FEF787FD00EBC00101EB0A
:101D5000001061688900B0FBF1F8FEF77DFD00EB33
:101D6000C00101EB001061688900B0FBF1F0B0FB2D
:101D7000F5F06FF01801484308EB800006EB001007
:101D8000B0FBF5F0216867F31F108860BDE8F081B3
:101D9000FEF74CFD00EBC00101EB0010616889000B
:101DA000B0FBF1F0B0FBF5F7FEF740FD00EBC00132
:101DB00001EB001061688900B0FBF1F8FEF736FD19
:101DC00000EBC00101EB001061688900B0FBF1F08D
:101DD000B0FBF5F06FF01801484308EB800006EB0C
:101DE0000010B0FBF5F0216867F31F108860CDE7A5
:101DF000003801402DE9F04704460F4692461D4643
:101E0000FEF70CFB06464FF000084FF00109BAF14F
:101E1000000F23D04AE0681C20D025B1FEF7FEFA5F
:101E2000801BA8421AD92068C16821F08001C160D6
:101E30002068C16821F02001C1602068C16821F4D8
:101E40008071C1602068416921F00101416184F81D
:101E5000399084F838800320BDE8F0872068006856
:101E600037EA0000D7D126E0681C1FD025B1FEF765
:101E7000D5FA801BA84219D92068C16821F08001D9
:101E8000C1602068C16821F02001C1602068C1687C
:101E900021F48071C1602068416921F00101416134
:101EA00084F8399084F838800320D5E720680068EA
:101EB00037EA0000D8D00020CEE7FEE70FB4054B8C
:101EC00010B503A9044A029800F018F810BC5DF898
:101ED00014FB0000512000081C00002002E008C88C
:101EE000121F08C1002AFAD170477047002001E094
:101EF00001C1121F002AFBD1704700002DE9FF4FDE
:101F000089B09B460446002506E025280BD05A469A
:101F10000B999047641C6D1C20780028F5D10DB0FA
:101F20002846BDE8F08F0027B8460122474900E067
:101F3000074314F8013F203B02FA03F00842F7D1AF
:101F400020782E2819D114F8010F47F004072A2809
:101F50000ED06FF02F022078A0F1300109290CD8A3
:101F600008EB880102EB410100EB0108641CF2E779
:101F70000A98641C50F8048B0A9020780028CED070
:101F8000642808D0692806D075281ED05A460B99B7
:101F900090476D1C58E00A994FF00A0901C90A914F
:101FA000002802DA40422D2102E0390504D52B2118
:101FB0008DF82010012103E0F90704D02021F7E774
:101FC0008A4608AE0DE00021FAE70A994FF00A09A7
:101FD00001C90A91F7E74946FEF7C6F8303106F81D
:101FE000011D0028F7D1ADEB060000F120097807AC
:101FF00001D44FF00108C84502DDA8EB090000E05C
:1020000000208046002706E008A85A46C05D0B99CC
:1020100090476D1C7F1C5745F6DB04E030205A4684
:102020000B9990476D1CB8F10001A8F10108F5DC8F
:1020300005E016F8010B5A460B9990476D1CB9F153
:102040000001A9F10109F4DC641C65E7092801001D
:1020500013B54FF6FF73012269460248FFF740FBB4
:1020600000981CBDBC000020FEF7E6F9FFF789FCD4
:10207000FFF74CFCFFF704FC0948FFF7CBF80948D1
:10208000028801210846FFF799FBFEF797F818210F
:102090000548FFF7D3F9054901200870FEE7000065
:1020A00020000020180000205C0000200800002014
:1020B00000000000010203040102030406070809EE
:1020C000E02000080000002020000000DC1E0008C6
:1020D0000021000820000020E0100000EC1E000895
:1020E00000A24A0400000000000000000000000000
:1020F0000000000000000000C2010000000000001D
:0400000508000131BD
:00000001FF
