:020000040800F2
:10000000C0100020450100081B28000895270008A3
:1000100019280008ED080008CF2A00080000000099
:100020000000000000000000000000005701000870
:100030001D090008000000005B0100083D280008C1
:100040005F0100085F0100085F0100085F01000810
:100050005F0100085F0100085F0100085F01000800
:100060005F0100085F0100085F0100085F010008F0
:100070005F0100085F0100085F0100085F010008E0
:100080005F0100085F0100085F0100085F010008D0
:100090005F0100085F0100085F0100085F010008C0
:1000A0005F0100085F0100085F0100085F010008B0
:1000B0005F0100085F0100085F0100085F010008A0
:1000C0005F0100085F0100085F0100085F01000890
:1000D0005F0100085F0100085F0100085F01000880
:1000E0005F0100085F0100085F0100085F01000870
:1000F0005F0100085F0100085F0100085F01000860
:100100005F0100085F0100085F0100085F0100084F
:100110005F0100085F0100085F0100085F0100083F
:100120005F0100085F0100085F010008F108000896
:10013000DFF80CD000F00EFB00480047BD3300088C
:10014000C01000200648804706480047FEE7FEE74B
:10015000FEE7FEE7FEE7FEE7FEE7FEE7FEE7FEE777
:10016000B528000831010008202A04DB203A21FAD2
:1001700002F00021704721FA02F3D040C2F12002C0
:1001800091400843194670472DE9FE4F81EA030468
:1001900004F0004421F0004100944FF0000B23F0E4
:1001A000004350EA01045ED052EA03045BD0C3F37B
:1001B0000A54C1F30A552C44A4F2F3340194A0FB71
:1001C0000254C1F3130141F48011C3F3130343F448
:1001D000801301FB024400FB034E840A970A44EAA1
:1001E000815447EA8357A4FB076802958D0A05FBF3
:1001F00007854FEA932C04FB0C542705029D4FEA18
:10020000065847EA1637B5EB08056EEB070C870E64
:10021000920E47EA811742EA8312A7FB0201B6EB6E
:100220000B0164EB00042B0D43EA0C335E1844EB26
:100230001C50DA465146E7FB0201C5F313044FEAAE
:100240000B3343EA14534FEA0432019C43EA06039A
:10025000A4F10C040294009CCDE900B400F055F91F
:1002600003B0BDE8F08F00200146F9E72DE9F04D1D
:1002700081EA030404F0004B21F0004514464FF0DE
:10028000000A23F0004150EA050220D054EA01029E
:100290001DD0C5F30A570246C5F31303C1F313007B
:1002A000C1F30A5640F4801543F48013A7EB060807
:1002B000101BD64608F2FD3873EB050002D308F197
:1002C000010801E092185B41B8F1000F03DA002049
:1002D0000146BDE8F08D00204FF4801106468446AB
:1002E0000EE0171B73EB050705D3121B63EB050329
:1002F00006434CEA010C49084FEA300092185B4172
:1003000050EA0107EDD152EA030012D082EA04005C
:1003100083EA0501084305D0101BAB4106D2012238
:10032000002306E000224FF0004302E06FF00102DC
:1003300053101AEB06004CEB085110EB0A0041EB8E
:100340000B01BDE8F04D00F0D1B870B521F00043CD
:1003500003430CD0C1F30A550024D5EB040564EB2C
:100360000403D617AD1AB34102DB0020014670BD6D
:10037000201841EB025170BD0EB540F2334102919D
:100380000021CDE900110A460B4600F0BEF803B08B
:1003900000BD00F0004230F000400AD0C10D01F570
:1003A0006071C0F3160042EA0151C20840071143D0
:1003B000704700200146704701F0004330B421F03F
:1003C000004150EA010206D00A0DA2F56072C1F3A5
:1003D0001301002A02DC30BC00207047440F44EABD
:1003E000C104C100E01830BC00EBC25000F047B8B7
:1003F00030B50B46014600202022012409E021FAF5
:1004000002F59D4205D303FA02F5491B04FA02F5F1
:100410002844151EA2F10102F1DC30BD2DE9F05F88
:100420000546002092469B46884606468146402463
:100430001BE02846414647462246FFF795FE5346B5
:100440005A46C01A914110D311461846224600F070
:1004500093F92D1A67EB01084F462246012000212F
:1004600000F08AF917EB00094E41201EA4F10104A7
:10047000DFDC484631462A464346BDE8F09F002966
:10048000A8BF7047401C490008BF20F0010070471A
:1004900010B4B0FA80FC00FA0CF050EA010404BF7A
:1004A00010BC704749B1CCF1200421FA04F411FAD0
:1004B0000CF118BF012121430843A3EB0C01CB1D14
:1004C0004FEA00614FEA102042BF002010BC704785
:1004D00000EBC35010440029A4BF10BC7047401C5F
:1004E000490008BF20F0010010BC704710B5141E71
:1004F00073F1000408DA401C41F1000192185B41DD
:100500001A4301D120F0010010BD2DE9F04D9246B3
:100510009B4611B1B1FA81F202E0B0FA80F22032CA
:10052000904600F029F904460F4640EA0A0041EAE5
:100530000B0153465A46084313D0114653EA0100B3
:1005400019D0C8F140025046FFF70EFE05460E4690
:1005500050465946424600F00FF9084305D00120A5
:1005600004E020463946BDE8F08D0020054346EA08
:10057000E0762C4337430A986305E40AA0EB0800B1
:100580000022FD0A44EA47540A3002D50020014601
:10059000E9E7010510196941DDE9084500196941DC
:1005A000BDE8F04DA2E72DE9FE4F804681EA030049
:1005B000C00F0C46009021F0004123F00045B8EB3D
:1005C0000200A94105D24046214690461C460B46F2
:1005D000024623F00040104347D0270DC7F30A001E
:1005E000C3F30A510290401A019040286BDAC3F31A
:1005F000130040F4801B0098924620B10023D2EBF8
:10060000030A63EB0B0B01985946C0F140025046B8
:1006100000F0B2F806460D4650465946019A00F0E1
:10062000BAF810EB08006141002487EA115284EA0D
:10063000E7731A4340D0009A62B3019A012A4FEA45
:10064000075215DC001B61EB02014FF0004202EA89
:100650000752CDE90042001C41F5801132462B467D
:10066000FFF753FF03B0BDE8F08F40462146F9E79E
:10067000001B61EB0201001C41F5801300185B4177
:100680002018A2F5001747EB030140EAD570B61910
:100690006D4111E06D084FEA360645EAC0754FEA34
:1006A0000752001B61EB0201001C41F58011490853
:1006B0004FEA30000019514132462B4603B0BDE8E5
:1006C000F04FFFF713BF0098012240000023D0EB4A
:1006D000020263EBE073009821464FEAE074B8EB46
:1006E000000061EB0401E9E783F000435BE781F080
:1006F000004158E7C1F30A52C1F3130140F2FF333E
:1007000041F480119A4202DA00200146704740F21B
:1007100033439A42A2F2334202DC5242FFF724BD35
:1007200000F02AB830B5041E71F1000404DB4FF06C
:100730000044404264EB0101141E73F1000405DB28
:100740001C464FF00043524263EB0403994208BF3A
:10075000904230BD064C074D06E0E06840F00103D2
:1007600094E8070098471034AC42F6D3FFF7E4FC56
:10077000FC3400081C350008202A04DB203A00FA6B
:1007800002F1002070479140C2F1200320FA03F3E8
:10079000194390407047202A06DBCB17203A41FAD4
:1007A00002F043EAE07306E041FA02F3D040C2F1FE
:1007B0002002914008431946704770B504462068EE
:1007C0008168C943C9071BD1816821F0010181609B
:1007D00000F0F2FF05460EE000F0EEFF401B02289D
:1007E00009D9A06A40F01000A062E06A40F0010060
:1007F000E062012070BD20688068C043C007EBD074
:10080000002070BD10B50146486A826A12F0500F90
:1008100005D0006A026BBDE8104008461047816AA7
:1008200041F40071816201688968C1F3424107297E
:100830000CD1C16851B9816A21F480718162816AE9
:10084000C90403D4816A41F00101816200F0A8F972
:1008500010BD10B5406A816A41F040018162C16AF1
:1008600041F00401C16200F09DF910BD10B5406A6D
:1008700000F097F910BD0000F8B504460026009678
:1008800020688168C943C9072AD0816841F0010105
:100890008160144814490068B0FBF1F0009002E058
:1008A0000098401E009000980028F9D100F084FFC5
:1008B000054610E000F080FF401B02280BD9A06A1B
:1008C00040F01000A062E06A40F00100E06284F8AD
:1008D00024600120F8BD20688068C043C007E9D1CA
:1008E0000020F8BD0000002040420F00FEE700009D
:1008F000014800F0E1BA00008800002010B504684B
:1009000063604368102B04D0036899600068C2607C
:1009100010BD03689A600068C16010BDFEE700006A
:10092000F8B504460026009694F82400012809D062
:10093000012084F824002046FFF73FFF07463800D7
:1009400002D058E00220F8BDA06A20F4885040F0A0
:100950000200A062022000F0CDFF29490968B1FB26
:10096000F0F04000009002E00098401E00900098D7
:100970000028F9D12046FFF77FFF2068816841F009
:100980000801816000F018FF05460EE000F014FF3A
:10099000401B0A2809D9A06A20F0020040F010008C
:1009A000A06284F824600120F8BD206880680007F8
:1009B000ECD42068816841F00401816000F0FCFE05
:1009C00005460EE000F0F8FE401B0A2809D9A06A8F
:1009D00020F0020040F01000A06284F824600120A2
:1009E000F8BD206880684007ECD4A06A20F00200BF
:1009F00040F00100A06284F824603846F8BD000091
:100A0000000000202DE9F84100230024009490F814
:100A10002420012A22D0012280F824204A681F279E
:100A20004FF47876072A1CD20568D5F834C096FAB8
:100A3000A6F8521EB8FA88F802FB08F807FA08F779
:100A40002CEA070C96FAA6F6B6FA86F60F687243F9
:100A500097404CEA070CC5F834C037E00220BDE8E7
:100A6000F8810D2A19D20568D5F830C096FAA6F893
:100A7000D21FB8FA88F802FB08F807FA08F72CEA40
:100A8000070C96FAA6F6B6FA86F60F6872439740F8
:100A90004CEA070CC5F830C018E00568D5F82CC042
:100AA00096FAA6F80D3AB8FA88F802FB08F807FAA1
:100AB00008F72CEA070C96FAA6F6B6FA86F60F683F
:100AC000724397404CEA070CC5F82CC00A683826D8
:100AD00007270A2A19D30568D5F80CC096FAA6F894
:100AE0000A3AB8FA88F802FB08F807FA08F72CEA7D
:100AF000070C96FAA6F6B6FA86F68F687243974008
:100B00004CEA070CC5F80CC017E00568D5F810C012
:100B100096FAA6F8B8FA88F802FB08F807FA08F778
:100B20002CEA070C96FAA6F6B6FA86F68F68724398
:100B300097404CEA070CC5F810C00A68102A01D08B
:100B4000112A23D1134D0268AA421AD195682D02A9
:100B50001CD4956845F4000595600968102915D1E5
:100B60000D490E4A0968B1FBF2F101EB8101490020
:100B7000009102E00099491E009100990029F9D1E5
:100B800004E0816A41F020018162012380F8244061
:100B9000184664E7002401400000002040420F0096
:100BA00070477047704700002DE9F041044600256A
:100BB000002C03D0A06A002618B108E00120BDE88F
:100BC000F081E66284F82460204600F093F8204625
:100BD000FFF7F3FDA16A01F01001014305D0A06AFF
:100BE00040F01000A0620120E9E7A16A21F48851D9
:100BF00041F00201A1623C4923688B4206D1E269BF
:100C0000B2F5402F03D14FF4002200E0E269022147
:100C100091FAA1F1E768B1FA81F107FA01F10A430B
:100C200061680A43A1684FF4807C614508D00129BE
:100C300006D00021D4F81480B8F1010F02D00AE0E8
:100C40006146F7E7C7B1A76A47F02007A762E76ADE
:100C500047F00107E7625F6827F469470F435F6069
:100C600021688B68214F3B4013438B60A16861452D
:100C700010D001290ED016E0A7694FF4604898FA09
:100C8000A8F87F1EB8FA88F807FA08F70F4347F468
:100C90000061E0E725694FF4700191FAA1F16D1E42
:100CA000B1FA81F18D402168CB6A23F470032B43A4
:100CB000CB62216889680E4B1940914207D1E662E8
:100CC000A16A21F0020141F00101A16277E7A06A67
:100CD00020F0020040F01000A062E06A40F0010045
:100CE000E06201206BE70000003C0140FDF7E1FFFE
:100CF000FE0E1FFF30B585B00546224928688842A0
:100D00003DD12149886940F400408861886900F438
:100D100000400090886940F010008861886900F008
:100D200010000090486940F002004861486900F0F6
:100D300002000090012001900320029001A91348B5
:100D400000F032FC134C1248206000206060A0606C
:100D50008020E06040002061800060612020A06170
:100D60000002E061204600F0BFFB2C6265620022B9
:100D700011463B2000F08CFD3B2000F07DFD05B0CE
:100D800030BD0000003C0140001002400010014056
:100D900058040240880000202DE9F04704468946A7
:100DA0009246DFF8008120683F4F08F10406404575
:100DB00001D0B84207D1306810F4702F03D001255C
:100DC0002846BDE8F08794F8240001280BD00120C4
:100DD00084F824002046FFF74FFD0546002125B189
:100DE00084F82410ECE70220EBE7A06A40F60162E9
:100DF000904340F48070A0622068B84218D13268F5
:100E000012F4702F14D0A26A42F48012A2623068E9
:100E1000400505D5A06A20F4005040F48050A0623F
:100E2000A06AC00412D5E06A20F00600E0620EE07D
:100E3000A26A22F48012A26240684005F0D5A06A3E
:100E400020F4005040F48050A062E9E7E16284F8A9
:100E50002410216A15488862216A1548C862216AEF
:100E60001448086321686FF00200086020688168F8
:100E700041F480718160216853464C314A46206AB2
:100E800000F05BFB20688168C1F34241072904D070
:100E9000816841F48011816092E7816841F4A0018A
:100EA00081608DE70024014000280140050800080A
:100EB0006D080008530800082DE9F05F0446F94A60
:100EC000F84DF84EF74FD114DFF8D883DFF8D493FC
:100ED000DFF8D0A320680B02783D643E503FDFF876
:100EE000C8B34FF4004EA8F13C08A9F12809AAF1B3
:100EF000140A904236D9EC4A083AD2F800C0A84207
:100F000001D108222BE0B04201D1802227E0B84273
:100F100001D10A4623E0404501D172461FE0484511
:100F200001D11A461BE0504502D14FF4000216E0F1
:100F3000584501D1082212E0DB4A1432904201D117
:100F400080220CE0D84A2832904201D10A4606E0BD
:100F5000D54A3C32904201D1724600E01A460CEA72
:100F6000020C3AE0CF4A803AD2F800C0A84201D140
:100F7000082230E0B04201D180222CE0B84201D1F9
:100F80000A4628E0404501D1724624E0484501D197
:100F90001A4620E0504502D14FF400021BE0C14A3E
:100FA000904201D1020516E0584501D1082212E015
:100FB000BD4A1432904201D180220CE0BA4A283254
:100FC000904201D10A4606E0B74A3C32904201D134
:100FD000724600E01A460CEA020CBCF1000F7FD00A
:100FE0000268D24312077BD4026822F00802026032
:100FF000AC4A206890422FD9A84201D1082127E0AD
:10100000B04201D1802123E0B84221D0404501D136
:1010100071461DE0484501D1194619E0504502D1FD
:101020004FF4000114E0584501D1082110E09E4A18
:101030001432904201D180210AE09B4A283290422A
:1010400006D099493C31884201D1714600E01946E9
:101050009548001F016033E0A84201D108212CE02F
:10106000B04201D1802128E0B84226D0404501D1CC
:10107000714622E0484501D119461EE0504502D193
:101080004FF4000119E0904202D14FF0006114E0EA
:10109000584501D1082110E0834A1432904201D111
:1010A00080210AE0804A2832904206D07E493C31B5
:1010B000884201D1714600E019467A488038416083
:1010C000606B40F001006063042084F82100002080
:1010D00084F82000216B09B1204600E000E0884739
:1010E000704A206811150B014FF4802E904236D9BA
:1010F0006D4A083AD2F800C0A84201D104222BE080
:10110000B04201D1402227E0B84201D10A4623E093
:10111000404501D11A461FE0484501D172461BE007
:10112000504502D14FF4800216E0584501D1042207
:1011300012E05D4A1432904201D140220CE05A4A3A
:101140002832904201D10A4606E0574A3C3290428A
:1011500001D11A4600E072460CEA020C3AE0514A0C
:10116000803AD2F800C0A84201D1042230E0B04257
:1011700001D140222CE0B84201D10A4628E0404586
:1011800001D11A4624E0484501D1724620E050457D
:1011900002D14FF480021BE0424A904201D1C204C6
:1011A00016E0584501D1042212E03F4A1432904221
:1011B00001D140220CE03C4A2832904201D10A463B
:1011C00006E0394A3C32904201D11A4600E07246AC
:1011D0000CEA020CBCF1000F7CD00268D24352072B
:1011E00078D40268920603D4026822F004020260F6
:1011F0002C4A206890422FD9A84201D1042127E02F
:10120000B04201D1402123E0B84221D0404501D174
:1012100019461DE0484501D1714619E0504502D1FB
:101220004FF4800114E0584501D1042110E01E4A1A
:101230001432904201D140210AE01B4A28329042E8
:1012400006D019493C31884201D1194600E0714667
:101250001548001F016036E0A84201D1042130E0AA
:10126000B04201D140212CE0B8422AD0404501D102
:10127000194626E0484501D1714622E0504502D189
:101280004FF480011DE0904202D14FF0806118E0E0
:10129000584501D1042114E0034A1432904206D18A
:1012A00040210EE0800002400804024012E08C4A17
:1012B000904206D08A491431884201D1194600E093
:1012C000714688484160112084F82100E16A09B123
:1012D00020468847DFF80CC24FF4007120680CF1FB
:1012E000800C0B01604537D97D4A303AD2F800E0D6
:1012F000A84201D102222CE0B04201D1202228E0F4
:10130000B84201D10A4624E0404501D11A4620E006
:10131000484502D14FF400321BE0504502D14FF452
:10132000001216E0584501D1022212E06C4A143A2C
:10133000904201D120220CE0694A904201D10A4634
:1013400007E0674A1432904201D11A4601E04FF497
:1013500000320EEA020E3AE0624AD2F800E0A842F9
:1013600001D1022231E0B04201D120222DE0B84269
:1013700001D10A4629E0404501D11A4625E04845F9
:1013800002D14FF4003220E0504502D14FF4001258
:101390001BE0604502D14FF0007216E0584501D1C4
:1013A000022212E04E4A143A904201D120220CE06F
:1013B0004B4A904201D10A4607E0494A1432904212
:1013C00001D11A4601E04FF400320EEA020EBEF1DE
:1013D000000F6ED00268D24392077ED40268920654
:1013E00003D4026822F0020202602068604530D90E
:1013F000A84201D1022128E0B04201D1202124E0FD
:10140000B84222D0404501D119461EE0484502D1DC
:101410004FF4003119E0504502D14FF4001114E0AF
:10142000584501D1022110E02D4A143A904201D1D1
:1014300020210AE02A4A904207D0294914318842E3
:1014400001D1194601E04FF4003125482C380160E4
:1014500034E0A84201D102212EE0B04201D1202186
:101460002AE0B84228D0404501D1194624E0484539
:1014700002D14FF400311FE0504502D14FF400116A
:101480001AE0604502D14FF0007115E0584501D1D6
:10149000022111E0124A143A904201D120210BE0BE
:1014A0000F4A904208D00E491431884202D11946A1
:1014B00002E012E04FF400310A484160606B606363
:1014C000012084F82100002084F82000A16A00296E
:1014D00003D02046BDE8F05F0847BDE8F09F00005C
:1014E000300402400000024070B5002804D090F89B
:1014F0002110002411B103E0012070BD80F82040CC
:10150000022180F8211001680A6843F6F0739A43BB
:10151000D0E901352B43D0E9035635432B434569C8
:101520002B4385692B43C5692B4313430B604463ED
:10153000012180F82110002070BD70B5044694F898
:101540002000012823D0012084F82000022084F804
:1015500021002068056825F0010505602046FFF799
:10156000CDF92068016841F002010160206801683E
:1015700041F0040101602068016841F00801016048
:101580002068016841F001010160002070BD022067
:1015900070BD31B500F010F9044600F00DF9009966
:1015A000001B8842F9D338BD2DE9F84F00230024F1
:1015B000DFF8DC914FF00F0809F1040A0AF1040B7F
:1015C0000BF1040E0127A7400A683A40BA4275D1D0
:1015D000DFF8C0C14D68A5EB0C0665452BD00DDCCE
:1015E000032D34D005DC35B3012D19D0022D2FD1B8
:1015F0001BE0112D16D0122D2AD119E0B6F5881F47
:1016000019D006DCB6F5803F15D0B6F5801F1FD186
:1016100011E0B6F5001F0ED0B6F5041F18D10AE090
:10162000CB6815E0CB681B1D12E0CB6808330FE0D8
:10163000CB680C330CE08B6823B1012B04D008235A
:10164000476105E0042303E00823076100E000236D
:10165000FF2A01D8054601E000F1040502D84FEA4F
:10166000840603E0A4F108064FEA86062F6808FA0C
:1016700006FC27EA0C0703FA06F647EA06072F607E
:101680004D68ED007ED5444DAE6946F00106AE6171
:10169000AD6905F001050095404D24F0030677196A
:1016A000BE68A5072D0F08FA05FC26EA0C06DFF830
:1016B000F0C0604503D14FF0000C25E062E0DFF898
:1016C000E4C0604502D14FF0010C1DE0DFF8D8C046
:1016D000604502D14FF0020C16E0DFF8D0C0604543
:1016E00002D14FF0030C0FE0DFF8C4C0604502D117
:1016F0004FF0040C08E0DFF8BCC0604502D14FF0A9
:10170000050C01E04FF0060C0CFA05FC4CEA060C47
:10171000C7F808C04D68ED0305D5D9F8005015434A
:10172000C9F8005004E0D9F800509543C9F80050BA
:101730004D68AD0305D5DAF800501543CAF80050DE
:1017400004E0DAF800509543CAF800504D68ED0205
:1017500005D5DBF800501543CBF8005004E0DBF86A
:1017600000509543CBF800504D68AD0205D5DEF82A
:1017700000501543CEF8005004E0DEF800509543C9
:10178000CEF80050641C102CFFF41CAFBDE8F88F9D
:101790000004014000001110001002400000014050
:1017A00000080140000C01400010014000140140FD
:1017B00000180140001C014001480068704700000B
:1017C0000400002002480168491C016070470000C5
:1017D0000400002010B50748016841F010010160C5
:1017E000032000F075F8002000F006F800F016F86D
:1017F000002010BD0020024010B5044600F0F8FAA9
:101800004FF47A72B0FBF2F000F0E3FE00222146C2
:10181000501E00F03DF8002010BD000008B515482E
:10182000816941F001018161806900F0010000904F
:10183000052000F04DF8002211466FF00B0000F07B
:1018400027F8002211466FF00A0000F021F800226C
:1018500011466FF0090000F01BF800221146101F1E
:1018600000F016F80022BDE808401146501E00F0B6
:101870000FB800000010024000F01F02012191404B
:101880004009800000F1E020C0F80011704700001E
:10189000F0B40D460D4B1B68C3F30223C3F10704DC
:1018A000042C00D90424191D072901D2002300E0CB
:1018B000DB1E012606FA04F1491E294099409E408C
:1018C000761E16403143F0BC00F0A8BF0CED00E0DE
:1018D00000F00701054A10684FF6FF03184040EA80
:1018E0000120034908431060704700000CED00E040
:1018F0000000FA0510B586B001463CA090E81C0037
:10190000C068CDE90334029205903CA000680190C4
:1019100000203B4C042946D015DC01294DD002297A
:101920000FD100F095FA61684FF4804292FAA2F26A
:1019300001F44041B2FA82F2D140491C4900B0FBA7
:10194000F1F006B010BD082932D01029F9D1616834
:101950002268D201F5D54FF4701292FAA2F201F486
:101960007010B2FA82F2D04002AA105CC90310D5FE
:1019700061684FF4003292FAA2F201F40031B2FA37
:1019800082F2D14001AA515C1E4AB2FBF1F14843F8
:1019900001E01D49484361684902D2D44000032157
:1019A000B0FBF1F0CDE706B0BDE8104000F066BA3C
:1019B00006B0BDE8104000F061BA216AC1F301220F
:1019C000012A03D1890701D5D003BAE7022A05D13C
:1019D000616A890702D549F64040B2E7032AB0D1CF
:1019E00021688903ADD54FF22440AAE7020304051C
:1019F000060708090A0B0C0D0E0F1010010200005B
:101A00000010024000127A0000093D002DE9F84361
:101A10000446464F2078C00774D0F86940F08050E3
:101A2000F861F86900F080500090414D286840F45A
:101A300080702860FFF7C0FE064607E0FFF7BCFE97
:101A4000801B642802D90320BDE8F8832868C005FC
:101A5000F4D5386AA18800F4407001F440718842DE
:101A600050D0386A20F440704FF4803292FAA2F1DC
:101A7000B1FA81F18B002F494FF001080B44C3F8F4
:101A8000008492FAA2F2B2FA82F201EB8201002300
:101A9000C1F80034386280072ED5FFF78DFE064668
:101AA00041F28839022506E0FFF786FE801B484593
:101AB00001D90320C8E795FAA5F0B0FA80F040F00C
:101AC00040014046B8EB511F01D139680BE095FA4F
:101AD000A5F1B1FA81F141F04001B5EB511F01D1FF
:101AE000396A00E0796A95FAA5F2B2FA82F202F058
:101AF0001F0290400142D7D0386A616820F44070DC
:101B0000084338622078800705D57868A16820F4FA
:101B10004040084378602078C00605D57868616940
:101B200020F480000843786000208DE70010024018
:101B300000700040000042422DE9F04704460F4685
:101B4000DFF8A492D9F80000A84D00F007010120A9
:101B5000430446064FF0020C41F28838B9426FD276
:101B6000D9F8001021F007013943C9F80010D9F85D
:101B7000001001F00701B94201D0BDE8F0872178DB
:101B8000890705D56968A26821F0F00111436960F1
:101B90002178C90761D0616801290BD002291FD0C3
:101BA0009CFAACF2B2FA82F242F0200252092DD035
:101BB0002A682CE093FAA3F2B2FA82F242F02002F1
:101BC000520901D02A6800E06A6A93FAA3F3B3FAD3
:101BD00083F303F01F039840024223D10120CCE796
:101BE00096FAA6F2B2FA82F242F02002520901D02D
:101BF0002A6800E06A6A96FAA6F3B3FA83F303F060
:101C00001F03984002420DD10120B6E76A6A9CFA90
:101C1000ACF3B3FA83F303F01F039840024201D1FF
:101C20000120AAE7686820F0030008436860FFF716
:101C3000C3FD0646606801280AD0022815D021E0BD
:101C400025E0FFF7B9FD801B404501D9032094E74B
:101C50006868C0F381000128F3D1ADE0FFF7ACFD67
:101C6000801B404501D9032087E76868C0F38100E5
:101C70000228F3D1A0E0FFF79FFD801B404501D96A
:101C800003207AE7686810F00C0FF4D194E0217813
:101C9000890705D56968A26821F0F00111436960E0
:101CA0002178C90779D0616801290BD002291FD09A
:101CB0009CFAACF2B2FA82F242F0200252092DD024
:101CC0002A682CE093FAA3F2B2FA82F242F02002E0
:101CD000520901D02A6800E06A6A93FAA3F3B3FAC2
:101CE00083F303F01F039840024223D1012044E70D
:101CF00096FAA6F2B2FA82F242F02002520901D01C
:101D00002A6800E06A6A96FAA6F3B3FA83F303F04E
:101D10001F03984002420DD101202EE76A6A9CFA07
:101D2000ACF3B3FA83F303F01F039840024201D1EE
:101D3000012022E7686820F0030008436860FFF78D
:101D40003BFD06466068012809D0022814D020E037
:101D5000FFF732FD801B404501D903200DE768687D
:101D6000C0F381000128F3D117E0FFF725FD801BA8
:101D7000404501D9032000E76868C0F381000228CC
:101D8000F3D10AE0FFF718FD801B404501D903207D
:101D9000F3E6686810F00C0FF4D1D9F8000020F0D9
:101DA00007003843C9F80000D9F8000000F0070028
:101DB000B84201D00120E0E62078400705D56868E8
:101DC000E16820F4E060084368602078000706D5E9
:101DD0006868216920F4605040EAC1006860002012
:101DE000FFF70AFD0020C8E6002002400010024074
:101DF00000B500F043F808494968F02292FAA2F2CF
:101E000001F0F001B2FA82F2D140044A515CC840BC
:101E10000349086000BD000000100240EC340008D7
:101E20000000002000B5FFF7E3FF074949684FF4C1
:101E3000E06292FAA2F201F4E061B2FA82F2D140D9
:101E4000024A515CC84000BD00100240EC3400085A
:101E500000B5FFF7CDFF074949684FF4605292FA89
:101E6000A2F201F46051B2FA82F2D140024A515C0E
:101E7000C84000BD00100240EC34000810B585B029
:101E80001AA0D0E90031D0E90220CDE90131CDE935
:101E900003201AA000680090194B5968194801F0F6
:101EA0000C02042A1DD0082A1BD14FF4701494FA96
:101EB000A4F401F47012B4FA84F4E24001ACA25C20
:101EC000C90310D559684FF4003393FAA3F301F412
:101ED0000031B3FA83F3D9401DF80110B0FBF1F0E3
:101EE000504305B010BD08485043FAE7020304050B
:101EF000060708090A0B0C0D0E0F10100102000056
:101F00000010024000127A0000093D002DE9F84F50
:101F10000446F94D20784FF00106C00775D0686877
:101F20007704C0F38100012807D06868C0F38100FE
:101F300002281DD16868C0031AD597FAA7F0B0FA35
:101F400080F040F02000400901D0286800E0686A75
:101F500097FAA7F1B1FA81F101F01F0206FA02F136
:101F6000084252D0606800284FD10120BDE8F88FA8
:101F7000286820F480302860286820F480202860B9
:101F8000FFF71AFC804607E0FFF716FCA0EB0800FD
:101F9000642801D90320E9E797FAA7F0B0FA80F0A6
:101FA00040F02000400901D0286800E0686A97FAF4
:101FB000A7F1B1FA81F101F01F0106FA01F108421F
:101FC000E2D16068B0F5803F11D0A8B1B0F5A02F84
:101FD0001CD0286820F480302860286820F48020F5
:101FE00028606068C8B3FFF7E7FB80461FE02868F9
:101FF00040F480302860F4E7286820F480302860BE
:10200000286820F480202860EBE748E0286840F446
:1020100080202860286840F480302860E1E7FFF7DE
:10202000CBFBA0EB0800642801D903209EE797FAB8
:10203000A7F0B0FA80F040F02000400901D02868F5
:1020400000E0686A97FAA7F1B1FA81F101F01F0187
:1020500006FA01F10842E2D021E0FFE7FFF7ACFB0E
:10206000804607E0FFF7A8FBA0EB0800642801D931
:1020700003207BE797FAA7F0B0FA80F040F0200049
:10208000400901D0286800E0686A97FAA7F1B1FA20
:1020900081F101F01F0106FA01F10842E2D1207836
:1020A000DFF8588280074FF0000B4FF0020732D55F
:1020B00068684FF0F80A10F00C0F07D06868C0F39A
:1020C0008100022828D16868C00325D497FAA7F0B8
:1020D000B0FA80F040F02000400901D0286800E00C
:1020E000686A97FAA7F1B1FA81F101F01F0106FAC7
:1020F00001F1084204D02069012801D0012035E710
:1021000028689AFAAAF26169B2FA82F220F0F8001D
:102110009140084328605CE0206990B396FAA6F0ED
:10212000B0FA80F048F82060FFF746FB814607E0F0
:10213000FFF742FBA0EB0900022801D9032015E7B5
:1021400097FAA7F0B0FA80F040F02000400901D0E3
:10215000286800E0686A97FAA7F1B1FA81F101F006
:102160001F0106FA01F10842E2D028689AFAAAF2A1
:102170006169B2FA82F220F0F800914008432860C9
:1021800027E0FFE796FAA6F0B0FA80F048F820B012
:10219000FFF712FB814607E0FFF70EFBA0EB0900FB
:1021A000022801D90320E1E697FAA7F0B0FA80F0FF
:1021B00040F02000400901D0286800E0686A97FAE2
:1021C000A7F1B1FA81F101F01F0106FA01F108420D
:1021D000E2D12078000770D5A069C0B396FAA6F0C6
:1021E000B0FA80F008EB8000C0F88064FFF7E4FAF2
:1021F000814607E0FFF7E0FAA0EB0900022801D9C9
:102200000320B3E697FAA7F0B0FA80F040F0600040
:10221000B6EB501F01D128680BE097FAA7F0B0FA8F
:1022200080F040F06000B7EB501F01D1286A00E059
:10223000686A97FAA7F1B1FA81F101F01F0206FA74
:1022400002F10842D6D00120FFF7A3F935E0FFE7FD
:1022500096FAA6F0B0FA80F008EB8000C0F880B4DF
:10226000FFF7AAFA814607E0FFF7A6FAA0EB0900FC
:10227000022801D9032079E697FAA7F0B0FA80F096
:1022800040F06000B6EB501F01D128680BE097FAD0
:10229000A7F0B0FA80F040F06000B7EB501F01D11A
:1022A000286A00E0686A97FAA7F1B1FA81F101F0B3
:1022B0001F0206FA02F10842D6D12078400770D5F5
:1022C000E86940F08050E861E86900F080500090D3
:1022D000DFF82CA0DAF8000040F48070CAF80000A3
:1022E000FFF76AFA81460DE0FFF766FAA0EB0900F6
:1022F000642807D9032039E600100240000042425A
:1023000000700040DAF80000C005EDD5286A20F022
:1023100001002862286A20F004002862FFF74CFAC6
:10232000814641F2883A07E0FFF746FAA0EB090040
:10233000504501D9032019E697FAA7F0B0FA80F0CA
:1023400040F04000B6EB501F01D128680BE097FA2F
:10235000A7F0B0FA80F040F04000B7EB501F01D179
:10236000286A00E0686A97FAA7F1B1FA81F101F0F2
:102370001F0106FA01F10842D6D1E068012811D008
:10238000A8B105281CD0286A20F001002862286A1C
:1023900020F004002862E068C8B3FFF70DFA814618
:1023A0001FE06EE0286A40F001002862F3E7286A27
:1023B00020F001002862286A20F004002862EAE781
:1023C000286A40F004002862286A40F00100286270
:1023D000E1E7FFF7F1F9A0EB0900504501D903202F
:1023E000C4E597FAA7F0B0FA80F040F04000B6EBF1
:1023F000501F01D128680CE097FAA7F0B0FA80F0DE
:1024000040F04000B7EB501F02D1286A01E00BE01A
:10241000686A97FAA7F1B1FA81F101F01F0206FA92
:1024200002F10842D5D02CE0FFF7C6F9814607E05B
:10243000FFF7C2F9A0EB0900504501D9032095E54B
:1024400097FAA7F0B0FA80F040F04000B6EB501FCA
:1024500001D128680BE097FAA7F0B0FA80F040F0BD
:102460004000B7EB501F01D1286A00E0686A97FA74
:10247000A7F1B1FA81F101F01F0206FA02F1084258
:10248000D6D1E06980B36968C1F38101022970D0B7
:102490004FF080794FF00077022809D099FAA9F01F
:1024A000B0FA80F048F820B0FFF786F9044668E0FB
:1024B00099FAA9F0B0FA80F048F820B0FFF77CF95B
:1024C000824607E0FFF778F9A0EB0A00022801D95D
:1024D00003204BE597FAA7F0B0FA80F040F0200017
:1024E000400902D0286801E060E0686A97FAA7F125
:1024F000B1FA81F101F01F0106FA01F10842E1D1C0
:10250000206AB0F5803F05D16868A16820F40030EA
:1025100008436860D4E908010843696821F474112C
:102520000843686099FAA9F0B0FA80F048F8206092
:10253000FFF742F9044606E0FFF73EF9001B0228C8
:1025400001D9032012E597FAA7F0B0FA80F040F025
:102550002000400901D0296800E0696A97FAA7F0D5
:10256000B0FA80F000F01F0006FA00F00142E3D05C
:102570001CE01DE0FFF720F9001B022801D9032011
:10258000F4E497FAA7F0B0FA80F040F02000400998
:1025900001D0296800E0696A97FAA7F0B0FA80F0E4
:1025A00000F01F0006FA00F00142E3D10020DDE454
:1025B0000120DBE44FF0E021042804D0086920F07A
:1025C000040008617047086940F004000861704722
:1025D000704710B5401EB0F1807F01D3012010BDBF
:1025E0004FF0E02460610F21601700F017F9002020
:1025F000A06107202061002010BD10B5FFF7E8FFA3
:1026000010BD70B50446002C04D094F839000025A4
:1026100010B106E0012070BD84F83850204600F06B
:1026200021F8022084F839002068C16821F40051A3
:10263000C160204600F062F92068016921F49041F0
:1026400001612068416921F02A0141612068C16867
:1026500041F40051C160E563012084F83900002095
:1026600070BD000010B586B00068114988421DD1C8
:102670001048816941F480418161806900F48040A3
:1026800001904FF400700290022003900320059007
:10269000094C02A92046FEF787FF2115029100216F
:1026A0000391049102A92046FEF77EFF06B010BDFB
:1026B0000038014000100240000801402DE9F041BF
:1026C00004460D46984694F83900012804D0222883
:1026D00002D00220BDE8F0819DB192B194F838009B
:1026E000012810D0012684F838600027E76394F8A9
:1026F0003900222809D0122084F83900A284E2840B
:102700002EE00120E6E70220E4E7322084F83900D9
:10271000F4E7401EE084A068B0F5805F08D043462F
:1027200000228021204600F06FF9A8B10320D1E7F4
:10273000434600228021204600F066F908B10320BC
:10274000C8E728882168C0F308004860206908B1FC
:102750006D1C05E0AD1C03E0216815F8010B486015
:10276000E08C0028D5D1434600224021204600F0CD
:102770004BF908B10320ADE794F83900322805D0B1
:1027800084F8396084F838700020A3E7222084F8A8
:102790003900F7E7FEE700003EB50D480B49016040
:1027A000002181600124C46041614FF46022C26154
:1027B00041600461FEF7F8F90A20009001940520B9
:1027C000029069460248FEF71DF93EBD003C0140FB
:1027D0005800002082B00D48816941F004018161F8
:1027E000806900F0040001900A48094901604FF433
:1027F000E131416000218160C16001610C224261D0
:102800008161C16102B0FFF7FCBE00000010024010
:102810000038014018000020FEE770470907090E44
:10282000002806DA00F00F0000F1E02080F8141D07
:10283000704700F1E02080F80014704710B5FEF7F3
:10284000C1FFBDE81040FFF7D8BE30B595B00120FC
:102850000B9000040C9000240D9402251295139007
:102860004FF4E01014900BA8FFF750FB0F200690D8
:1028700007950894680209900A94022106A8FFF7B8
:102880005BF90095A80302906846FFF7BFF8FFF7D1
:10289000AFFA4FF47A71B0FBF1F0FFF79AFE042023
:1028A000FFF788FE00221146501EFEF7F1FF15B01B
:1028B00030BD00000D48016841F001010160416830
:1028C0000B4A1140416001680A4A114001600168E9
:1028D00021F480210160416821F4FE0141604FF440
:1028E0001F0181600449C003086070470010024066
:1028F0000000FFF8FFFFF6FE08ED00E02DE9F041D3
:10290000044620680169E26821F4405111430161E5
:10291000A16820690143606901432068C26841F2EF
:102920000C639A430A43C26020684169A26921F49A
:102930004071114341613349206864253226884241
:1029400030D1FFF785FA00EBC00101EB00106168A0
:102950008900B0FBF1F0B0FBF5F7FFF779FA00EB77
:10296000C00101EB001061688900B0FBF1F8FFF7CE
:102970006FFA00EBC00101EB001061688900B0FB49
:10298000F1F0B0FBF5F06FF01801484308EB800060
:1029900006EB0010B0FBF5F0216867F31F108860AC
:1029A000BDE8F081FFF73EFA00EBC00101EB00103B
:1029B00061688900B0FBF1F0B0FBF5F7FFF732FA80
:1029C00000EBC00101EB001061688900B0FBF1F879
:1029D000FFF728FA00EBC00101EB001061688900E5
:1029E000B0FBF1F0B0FBF5F06FF01801484308EBD5
:1029F000800006EB0010B0FBF5F0216867F31F10B4
:102A00008860CDE7003801402DE9F04704460F46C5
:102A100092461D46FEF7D0FE06464FF000084FF0E6
:102A20000109BAF1000F23D04AE0681C20D025B17B
:102A3000FEF7C2FE801BA8421AD92068C16821F0A7
:102A40008001C1602068C16821F02001C160206858
:102A5000C16821F48071C1602068416921F00101E1
:102A6000416184F8399084F838800320BDE8F0870C
:102A70002068006837EA0000D7D126E0681C1FD024
:102A800025B1FEF799FE801BA84219D92068C168BC
:102A900021F08001C1602068C16821F02001C1607F
:102AA0002068C16821F48071C1602068416921F00B
:102AB0000101416184F8399084F838800320D5E71A
:102AC0002068006837EA0000D8D00020CEE7FEE793
:102AD0000FB4054B10B503A9044A029800F0CAF8D8
:102AE00010BC5DF814FB0000A533000814000020A2
:102AF00002E008C8121F08C1002AFAD170477047C7
:102B0000002001E001C1121F002AFBD17047000024
:102B10002DE9FF5FDDE90220010DDDF838B0024349
:102B200018D044F61050A1F2FF3141430D140F9814
:102B3000012820D0A5EB0B00401C5FEA000A4FF0F3
:102B40000004474EDFF81C91A046504616D5CAF146
:102B5000000728E00F98012443A2012808D0002193
:102B600000980F9BC0E90021C0E90243BDE8FF9F28
:102B70006FEA0B01F4E7CBF10000DEE7074612E055
:102B8000F80707D02246334640464946FDF7FCFA8F
:102B9000804689462246334610461946FDF7F4FA28
:102BA00004460E467F10002FEAD1DDE90201BAF19A
:102BB000000F42464B4602DAFDF7E6FA01E0FDF768
:102BC00055FB04460E460022284BFDF7ABFD03D80B
:102BD0004FF0FF30014607E00022254B20463146EA
:102BE000FDF7E1FCFDF786FD102409E0002C0ADB6F
:102BF0000A220023FDF712FC019B30321A55641E95
:102C000050EA0102F2D1641C019AC4F11103144488
:102C10000F9A012A03D0012208430DD10AE008438C
:102C200004D000204FF0110B0F9080E7A3EB0B05B1
:102C30006D1E0DE05B4504DD4FF0000205F101055E
:102C400004E003DA4FF00002A5F10105002AECD000
:102C500000980F99C0E90231C0E9004586E70000FD
:102C6000000024400000F03F300000000000F0436E
:102C70000000E03F2DE9FF4F95B09B468946064690
:102C800000250FE2252877D100242746F84A0121A4
:102C9000059400E0044316F8013F203B01FA03F0DD
:102CA0001042F7D130782A2811D06FF02F033078F6
:102CB000A0F13002092A16D8059A44F0020402EB6A
:102CC000820203EB42021044761C0590EFE759F8AC
:102CD000042B0592002A03DA504244F40054059074
:102CE00044F00204761C30782E2816D116F8010F15
:102CF00044F004042A280DD06FF02F023078A0F1A0
:102D00003003092B09D807EB870302EB4303C718ED
:102D1000761CF3E759F8047B761C30786C280FD0CA
:102D200006DC4C2817D068280DD06A2814D104E09E
:102D3000742810D07A280FD10DE044F400140AE072
:102D400044F4801401E044F440147278824202D1C9
:102D500004F58014761C761C307866280BD013DCC2
:102D6000582877D009DC002875D04528F6D04628A9
:102D7000F4D047281AD19DE118E0632835D06428A3
:102D800079D0652812D195E1702873D008DC6728C6
:102D9000F1D069286FD06E280DD06F2806D1B5E02C
:102DA00073282CD0752875D0782874D05A46179976
:102DB00090476D1C75E1C4F30250022809D0032826
:102DC0000DD0D9F8001004280DD00D6009F10409C8
:102DD00067E1D9F80010EA17C1E90052F6E7D9F81F
:102DE00000100D80F2E70D70F0E719F8041B8DF864
:102DF000001000208DF80100EA46012003E059F898
:102E000004AB4FF0FF3061074FF0000102D40DE03A
:102E100008F101018846B9420FDA8045F8DB1AF85B
:102E200008100029F4D108E008F101018846814228
:102E3000FADB1AF808100029F6D105985B46A0EBDA
:102E4000080721463846179A00F094FA284400EB08
:102E5000080507E04DE029E10DE01AF8010B5A469C
:102E600017999047B8F10108F7D25B4621463846DA
:102E7000179A13E142E00A220092C4F302524FF083
:102E8000000A022A08D059F804CB032A4FEAEC7151
:102E90000AD00DE029E02AE009F1070121F007023C
:102EA000F2E802C1914609E00FFA8CFC4FEAEC719E
:102EB000042A03D14FFA8CFC4FEAEC71002907DA9F
:102EC0000A460021DCF1000C61EB02012D2202E038
:102ED000220504D52B228DF80420012203E0E2070D
:102EE00001D02022F7E7904659E00A2102E01022A3
:102EF0000DE010214FF0000A00910BE010224FF07E
:102F0000000A44F004040827009203E008224FF06E
:102F1000000A0092C4F30252022A05D059F804CBE9
:102F20000021032A08D009E009F1070121F0070276
:102F3000F2E802C1914605E01FFA8CFC042A01D197
:102F40000CF0FF0C4FF00008220728D5702806D09F
:102F5000009B83F0100353EA0A0305D00EE04022E1
:102F60008DF80420012208E05CEA010206D030223C
:102F70008DF804208DF8050002229046009B83F016
:102F8000080353EA0A030AD15CEA010201D162078D
:102F900005D530228DF804204FF001087F1E5828F7
:102FA00004D034A003900EA802900DE036A0F9E7FB
:102FB00053466046009AFDF731FA84460398825CD6
:102FC0000298401E029002705CEA0100F0D1029863
:102FD00006A9081A00F1200A600702D524F48034FB
:102FE00000E00127574502DDA7EB0A0000E00020C2
:102FF00000EB0A01009005984144401A0590E00357
:1030000006D45B462146179A059800F0B3F90544AB
:10301000002706E001A85A46C05D179990476D1C2D
:103020007F1C4745F6DBE0030CD55B462146179A2B
:10303000059800F09FF9054404E030205A4617999E
:1030400090476D1C0099481E00900029F5DC08E0AF
:10305000029802995A460078491C029117999047A4
:103060006D1CBAF10001AAF1010AF1DC65E1000072
:10307000092801003031323334353637383961624E
:103080006364656600000000303132333435363712
:1030900038394142434445460000000000F058F9E9
:1030A0000544761C307800287FF4ECAD19B0284632
:1030B000BDE8F08F620700D4062709F1070222F06D
:1030C000070CFCE80223E14603F000485FEA080C25
:1030D00002D00FF2702C0DE05FEA045C02D50FF213
:1030E000682C07E05FEAC47C02D00FF2602C01E09C
:1030F000AFF2700C4FF0FF3823F00043CDF850C012
:1031000065280CD006DC452809D046281DD0472864
:103110003DD13DE0662818D067287ED138E00021F7
:10312000112F01DB112000E0781CCDE9000106A978
:103130000EA8FFF7EDFCDDE90F010E9A03910021C7
:10314000009207F1010A04914DE04FF00040009712
:10315000CDE9011006A90EA8FFF7DAFCDDE90F02A0
:1031600003920E9B11990022DDF80CA000930492AB
:1031700011B9791C00EB010AB7EB0A0004D4C0F1C5
:10318000FF3007F1010A0490AAEB0700019044E028
:10319000012F00DA01270021112F01DD112000E0AD
:1031A0003846CDE9000106A90EA8FFF7B1FCDDE91C
:1031B0000F010E9A0391002104910092BA46210753
:1031C0000CD40399514500DA8A46BAF1010F05DDA6
:1031D000009AAAF10101515C302908D0B84202DA04
:1031E00010F1040F06DA0121CDE9011015E0AAF172
:1031F0000101E9E7002805DC049901440491AAEBE8
:10320000000102E0411C514500DD8A460499401A44
:10321000401C01904FF000400290200704D4019818
:10322000504501DBCDF8048000208DF84F00029856
:103230000DF14F07B0F1004F25D02B200E900298D2
:103240004FF0020800280CDA404202902D200E9028
:1032500007E00A210298FDF7CBF83031029007F819
:10326000011DB8F10001A8F10108F2DC0298002864
:10327000EFD1791E0E980870307800F0200040F0F1
:10328000450007F8020D12A8C01B00F107081498AA
:10329000007800B1012000EB0A01019801EBE07118
:1032A00005984144401A401E0590E00306D45B4651
:1032B0002146179A059800F05DF8054414980078A7
:1032C00018B15A46179990476D1CE00324D55B4608
:1032D0002146179A059800F04DF805441CE0049823
:1032E000002807DBDDE90301884203DD0098405C2C
:1032F000179901E0179930205A469047049805F134
:103300000105401C04900198401E019004D12E201C
:103310005A46179990476D1CBAF10001AAF1010AAB
:10332000DDDC05E017F8010B5A46179990476D1C34
:10333000B8F10001A8F10108F4DC5B462146179AB8
:103340000598ABE62D0000002B00000020000000D7
:103350002DE9F041044600251E461746880404D492
:1033600005E039462020B0476D1C641EF9D528467B
:10337000BDE8F0812DE9F041044600251E46904647
:10338000C80301D5302700E02027880404D505E0D4
:1033900041463846B0476D1C641EF9D52846BDE845
:1033A000F081000013B54FF6FF7301226946024811
:1033B000FFF784F900981CBD18000020FEF70AFAF8
:1033C000FFF743FAFFF706FA25A0FFF781FBFFF7A7
:1033D000E3F93048FDF7A4FA04222F492D48FDF700
:1033E000DBFC2D4CDFF8B480DFF8B4A04FF47A7624
:1033F000083C4FF066376FF00B093046FEF7C9F80E
:103400002089C0F30B052846FCF7B6FF3A46434631
:10341000FCF7BAFE4A46FCF798FFFCF7CDFF2060A8
:10342000FCF7B7FF02460B4600205146FCF71EFF93
:10343000FCF7C2FF606029461AA0FFF749FB20682D
:10344000FCF7A7FF02460B461CA0FFF741FB606894
:10345000FCF79FFF02460B461EA0FFF739FBCCE7A7
:103460002D2D2D2DD5E2CAC7D2BBB8F6414443B5A8
:10347000A5CDA8B5C0B5E7D1B9B2C9BCAFCAB5D161
:10348000E928444D41B4ABCAE4292D2D2D2D2D0A38
:1034900000000000580000201000002066660A406E
:1034A000008050404144D7AABBBBD4ADCABCD6B5FE
:1034B000203D203078253034580A0000BCC6CBE3CC
:1034C000B5C3B3F6B5E7D1B9D6B5203D2025662002
:1034D000560A0000BCC6CBE3B5C3B3F6B5E7D7E8E0
:1034E000D6B5203D202566204B520A000000000082
:1034F0000102030401020304060708091C35000841
:103500000000002018000000F02A000834350008F0
:1035100018000020A8100000002B000800A24A0498
:10352000000000000000000000000000000000009B
:043530000000000097
:0400000508000131BD
:00000001FF
