:020000040800F2
:10000000F804002045010008051800086B150008D9
:10001000E517000881030008351E000800000000F5
:100020000000000000000000000000003B18000875
:100030008303000800000000391800084918000870
:100040005F0100085F0100085F0100085F01000810
:100050005F0100085F0100085F0100085F01000800
:100060005F0100085F0100085F0100085F010008F0
:100070005F0100085F0100085F0100085F010008E0
:100080005F0100085F0100085F0100085F010008D0
:100090005F0100085F0100085F0100085F010008C0
:1000A0005F0100085F0100085F0100085F010008B0
:1000B000091900085F0100085F0100085F010008DE
:1000C0005F0100085F0100085F0100085F01000890
:1000D0005F0100085F0100085F0100085F01000880
:1000E0005F0100085F0100085F0100085F01000870
:1000F0005F0100085F0100085F0100085F01000860
:100100005F0100085F0100085F0100085F0100084F
:100110005F0100085F0100085F0100085F0100083F
:100120005F0100085F0100085F0100085F0100082F
:10013000DFF80CD000F012F900480047E51F000876
:10014000F80400200648804706480047FEE7FEE71F
:10015000FEE7FEE7FEE7FEE7FEE7FEE7FEE7FEE777
:10016000C118000831010008F0B480EA0102D40F80
:100170004200B2EB410F02D20246084611464A0045
:1001800042D0C30DDDB2C1F3C752AD1A202D35DA0E
:10019000C1F3160141F4000204B15242C5F1200638
:1001A00002FA06F12A411044B3EBD05F23D0C4B168
:1001B000012DA0EBC35009DCF0BC4FF0004202EA75
:1001C000C352DBB200F5000000F099B8400000F126
:1001D000807000EBC350A0F1807040EAD1704900FC
:1001E00009E0490841EAC071A0EBC35000F50000E6
:1001F000400800EBC350F0BC00F078B86142012227
:1002000002EB4101001BF6E7F0BC704781F00041B2
:10021000AAE780F00040A7E780EA010210B502F0EB
:100220000043400022D04A001FD0010E01EB1261B2
:10023000C0F35600C2F3560240F4000042F400023C
:10024000A0FB022000047F39140400D0401C50EAB7
:10025000124001D44000491EC2B20C0604EBD0107B
:10026000401C4008802A02D003E0002010BD20F08E
:100270000100002900DA0020184310BDC10F80EAF8
:10028000E0700844CA079623002100F038B800F057
:10029000004220F00040C10DC0F3160040F4000001
:1002A0007F2901DA00207047962903DCC1F196010D
:1002B000C84001E096398840002AF4D04042704797
:1002C00030B50B46014600202022012409E021FA26
:1002D00002F59D4205D303FA02F5491B04FA02F523
:1002E0002844151EA2F10102F1DC30BD0029A8BF8F
:1002F0007047401C490008BF20F00100704710B44F
:10030000B0FA80FC00FA0CF050EA010404BF10BC03
:10031000704749B1CCF1200421FA04F411FA0CF130
:1003200018BF012121430843A3EB0C01CB1D4FEA69
:1003300000614FEA102042BF002010BC704700EB64
:10034000C35010440029A4BF10BC7047401C490092
:1003500008BF20F0010010BC70470000064C074D9C
:1003600006E0E06840F0010394E807009847103485
:10037000AC42F6D3FFF7E0FEE020000800210008C1
:10038000FEE770472DE9F84FDFF8B8A100220AF127
:10039000040B144601274FF00F090BF1040E00BFA8
:1003A0000B6807FA04F52B40AB4274D1DFF898C113
:1003B0004E68A6EB0C0866452BD00DDC032E34D01E
:1003C00005DC36B3012E19D0022E2FD11BE0112EE1
:1003D00016D0122E2AD119E0B8F5881F19D006DCE4
:1003E000B8F5803F15D0B8F5801F1FD111E0B8F5E2
:1003F000001F0ED0B8F5041F18D10AE0CA6815E036
:10040000CA68121D12E0CA6808320FE0CA680C32CE
:100410000CE08A682AB1012A4FF0080203D0456136
:1004200004E0042202E0056100E00022FF2B01D875
:10043000064601E000F104064FEA840501D9A5F162
:100440002005D6F800C009FA05F82CEA080C02FAD3
:1004500005F54CEA050CC6F800C04D68ED006AD5FC
:100460003A4DAE6946F00106AE61AD6924F003066F
:1004700005F001050095364D06EB050CDCF808503B
:10048000A6074FEA167809FA08F6B543314EB0428E
:1004900002D100261AE04EE02F4EB04201D10126D3
:1004A00014E02E4EB04201D102260FE02C4EB04295
:1004B00001D103260AE02B4EB04201D1042605E00B
:1004C000294EB04201D1052600E0062606FA08F6BC
:1004D0002E43CCF808604D68DAF80060ED0355460D
:1004E00001D51E4300E09E432E604D68AD0305D547
:1004F000DBF800601E43CBF8006004E0DBF800503E
:100500009D43CBF800504D68DEF80060ED02754663
:1005100001D51E4300E09E432E604D68AD0205D517
:10052000084D0C352E681E432E6004E0054E0C3637
:1005300035689D433560641C102CFFF431AFBDE875
:10054000F88F00000004014000001110001002406C
:100550000000014000080140000C01400010014073
:100560000014014000180140001C01400AB1016163
:1005700070470904FBE700000148806870470000ED
:100580000C000020024881680278114481607047A5
:100590000C000020074810B5016841F0100101600F
:1005A000032000F09DF8002000F006F800F024F889
:1005B000002010BD0020024070B50D4D04464FF4E0
:1005C0007A712878B1FBF0F00A490968B1FBF0F0C4
:1005D00000F068FB48B9102C07D200222146501EBB
:1005E00000F05EF800206C6070BD012070BD00005E
:1005F0000C00002018000020214808B5816941F056
:1006000001018161816901F001010091C16941F03D
:100610008051C161C06900F080500090032000F05B
:100620005FF8002211466FF00B0000F039F800224D
:1006300011466FF00A0000F033F8002211466FF007
:10064000090000F02DF800221146501F00F028F894
:1006500000221146101F00F023F800221146901EC0
:1006600000F01EF800221146501E00F019F805484F
:10067000416821F0E06141F08061416008BD000007
:10068000001002400000014000F01F0201219140D3
:100690004009800000F1E020C0F800117047000020
:1006A000F0B40E4B1B680C46C3F30223C3F10705DD
:1006B000042D00D90425191D072901D2002300E0CB
:1006C000DB1E012606FA05F1491E214099409E4095
:1006D000761E16403143F0BC01F095B80CED00E0F9
:1006E000064900F0070208684FF6FF03184040EA89
:1006F0000220034A10430860704700000CED00E040
:100700000000FA052DE9F047DFF83C8105460E466A
:10071000D8F8000000F00700B0420CD2D8F8001062
:1007200021F007013143C8F80010D8F8000000F0AC
:100730000700B04263D12878444C800705D5606833
:10074000A96820F0F000084360602878C00745D011
:100750006868012816D02168022816D08907002968
:100760004DDA616821F0030101436160FFF704FF86
:100770006968074641F2883001290FD00229814675
:1007800019D027E021688903E9E78901E7E700BF7D
:10079000FFF7F2FEC11B494501D918E081466068A8
:1007A000C0F381000128F3D118E000BFFFF7E4FE99
:1007B000C11B49450BD86068C0F381000228F5D100
:1007C0000CE000BFFFF7D8FEC11B494502D903204A
:1007D000BDE8F087606810F00C0FF3D1D8F8001076
:1007E000404601F00701B1420BD9016821F0070131
:1007F00031430160006800F00700B04201D00120E1
:10080000E6E72878400705D56068E96820F4E060ED
:10081000084360602878000706D56068296920F4DD
:10082000605040EAC100606000F03CF86168084A2E
:10083000C1F30311515CC840064908600020FFF76E
:10084000BBFE0020C4E70000002002400010024070
:100850006C20000818000020014800687047000064
:10086000180000200448054900684968044AC1F39B
:100870000221515CC840704718000020001002405F
:100880007C2000080448054900684968044AC1F30F
:10089000C221515CC840704718000020001002407F
:1008A0007C20000812A185B00FC98DE80F0014A0AC
:1008B000144A006804905168134801F00C03042B9B
:1008C00010D0082B0ED1C1F38343C9031DF80300D8
:1008D0000AD5516804AAC1F34041515C0A4A504309
:1008E000B0FBF1F005B0704708494843FAE7000053
:1008F00002030405060708090A0B0C0D0E0F101061
:10090000010200000010024000127A0000093D00C0
:100910002DE9F84F04460078B94DC00748D0686803
:10092000C0F38100012807D06868C0F38100022865
:1009300009D16868C00306D52868800338D5606887
:1009400000286FD034E06068B0F5803F0BD010B164
:10095000B0F5A02F11D0286820F4803028602868D6
:1009600020F4802002E0286840F48030286060682D
:1009700088B1FFF701FE064609E0286840F48020B0
:100980002860F0E7FFF7F8FD801B642875D8286819
:100990008003F7D50CE0FFF7EFFD064605E000BF4A
:1009A000FFF7EAFD801B6428F0D828688003F7D49D
:1009B0002078944E80074FF001094FF000083BD596
:1009C000686810F00C0F07D06868C0F38100022837
:1009D00009D16868C00306D42868800714D5206947
:1009E00001281FD110E02069B0B1C6F80090FFF7D0
:1009F000C3FD074605E000BFFFF7BEFDC01B022890
:100A0000C4D828688007F7D52868616920F0F80005
:100A100040EAC10028600FE0C6F80080FFF7ACFD97
:100A2000074606E0E9E000BFFFF7A6FDC01B02286D
:100A300023D828688007F7D4207800072CD572487F
:100A4000A169D9B1C0F80090FFF796FD074604E010
:100A5000FFF792FDC01B02280FD8686A8007F7D500
:100A60006A484FF4FA510068B0FBF1F0009000BF03
:100A70000098411E0091FAD20EE080E0C0F800809C
:100A8000FFF77AFD074604E0FFF776FDC01B02285A
:100A900075D8686A8007F7D42078400760D5E86980
:100AA0000027C00008D4E86940F08050E861E86998
:100AB000012700F08050009055480168C90513D403
:100AC0000168834641F480710160FFF755FD82465D
:100AD00006E000BFFFF750FDA0EB0A0064284ED8E7
:100AE000DBF80000C005F5D5E06801280AD008B1A0
:100AF000052813D0286A20F001002862286A20F017
:100B0000040002E0286A40F001002862E06841F237
:100B1000883B98B1FFF730FD82460BE0286A40F031
:100B200004002862EEE700BFFFF726FDA0EB0A01F4
:100B300059455AD8286A8007F6D50CE0FFF71CFD06
:100B4000824605E0FFF718FDA0EB0A0159454CD895
:100B5000286A8007F6D41FB1E86920F08050E86168
:100B6000E06988B36968C1F38101022945D0022890
:100B7000C6F8608004D0FFF7FFFC044638E034E09C
:100B8000FFF7FAFC074604E0FFF7F6FCC01B02285B
:100B90002BD828688001F7D4206AB0F5803F05D1B2
:100BA0006868A16820F4003008436860D4E908014F
:100BB0000843696821F4741108436860C6F86090BE
:100BC000FFF7DAFC044606E015E000BFFFF7D4FCAF
:100BD000001B022809D828688001F7D50BE000BF68
:100BE000FFF7CAFC001B022802D90320BDE8F88FDA
:100BF00028688001F4D40020F8E70120F6E700001F
:100C000000100240000042428004424218000020CE
:100C1000007000404FF0E0210428086903D020F064
:100C200004000861704740F00400FAE73EB51A4C32
:100C3000207800282FD06088401C60806088C828F9
:100C400029D1A06800250290A5600146134800F054
:100C50008DFC009010F1040F01DB042805DD0A2152
:100C600090FBF1F0A1880844A080A088B0F5617FD6
:100C700002D340F28330A080A08801900748026828
:100C800000680299029B091A054801F0D5F8A0886E
:100C900000F0D4FD65803EBD000000202000002053
:100CA0008420000810B5401EB0F1807F01D30120E0
:100CB00010BD4FF0E02460610F21601700F0A3FD2C
:100CC0000020A06107202061002010BD10B5FFF7B3
:100CD000ADFF10BD7047704710B590F83C20012A59
:100CE00025D0012280F83C20CA688C6822F440722A
:100CF00022434C6822F4806222430C6822F4006292
:100D000022430C6922F4805222434C6922F400529F
:100D100022438C6922F48042224322F4004102687B
:100D200000232143516480F83C30002010BD022094
:100D300010BD30B590F83C20012A20D0012280F867
:100D40003C20022380F83D3003685C6824F0700486
:100D50005C6003685C680D682C435C6003689C6899
:100D600024F080049C6003689C6849680C439C6084
:100D700080F83D20002180F83C10084630BD02205C
:100D800030BD10B504460068042200F014FE20684F
:100D9000416C41F4004141642068016841F0010167
:100DA0000160002010BD10B5040003D094F83D0090
:100DB00010B107E0012010BD002084F83C0020465F
:100DC00000F00CF8022084F83D00211D206800F09E
:100DD000A1FD012084F83D00002010BD00B5164A99
:100DE0000168164885B0914209D1816941F40061DA
:100DF0008161806900F40060049005B000BDB1F12C
:100E0000804FFAD1C16941F00101C161C06900217F
:100E100000F0010004900120CDE900010290694634
:100E20000748FFF7AFFA002211461C20FFF738FCF5
:100E30001C20FFF729FCE0E7002C014000100240D5
:100E400000080140022180F83D1001680A6842F064
:100E500001020A60012180F83D100020704770B542
:100E6000044690F83C00012817D0012584F83C5036
:100E7000022084F83D002068826822F0770222F484
:100E80007F4282600868502837D00DDC202859D076
:100E900005DC88B3102841D151E0022070BD302814
:100EA00053D040283AD13FE060282ED070280BD094
:100EB000B0F5805F03D0B0F5005F2FD110E020685F
:100EC000816821F0070115E0CB68D1E90121206894
:100ED00000F07CFD2168886840F0770088601DE0A4
:100EE000CB68D1E90121206800F070FD206881689D
:100EF00041F48041816011E01EE0CA6849682068C1
:100F000000F038FE5021206806E0CA684968206871
:100F100000F078FE6021206800F062FD84F83D500A
:100F2000002084F83C0070BDCA684968206800F061
:100F300021FE40212068EFE700212068ECE7102126
:100F40002068E9E720212068E6E730212068E3E710
:100F50000349884203D103488168491C8160704776
:100F600078000020000000202DE9F041044690F8B0
:100F70003C000D4601283BD0012684F83C6002204D
:100F800084F83D009AB3042A44D02068082A53D03C
:100F9000D5E90027E968036A23F480530362D0F897
:100FA0001CC0036A2CF4407C4CEA07274FF6FF7CF8
:100FB00027F470470CEA01313943770323F40053D7
:100FC00007EA02321A43C16102622068C16921F452
:100FD0004061C1612068C169AA6841EA0221C1611A
:100FE00084F83D60002084F83C00BDE8F08101E019
:100FF0000220FAE7D5E90012EB68206800F0CCFD8A
:101000002068816921F00C01816120688169AA68EA
:1010100011430FE0D5E90012EB68206800F004FEF0
:101020002068816921F44061816120688169AA6832
:1010300041EA02218161D3E7D5E9002C2F7B016AC7
:1010400021F480710162C169036A21F0030141EA60
:101050000C0121F0F00C39074FF420674CEA1161C4
:1010600023F4206307EA02221A43C1610262206866
:10107000C16921F00C01C1612068C169AA681143EE
:10108000ADE710B5040003D094F83D0010B107E0BF
:10109000012010BD002084F83C00204600F00CF830
:1010A000022084F83D00211D206800F033FC01205F
:1010B00084F83D00002010BD704710B5026804465A
:1010C00031B1042908D0082915D00C2908D116E01F
:1010D000D06840F0020002E0D06840F00400D06028
:1010E0000122206800F05CFC2068016841F00101E9
:1010F0000160002010BDD06840F00800EFE7D06824
:1011000040F01000EBE770B50446006801694FF04D
:101110000005C943890715D4C168C943890711D49B
:10112000E91E016101202077206880698007204640
:1011300002D0FFF70DFF04E000F0B8F8204600F001
:101140003AF9257720680169C943490717D4C1686E
:10115000C943490713D46FF00401016102202077CD
:101160002068806910F4407F204602D0FFF7F0FE2F
:1011700004E000F09BF8204600F01DF92577206878
:101180000169C943090716D4C168C943090712D4C4
:101190006FF008010161042020772068C069800792
:1011A000204602D0FFF7D4FE04E000F07FF820468E
:1011B00000F001F9257720680169C943C90617D4F1
:1011C000C168C943C90613D46FF01001016108203A
:1011D00020772068C06910F4407F204602D0FFF7D6
:1011E000B7FE04E000F062F8204600F0E4F825774E
:1011F00020680169C943C90708D1C168C943C90743
:1012000004D1891E0161204600F0F2F820680169CE
:10121000C943090609D4C168C943090605D46FF05A
:10122000800101612046FFF755FD20680169C9432F
:10123000490609D4C168C943490605D46FF0400185
:101240000161204600F0D5F820680169C94389068C
:101250000BD4C168C943890607D46FF0200101612E
:101260002046BDE87040FFF736BD70BD1FB5006871
:101270000B49884212D14FF4407000900220019037
:10128000039069460748FFF77DF80748416821F059
:10129000C00141F0E06141F0C00141601FBD0000AC
:1012A000002C01400018014000000140704770B55B
:1012B000044690F83C000D4601280DD0012684F824
:1012C0003C60022084F83D0042B1042A18D0082A6C
:1012D0002AD00C2A4DD139E0022070BD206800F0E0
:1012E00087FB2068816941F008018161206881697C
:1012F00021F004018161206881692A69114311E0AC
:10130000206800F0A5FB2068816941F400618161DB
:101310002068816921F480618161206881692A697E
:1013200041EA0221816124E0206800F0C7FB2068C7
:10133000C16941F00801C1612068C16921F004015F
:10134000C1612068C1692A69114311E0206800F079
:10135000E9FB2068C16941F40061C1612068C1698D
:1013600021F48061C1612068C1692A6941EA0221D2
:10137000C16184F83D60002084F83C0070BD10B568
:10138000040003D094F83D0010B107E0012010BD27
:10139000002084F83C00204600F00CF8022084F87D
:1013A0003D00211D206800F0B5FA012084F83D00C1
:1013B000002010BD7047704710B504460068012238
:1013C00000F0EEFA08492068884202D007498842B6
:1013D00003D1416C41F4004141642068016841F04F
:1013E00001010160002010BD002C014000340140CB
:1013F0007047704770B5040004D094F83900002598
:1014000010B106E0012070BD84F83850204600F08D
:1014100023F8242084F839002068C16821F40051A1
:10142000C160204600F01CFC2068016921F4904155
:1014300001612068416921F02A0141612068C16889
:1014400041F40051C160E563202084F8390084F83C
:101450003A00002070BD000010B50068114986B048
:1014600088421DD11048816941F4804181618069C1
:101470000E4C00F4804004904FF400700090022065
:1014800001900320039069462046FEF77BFF002170
:101490002015CDE90001029169462046FEF772FF52
:1014A00006B010BD003801400010024000080140A5
:1014B0002DE9F843044690F839001F4616460D46BC
:1014C000202850D1A5B19EB194F8380001284AD007
:1014D000012084F838004FF00008C4F83C80212037
:1014E00084F83900FFF748F8A6848146E68426E0B0
:1014F0000120BDE8F883E08C401EE084A0684B46E4
:10150000B0F5805F4FF000024FF080012046009759
:1015100003D000F05DFCE8B90DE000F059FCC8B95B
:1015200028882168C0F308004860206908B16D1C54
:1015300005E0AD1C03E0216815F8010B4860E08C64
:101540000028D8D14B46002240212046009700F0C9
:101550003FFC08B10320CCE7202084F8390084F850
:1015600038800020C5E70220C3E7FEE72DE9F041FF
:1015700004460068451A6169E068FEF74DFE21697E
:101580000746A068FEF748FE06462846FEF776FEA8
:1015900005466168FEF740FE3146FEF737FE3946E4
:1015A000FEF7E2FDFEF773FE0146206960612561EA
:1015B0000846BDE8F0810000174810B5816986B083
:1015C00041F004018161816901F0040104918169A4
:1015D00041F040018161816901F04001049181691C
:1015E00041F02001816180690C4C00F020000490E2
:1015F0000022C0212046FEF7B9FFC0200090012044
:101600000190002002900220039069462046FEF7D8
:10161000B9FE06B010BD00000010024000140140E9
:1016200010B52F4894B02D49016001210024C0E974
:1016300001144FF46171C0E9031444618461FFF740
:10164000B2FB18B1452127A000F0F5FB4FF4805004
:101650000E900EA92248FFF702FC18B14B2121A0E1
:1016600000F0E9FB1E48FFF78AFE18B150211DA0CB
:1016700000F0E1FB129412A919481394FFF759FBEB
:1016800018B1572117A000F0D6FB6020CDE9000467
:101690000294039404940594002269461048069429
:1016A000FFF705FE18B163210EA000F0C4FB0794FC
:1016B000089409944FF400500A94CDE90B4007A90F
:1016C00007480D94FFF708FB18B16F2105A000F043
:1016D000B2FB0348FFF7CAFD14B010BD002C014057
:1016E000380000202E2E2F5372632F74696D2E63E5
:1016F0000000000010B523488AB04FF0804101601F
:1017000047210024C0E901144FF6FF71C0E903141A
:101710008461FFF748FB18B184211BA000F08BFB0C
:101720004FF48050049004A91648FFF798FB18B1B5
:101730008A2115A000F07FFB1248FFF7A2FC18B128
:101740008F2111A000F077FB089408A90D48099497
:10175000FFF7EFFA18B196210BA000F06CFB012007
:10176000CDE9004002940022694606480394FFF741
:10177000FBFB002803D09F2103A000F05CFB0AB014
:1017800010BD0000780000202E2E2F5372632F749E
:10179000696D2E63000000000D4810B50B49016013
:1017A0004FF4E1314160002181600C22C160C0E949
:1017B00004128161C161FFF71DFE002805D0BDE85C
:1017C0001040422103A000F036BB10BD003801409C
:1017D000B80000202E2E2F5372632F757361727420
:1017E0002E630000FEE7000010B500210448FFF75B
:1017F000E3FDBDE8104000210148FFF7C2BA000038
:101800003800002070470907090E002806DA00F0AA
:101810000F0000F1E02080F8141D704700F1E02077
:1018200080F80014704741608260C360002101614C
:101830004161704701607047704770470149086017
:1018400070470000342C014010B5FEF79BFEBDE848
:101850001040FFF73BBA30B58FB001210804CDE945
:1018600000100024029402250491CDE907504FF4A2
:10187000E01009906846FFF74BF800B1FEE70F2033
:10188000CDE90A054FF48060CDE90C4002210AA899
:101890000E94FEF737FF00B1FEE7FEF7DDFF4FF4D1
:1018A0007A71B0FBF1F0FFF7FDF90420FFF7B2F910
:1018B00000221146501EFEF7F3FE0FB030BD0000AF
:1018C0000D48016841F00101016041680B4A114077
:1018D000416001680A4A11400160016821F48021D9
:1018E0000160416821F4FE0141604FF41F018160F5
:1018F0000449C00308607047001002400000FFF870
:10190000FFFFF6FE08ED00E00148FFF7FCBB00001A
:1019100078000020F0B502681C4B1D4D1D4E1E4F77
:101920001E4C4FF0804C984209D0A04207D0604531
:1019300005D0A84203D0B04201D0B84204D122F071
:10194000700E4A6842EA0E02984209D0A04207D0BF
:10195000604505D0A84203D0B04201D0B84203D1BF
:1019600022F44075CA682A4322F080054A692A4356
:1019700002608A68C2620A688262984201D0A0420C
:1019800001D10969016301214161F0BD002C0140D1
:101990000004004000080040000C004000340140FA
:1019A00010B50123046A8B409C430462036A8A4099
:1019B0001343036210BD10B50423046A8B409C439B
:1019C0000462036A8A401343036210BD10B5846841
:1019D00042EA032224F47F440A432243826010BD7A
:1019E000826822F070020A4342F00701816070476A
:1019F000F0B5026A22F001020262036A4268846959
:101A0000124E24F073050C682C4323F002058B68FA
:101A10002B430D4DA84201D0B04205D123F0080759
:101A2000CB683B4323F00403A84201D0B04205D168
:101A30004D6922F4407215438A692A4342608461E9
:101A4000496841630362F0BD002C0140003401404D
:101A5000F0B5026A22F010020262026A43688469E9
:101A60000D6824F4E64444EA05248D6822F020023F
:101A700042EA05120F4D104EA84201D0B04206D1E5
:101A8000CF6822F0800242EA071222F04002A84208
:101A900001D0B04207D14D6923F4406343EA850386
:101AA0008D6943EA8503436084614968816302620A
:101AB000F0BD0000002C014000340140F0B5026A86
:101AC00022F480720262026A4368C46922F40072DE
:101AD00024F073050C68124E2C438D6842EA0522EF
:101AE0000E4DA84201D0B04206D1CF6822F4006268
:101AF00042EA072222F48062A84201D0B04207D114
:101B00004D6923F4405343EA05138D6943EA0513F5
:101B10004360C4614968C1630262F0BD002C0140AA
:101B20000034014030B5026A22F480520262046A35
:101B30004268C3690D6823F4E64343EA05238D68D0
:101B400024F4005444EA0534084DA84202D0084D5C
:101B5000A84204D14D6922F4804242EA85124260D3
:101B6000C36149680164046230BD0000002C01407B
:101B70000034014010B5036A046A24F001040462D1
:101B8000846924F0F00444EA021423F00A020A43B0
:101B90008461026210BD000070B5046A24F0010483
:101BA00004628469056A124EB0420ED0114EB042F2
:101BB0000BD0B0F1804F08D00F4EB04205D00F4E81
:101BC000B04202D00E4EB04203D124F003041443BD
:101BD00001E044F001041A0724F0F00444EA126220
:101BE00025F00A0301F00A0119438261016270BD08
:101BF000002C014000340140000400400008004077
:101C0000000C004010B5036A23F0100303628369DF
:101C1000046A23F4704343EA023224F0A00343EA47
:101C200001118261016210BD30B5046A24F0100414
:101C300004628469056A24F4407444EA022222F4AE
:101C400070444FF6FF7202EA03322243A02425F0CB
:101C5000A00304EA011119438261016230BD000052
:101C60002DE9F041044600680169E26821F4405121
:101C7000114301612169A068084361690843216833
:101C8000CA6841F20C639A430243CA602068416902
:101C9000A26921F44071114341614C4920686425D7
:101CA000322688423CD1FEF7EDFD00EBC00101EB8E
:101CB000001061688900B0FBF1F7FEF7E3FD00EB6F
:101CC000C00101EB00106168B0468900B0FBF1F083
:101CD000B0FBF5F06FF01801484307EB800106EB0D
:101CE0000110B0FBF5F000F0F006FEF7CBFD00EBC5
:101CF000C00101EB001061688900B0FBF1F0B0FB9E
:101D0000F5F006EB0016FEF7BDFD00EBC00101EBA0
:101D1000001061688900B0FBF1F7FEF7B3FD3BE00E
:101D2000FEF7A0FD00EBC00101EB00106168890027
:101D3000B0FBF1F7FEF796FD00EBC00101EB0010E0
:101D40006168B0468900B0FBF1F0B0FBF5F06FF0D0
:101D50001801484307EB800106EB0110B0FBF5F0DA
:101D600000F0F006FEF77EFD00EBC00101EB001075
:101D700061688900B0FBF1F0B0FBF5F006EB0016EE
:101D8000FEF770FD00EBC00101EB001061688900F7
:101D9000B0FBF1F7FEF766FD00EBC00101EB0010B0
:101DA00061688900B0FBF1F0B0FBF5F06FF018014D
:101DB000484307EB800108EB0110B0FBF5F0216808
:101DC00000F00F0030448860BDE8F0810038014029
:101DD0002DE9F041984617460E460446069D1DE043
:101DE000681C1BD02DB1FEF7C7FBA0EB0800A84272
:101DF00014D92068C16821F4D071C160206841699C
:101E000021F001014161202084F8390084F83A0072
:101E1000002084F838000320BDE8F08120680068C5
:101E200036EA000004D00020B842D9D00020F3E701
:101E30000120F9E7FEE7FEE70FB4054B10B503A953
:101E4000044A029800F018F810BC5DF814FB00007A
:101E5000CD1F00081C00002002E008C8121F08C1A6
:101E6000002AFAD170477047002001E001C1121F1B
:101E7000002AFBD1704700002DE9FF4F89B09B4637
:101E80000446002506E025280BD05A460B999047BA
:101E9000641C6D1C20780028F5D10DB02846BDE8E3
:101EA000F08F0027B8460122474900E0074314F8A5
:101EB000013F203B02FA03F00842F7D120782E2898
:101EC00019D114F8010F47F004072A280ED06FF03B
:101ED0002F022078A0F1300109290CD808EB8801E5
:101EE00002EB410100EB0108641CF2E70A98641C54
:101EF00050F8048B0A9020780028CED0642808D0AF
:101F0000692806D075281ED05A460B9990476D1C3B
:101F100058E00A994FF00A0901C90A91002802DA2B
:101F200040422D2102E0390504D52B218DF82010E7
:101F3000012103E0F90704D02021F7E78A4608AE23
:101F40000DE00021FAE70A994FF00A0901C90A9148
:101F5000F7E74946FEF7B4F9303106F8011D0028CD
:101F6000F7D1ADEB060000F12009780701D44FF05E
:101F70000108C84502DDA8EB090000E0002080460A
:101F8000002706E008A85A46C05D0B9990476D1CD3
:101F90007F1C5745F6DB04E030205A460B999047EA
:101FA0006D1CB8F10001A8F10108F5DC05E016F898
:101FB000010B5A460B9990476D1CB9F10001A9F12C
:101FC0000109F4DC641C65E70928010013B54FF62C
:101FD000FF73012269460248FFF76AFA00981CBDA8
:101FE000B8000020FEF7D6FAFFF735FCFFF7E4FA59
:101FF000FFF716FBFFF77EFBFFF7CEFBFFF7F4FBC7
:102000000D48FEF71FFF0D48FEF71CFF00210B488F
:10201000FFF753F80A4B00220A490B48FFF703FC6D
:102020000A49012008700AA0FFF706FFC8210648E8
:10203000FFF700FCFEE700003800002078000020D9
:10204000CDCCCC3D6666664020000020000000201C
:10205000D4F6C1BFCABD504944CBE3B7A8BFD8D658
:10206000C6B5E7BBFAD0FDD7AA0D0A0000000000F4
:102070000000000001020304060708090000000038
:10208000010203040AB2EED6B5B5E7BBFACBD9B666
:10209000C82D3E092564090909C4BFB1EACBD9B6E8
:1020A000C82D3E092564090909B5E7BBFACBD9B6A5
:1020B000C82D3E092564090920706964BCC6CBE3BC
:1020C000D6B52D3E202025642020202020D0C2B56A
:1020D000C4D5BCBFD5B1C82D3E0925640D0A00008A
:1020E000002100080000002020000000581E000809
:1020F0002021000820000020D8040000681E0008ED
:1021000000000000000000000000000001000000CE
:10211000100000000000000000A24A0400000000BF
:0400000508000131BD
:00000001FF
